Component: ARM Compiler 5.06 update 7 (build 960) Tool: armlink [4d3601]

==============================================================================

Section Cross References

    at32f403a_407_clock.o(i.system_clock_config) refers to at32f403a_407_crm.o(i.crm_reset) for crm_reset
    at32f403a_407_clock.o(i.system_clock_config) refers to at32f403a_407_crm.o(i.crm_clock_source_enable) for crm_clock_source_enable
    at32f403a_407_clock.o(i.system_clock_config) refers to at32f403a_407_crm.o(i.crm_flag_get) for crm_flag_get
    at32f403a_407_clock.o(i.system_clock_config) refers to at32f403a_407_crm.o(i.crm_pll_config) for crm_pll_config
    at32f403a_407_clock.o(i.system_clock_config) refers to at32f403a_407_crm.o(i.crm_ahb_div_set) for crm_ahb_div_set
    at32f403a_407_clock.o(i.system_clock_config) refers to at32f403a_407_crm.o(i.crm_apb2_div_set) for crm_apb2_div_set
    at32f403a_407_clock.o(i.system_clock_config) refers to at32f403a_407_crm.o(i.crm_apb1_div_set) for crm_apb1_div_set
    at32f403a_407_clock.o(i.system_clock_config) refers to at32f403a_407_crm.o(i.crm_auto_step_mode_enable) for crm_auto_step_mode_enable
    at32f403a_407_clock.o(i.system_clock_config) refers to at32f403a_407_crm.o(i.crm_sysclk_switch) for crm_sysclk_switch
    at32f403a_407_clock.o(i.system_clock_config) refers to at32f403a_407_crm.o(i.crm_sysclk_switch_status_get) for crm_sysclk_switch_status_get
    at32f403a_407_clock.o(i.system_clock_config) refers to system_at32f403a_407.o(i.system_core_clock_update) for system_core_clock_update
    at32f403a_407_int.o(i.TMR6_GLOBAL_IRQHandler) refers to at32f403a_407_tmr.o(i.tmr_flag_get) for tmr_flag_get
    at32f403a_407_int.o(i.TMR6_GLOBAL_IRQHandler) refers to netconf.o(i.time_update) for time_update
    at32f403a_407_int.o(i.TMR6_GLOBAL_IRQHandler) refers to at32f403a_407_tmr.o(i.tmr_flag_clear) for tmr_flag_clear
    at32_emac.o(i.emac_layer2_configuration) refers to at32f403a_407_gpio.o(i.gpio_pin_remap_config) for gpio_pin_remap_config
    at32_emac.o(i.emac_layer2_configuration) refers to at32f403a_407_crm.o(i.crm_clock_out_set) for crm_clock_out_set
    at32_emac.o(i.emac_layer2_configuration) refers to at32f403a_407_crm.o(i.crm_clkout_div_set) for crm_clkout_div_set
    at32_emac.o(i.emac_layer2_configuration) refers to at32f403a_407_emac.o(i.emac_reset) for emac_reset
==============================================================================

Removing Unused input sections from the image.

    Removing at32f403a_407_clock.o(.rev16_text), (4 bytes).
    Removing at32f403a_407_clock.o(.revsh_text), (4 bytes).
    Removing at32f403a_407_clock.o(.rrx_text), (6 bytes).
    Removing at32f403a_407_int.o(.rev16_text), (4 bytes).
    Removing at32f403a_407_int.o(.revsh_text), (4 bytes).
    Removing at32f403a_407_int.o(.rrx_text), (6 bytes).
    Removing at32_emac.o(.rev16_text), (4 bytes).
    Removing at32_emac.o(.revsh_text), (4 bytes).
    Removing at32_emac.o(.rrx_text), (6 bytes).
    Removing at32_emac.o(i.emac_phy_register_reset), (104 bytes).
    Removing at32_emac.o(i.reset_phy), (92 bytes).
    Removing main.o(.rev16_text), (4 bytes).
    Removing main.o(.revsh_text), (4 bytes).
    Removing main.o(.rrx_text), (6 bytes).
    Removing netconf.o(.rev16_text), (4 bytes).
    Removing netconf.o(.revsh_text), (4 bytes).
    Removing netconf.o(.rrx_text), (6 bytes).
    Removing at32f403a_407_board.o(.rev16_text), (4 bytes).
==============================================================================

Image Symbol Table

    Local Symbols

    Symbol Name                              Value     Ov Type        Size  Object(Section)

    ../clib/angel/boardlib.s                 0x00000000   Number         0  boardinit1.o ABSOLUTE
    ../clib/angel/boardlib.s                 0x00000000   Number         0  boardshut.o ABSOLUTE
    ../clib/angel/boardlib.s                 0x00000000   Number         0  boardinit3.o ABSOLUTE
    ../clib/angel/boardlib.s                 0x00000000   Number         0  boardinit2.o ABSOLUTE
    ../clib/angel/dczerorl2.s                0x00000000   Number         0  __dczerorl2.o ABSOLUTE
    ../clib/angel/handlers.s                 0x00000000   Number         0  __scatter_zi.o ABSOLUTE
    ../clib/angel/kernel.s                   0x00000000   Number         0  __rtentry4.o ABSOLUTE
    ../clib/angel/kernel.s                   0x00000000   Number         0  rtexit2.o ABSOLUTE
    ../clib/angel/kernel.s                   0x00000000   Number         0  rtexit.o ABSOLUTE
    ../clib/angel/kernel.s                   0x00000000   Number         0  __rtentry2.o ABSOLUTE
    ../clib/angel/kernel.s                   0x00000000   Number         0  __rtentry.o ABSOLUTE
    ../clib/angel/rt.s                       0x00000000   Number         0  rt_errno_addr.o ABSOLUTE
    ../clib/angel/rt.s                       0x00000000   Number         0  rt_locale_intlibspace.o ABSOLUTE
    ../clib/angel/rt.s                       0x00000000   Number         0  rt_ctype_table.o ABSOLUTE
    ../clib/angel/rt.s                       0x00000000   Number         0  rt_locale.o ABSOLUTE
    ../clib/angel/rt.s                       0x00000000   Number         0  rt_heap_descriptor.o ABSOLUTE
    ../clib/angel/rt.s                       0x00000000   Number         0  rt_heap_descriptor_intlibspace.o ABSOLUTE
    ../clib/angel/rt.s                       0x00000000   Number         0  rt_raise.o ABSOLUTE
    ../clib/angel/rt.s                       0x00000000   Number         0  rt_errno_addr_intlibspace.o ABSOLUTE
    ../clib/angel/scatter.s                  0x00000000   Number         0  __scatter.o ABSOLUTE
    ../clib/angel/startup.s                  0x00000000   Number         0  __main.o ABSOLUTE
    ../clib/angel/sys.s                      0x00000000   Number         0  libspace.o ABSOLUTE
    ../clib/angel/sys.s                      0x00000000   Number         0  sys_stackheap_outer.o ABSOLUTE
    ../clib/angel/sys.s                      0x00000000   Number         0  indicate_semi.o ABSOLUTE
    ../clib/angel/sys.s                      0x00000000   Number         0  use_no_semi.o ABSOLUTE
    ../clib/angel/sys.s                      0x00000000   Number         0  mutex_dummy.o ABSOLUTE
    ../clib/angel/sys.s                      0x00000000   Number         0  use_no_semi_2.o ABSOLUTE
    ../clib/angel/sysapp.c                   0x00000000   Number         0  sys_command.o ABSOLUTE
    ../clib/armsys.c                         0x00000000   Number         0  no_argv.o ABSOLUTE
    ../clib/armsys.c                         0x00000000   Number         0  argv_veneer.o ABSOLUTE
    ../clib/armsys.c                         0x00000000   Number         0  _get_argv_nomalloc.o ABSOLUTE
    ../clib/armsys.c                         0x00000000   Number         0  _get_argv.o ABSOLUTE
    ../clib/armsys.c                         0x00000000   Number         0  argv_veneer.o ABSOLUTE
    ../clib/heap1.c                          0x00000000   Number         0  h1_alloc_mt.o ABSOLUTE
    ../clib/heap1.c                          0x00000000   Number         0  h1_final_mt.o ABSOLUTE
    ../clib/heap1.c                          0x00000000   Number         0  h1_free.o ABSOLUTE
    ../clib/heap1.c                          0x00000000   Number         0  h1_init.o ABSOLUTE
    ../clib/heap1.c                          0x00000000   Number         0  h1_free_mt.o ABSOLUTE
    ../clib/heap1.c                          0x00000000   Number         0  h1_extend.o ABSOLUTE
    ../clib/heap1.c                          0x00000000   Number         0  h1_final.o ABSOLUTE
    ../clib/heap1.c                          0x00000000   Number         0  h1_init_mt.o ABSOLUTE
    ../clib/heap1.c                          0x00000000   Number         0  h1_alloc.o ABSOLUTE
    ../clib/heap1.c                          0x00000000   Number         0  h1_extend_mt.o ABSOLUTE
    ../clib/heap2.c                          0x00000000   Number         0  fdtree.o ABSOLUTE
    ../clib/heap2.c                          0x00000000   Number         0  heap2mt.o ABSOLUTE
    ../clib/heap2.c                          0x00000000   Number         0  heap2.o ABSOLUTE
    ../clib/heapalloc.c                      0x00000000   Number         0  free.o ABSOLUTE
    ../clib/heapalloc.c                      0x00000000   Number         0  maybetermalloc2.o ABSOLUTE
    ../clib/heapalloc.c                      0x00000000   Number         0  heapstubs.o ABSOLUTE
    ../clib/heapalloc.c                      0x00000000   Number         0  maybetermalloc1.o ABSOLUTE
    ../clib/heapalloc.c                      0x00000000   Number         0  hrguard.o ABSOLUTE
    ../clib/heapalloc.c                      0x00000000   Number         0  hguard.o ABSOLUTE
    ../clib/heapalloc.c                      0x00000000   Number         0  term_alloc.o ABSOLUTE
    ../clib/heapalloc.c                      0x00000000   Number         0  init_alloc.o ABSOLUTE
    ../clib/heapalloc.c                      0x00000000   Number         0  malloc.o ABSOLUTE
    ../clib/heapalloc.c                      0x00000000   Number         0  maybetermalloc2.o ABSOLUTE
    ../clib/heapalloc.c                      0x00000000   Number         0  maybetermalloc1.o ABSOLUTE
    ../clib/heapaux.c                        0x00000000   Number         0  heapauxi.o ABSOLUTE
    ../clib/heapaux.c                        0x00000000   Number         0  heapauxa.o ABSOLUTE
    ../clib/libinit.s                        0x00000000   Number         0  libshutdown.o ABSOLUTE
    ../clib/libinit.s                        0x00000000   Number         0  libshutdown2.o ABSOLUTE
    ../clib/libinit.s                        0x00000000   Number         0  libinit2.o ABSOLUTE
    ../clib/libinit.s                        0x00000000   Number         0  libinit.o ABSOLUTE
    ../clib/locale.s                         0x00000000   Number         0  lc_ctype_c.o ABSOLUTE
    ../clib/memcpset.s                       0x00000000   Number         0  rt_memclr_w.o ABSOLUTE
    ../clib/memcpset.s                       0x00000000   Number         0  rt_memclr.o ABSOLUTE
    ../clib/memcpset.s                       0x00000000   Number         0  rt_memcpy_w.o ABSOLUTE
    ../clib/memcpset.s                       0x00000000   Number         0  rt_memmove_v6.o ABSOLUTE
    ../clib/memcpset.s                       0x00000000   Number         0  rt_memcpy_v6.o ABSOLUTE
    ../clib/memcpset.s                       0x00000000   Number         0  strcmpv7m.o ABSOLUTE
    ../clib/memcpset.s                       0x00000000   Number         0  rt_memmove_w.o ABSOLUTE
    ../clib/memcpset.s                       0x00000000   Number         0  strncpy.o ABSOLUTE
    ../clib/scanf.c                          0x00000000   Number         0  _strtoul.o ABSOLUTE
    ../clib/scanf.c                          0x00000000   Number         0  strtol.o ABSOLUTE
    ../clib/scanf.c                          0x00000000   Number         0  atoi.o ABSOLUTE
    ../clib/scanf.c                          0x00000000   Number         0  _chval.o ABSOLUTE
    ../clib/signal.c                         0x00000000   Number         0  defsig_general.o ABSOLUTE
    ../clib/signal.c                         0x00000000   Number         0  defsig_rtmem_formal.o ABSOLUTE
    ../clib/signal.c                         0x00000000   Number         0  defsig_rtmem_outer.o ABSOLUTE
    ../clib/signal.c                         0x00000000   Number         0  defsig_abrt_inner.o ABSOLUTE
    ../clib/signal.c                         0x00000000   Number         0  defsig_fpe_inner.o ABSOLUTE
    ../clib/signal.c                         0x00000000   Number         0  defsig_rtred_inner.o ABSOLUTE
    ../clib/signal.c                         0x00000000   Number         0  defsig_stak_inner.o ABSOLUTE
    ../clib/signal.c                         0x00000000   Number         0  defsig_pvfn_inner.o ABSOLUTE
    ../clib/signal.c                         0x00000000   Number         0  defsig_cppl_inner.o ABSOLUTE
    ../clib/signal.c                         0x00000000   Number         0  defsig_segv_inner.o ABSOLUTE
    ../clib/signal.c                         0x00000000   Number         0  defsig_other.o ABSOLUTE
    ../clib/signal.c                         0x00000000   Number         0  defsig_rtmem_inner.o ABSOLUTE
    ../clib/signal.c                         0x00000000   Number         0  defsig_exit.o ABSOLUTE
    ../clib/signal.c                         0x00000000   Number         0  __raise.o ABSOLUTE
    ../clib/signal.s                         0x00000000   Number         0  defsig.o ABSOLUTE
    ../clib/stdlib.c                         0x00000000   Number         0  exit.o ABSOLUTE
    ../clib/string.c                         0x00000000   Number         0  memcmp.o ABSOLUTE
    ../clib/string.c                         0x00000000   Number         0  strlen.o ABSOLUTE
    ../clib/string.c                         0x00000000   Number         0  strncmp.o ABSOLUTE
    ../fplib/fpinit.s                        0x00000000   Number         0  fpinit.o ABSOLUTE
    ..\..\..\..\..\..\libraries\cmsis\cm4\device_support\startup\mdk\startup_at32f403a_407.s 0x00000000   Number         0  startup_at32f403a_407.o ABSOLUTE
    ..\..\..\..\..\..\libraries\cmsis\cm4\device_support\system_at32f403a_407.c 0x00000000   Number         0  system_at32f403a_407.o ABSOLUTE
    ..\..\..\..\..\..\libraries\drivers\src\at32f403a_407_crm.c 0x00000000   Number         0  at32f403a_407_crm.o ABSOLUTE
    ..\..\..\..\..\..\libraries\drivers\src\at32f403a_407_emac.c 0x00000000   Number         0  at32f403a_407_emac.o ABSOLUTE
    ..\..\..\..\..\..\libraries\drivers\src\at32f403a_407_exint.c 0x00000000   Number         0  at32f403a_407_exint.o ABSOLUTE
    ..\..\..\..\..\..\libraries\drivers\src\at32f403a_407_gpio.c 0x00000000   Number         0  at32f403a_407_gpio.o ABSOLUTE
    ..\..\..\..\..\..\libraries\drivers\src\at32f403a_407_misc.c 0x00000000   Number         0  at32f403a_407_misc.o ABSOLUTE
    ..\..\..\..\..\..\libraries\drivers\src\at32f403a_407_tmr.c 0x00000000   Number         0  at32f403a_407_tmr.o ABSOLUTE
    ..\..\..\..\..\..\libraries\drivers\src\at32f403a_407_usart.c 0x00000000   Number         0  at32f403a_407_usart.o ABSOLUTE
    ..\..\..\..\..\..\middlewares\3rd_party\lwip_2.1.2\port\ethernetif.c 0x00000000   Number         0  ethernetif.o ABSOLUTE
    ..\..\..\..\..\..\middlewares\3rd_party\lwip_2.1.2\port\sys_arch.c 0x00000000   Number         0  sys_arch.o ABSOLUTE
    ..\..\..\..\..\..\middlewares\3rd_party\lwip_2.1.2\src\api\api_lib.c 0x00000000   Number         0  api_lib.o ABSOLUTE
    ..\..\..\..\..\..\middlewares\3rd_party\lwip_2.1.2\src\api\api_msg.c 0x00000000   Number         0  api_msg.o ABSOLUTE
    ..\..\..\..\..\..\middlewares\3rd_party\lwip_2.1.2\src\api\err.c 0x00000000   Number         0  err.o ABSOLUTE
    ..\..\..\..\..\..\middlewares\3rd_party\lwip_2.1.2\src\api\if_api.c 0x00000000   Number         0  if_api.o ABSOLUTE
    ..\..\..\..\..\..\middlewares\3rd_party\lwip_2.1.2\src\api\netbuf.c 0x00000000   Number         0  netbuf.o ABSOLUTE
    ..\..\..\..\..\..\middlewares\3rd_party\lwip_2.1.2\src\api\netdb.c 0x00000000   Number         0  netdb.o ABSOLUTE
    ..\..\..\..\..\..\middlewares\3rd_party\lwip_2.1.2\src\api\netifapi.c 0x00000000   Number         0  netifapi.o ABSOLUTE
    ..\..\..\..\..\..\middlewares\3rd_party\lwip_2.1.2\src\api\sockets.c 0x00000000   Number         0  sockets.o ABSOLUTE
    ..\..\..\..\..\..\middlewares\3rd_party\lwip_2.1.2\src\api\tcpip.c 0x00000000   Number         0  tcpip.o ABSOLUTE
    ..\..\..\..\..\..\middlewares\3rd_party\lwip_2.1.2\src\core\altcp.c 0x00000000   Number         0  altcp.o ABSOLUTE
    ..\..\..\..\..\..\middlewares\3rd_party\lwip_2.1.2\src\core\altcp_alloc.c 0x00000000   Number         0  altcp_alloc.o ABSOLUTE
    ..\..\..\..\..\..\middlewares\3rd_party\lwip_2.1.2\src\core\altcp_tcp.c 0x00000000   Number         0  altcp_tcp.o ABSOLUTE
    ..\..\..\..\..\..\middlewares\3rd_party\lwip_2.1.2\src\core\def.c 0x00000000   Number         0  def.o ABSOLUTE
    ..\..\..\..\..\..\middlewares\3rd_party\lwip_2.1.2\src\core\dns.c 0x00000000   Number         0  dns.o ABSOLUTE
    ..\..\..\..\..\..\middlewares\3rd_party\lwip_2.1.2\src\core\inet_chksum.c 0x00000000   Number         0  inet_chksum.o ABSOLUTE
    ..\..\..\..\..\..\middlewares\3rd_party\lwip_2.1.2\src\core\init.c 0x00000000   Number         0  init.o ABSOLUTE
    ..\..\..\..\..\..\middlewares\3rd_party\lwip_2.1.2\src\core\ip.c 0x00000000   Number         0  ip.o ABSOLUTE
    ..\..\..\..\..\..\middlewares\3rd_party\lwip_2.1.2\src\core\ipv4\autoip.c 0x00000000   Number         0  autoip.o ABSOLUTE
    ..\..\..\..\..\..\middlewares\3rd_party\lwip_2.1.2\src\core\ipv4\dhcp.c 0x00000000   Number         0  dhcp.o ABSOLUTE
    ..\..\..\..\..\..\middlewares\3rd_party\lwip_2.1.2\src\core\ipv4\etharp.c 0x00000000   Number         0  etharp.o ABSOLUTE
    ..\..\..\..\..\..\middlewares\3rd_party\lwip_2.1.2\src\core\ipv4\icmp.c 0x00000000   Number         0  icmp.o ABSOLUTE
    ..\..\..\..\..\..\middlewares\3rd_party\lwip_2.1.2\src\core\ipv4\igmp.c 0x00000000   Number         0  igmp.o ABSOLUTE
    ..\..\..\..\..\..\middlewares\3rd_party\lwip_2.1.2\src\core\ipv4\ip4.c 0x00000000   Number         0  ip4.o ABSOLUTE
    ..\..\..\..\..\..\middlewares\3rd_party\lwip_2.1.2\src\core\ipv4\ip4_addr.c 0x00000000   Number         0  ip4_addr.o ABSOLUTE
    ..\..\..\..\..\..\middlewares\3rd_party\lwip_2.1.2\src\core\ipv4\ip4_frag.c 0x00000000   Number         0  ip4_frag.o ABSOLUTE
    ..\..\..\..\..\..\middlewares\3rd_party\lwip_2.1.2\src\core\mem.c 0x00000000   Number         0  mem.o ABSOLUTE
    ..\..\..\..\..\..\middlewares\3rd_party\lwip_2.1.2\src\core\memp.c 0x00000000   Number         0  memp.o ABSOLUTE
    ..\..\..\..\..\..\middlewares\3rd_party\lwip_2.1.2\src\core\netif.c 0x00000000   Number         0  netif.o ABSOLUTE
    ..\..\..\..\..\..\middlewares\3rd_party\lwip_2.1.2\src\core\pbuf.c 0x00000000   Number         0  pbuf.o ABSOLUTE
    ..\..\..\..\..\..\middlewares\3rd_party\lwip_2.1.2\src\core\raw.c 0x00000000   Number         0  raw.o ABSOLUTE
    ..\..\..\..\..\..\middlewares\3rd_party\lwip_2.1.2\src\core\stats.c 0x00000000   Number         0  stats.o ABSOLUTE
    ..\..\..\..\..\..\middlewares\3rd_party\lwip_2.1.2\src\core\sys.c 0x00000000   Number         0  sys.o ABSOLUTE
    ..\..\..\..\..\..\middlewares\3rd_party\lwip_2.1.2\src\core\tcp.c 0x00000000   Number         0  tcp.o ABSOLUTE
    ..\..\..\..\..\..\middlewares\3rd_party\lwip_2.1.2\src\core\tcp_in.c 0x00000000   Number         0  tcp_in.o ABSOLUTE
    ..\..\..\..\..\..\middlewares\3rd_party\lwip_2.1.2\src\core\tcp_out.c 0x00000000   Number         0  tcp_out.o ABSOLUTE
    ..\..\..\..\..\..\middlewares\3rd_party\lwip_2.1.2\src\core\timeouts.c 0x00000000   Number         0  timeouts.o ABSOLUTE
    ..\..\..\..\..\..\middlewares\3rd_party\lwip_2.1.2\src\core\udp.c 0x00000000   Number         0  udp.o ABSOLUTE
    ..\..\..\..\..\..\middlewares\3rd_party\lwip_2.1.2\src\netif\ethernet.c 0x00000000   Number         0  ethernet.o ABSOLUTE
    ..\..\..\..\..\at32f403a_407_board\at32f403a_407_board.c 0x00000000   Number         0  at32f403a_407_board.o ABSOLUTE
    ..\\..\\..\\..\\..\\..\\libraries\\cmsis\\cm4\\device_support\\system_at32f403a_407.c 0x00000000   Number         0  system_at32f403a_407.o ABSOLUTE
    ..\\..\\..\\..\\..\\..\\libraries\\drivers\\src\\at32f403a_407_crm.c 0x00000000   Number         0  at32f403a_407_crm.o ABSOLUTE
    ..\\..\\..\\..\\..\\..\\libraries\\drivers\\src\\at32f403a_407_emac.c 0x00000000   Number         0  at32f403a_407_emac.o ABSOLUTE
    ..\\..\\..\\..\\..\\..\\libraries\\drivers\\src\\at32f403a_407_exint.c 0x00000000   Number         0  at32f403a_407_exint.o ABSOLUTE
    ..\\..\\..\\..\\..\\..\\libraries\\drivers\\src\\at32f403a_407_gpio.c 0x00000000   Number         0  at32f403a_407_gpio.o ABSOLUTE
    ..\\..\\..\\..\\..\\..\\libraries\\drivers\\src\\at32f403a_407_misc.c 0x00000000   Number         0  at32f403a_407_misc.o ABSOLUTE
    ..\\..\\..\\..\\..\\..\\libraries\\drivers\\src\\at32f403a_407_tmr.c 0x00000000   Number         0  at32f403a_407_tmr.o ABSOLUTE
    ..\\..\\..\\..\\..\\..\\libraries\\drivers\\src\\at32f403a_407_usart.c 0x00000000   Number         0  at32f403a_407_usart.o ABSOLUTE
    ..\\..\\..\\..\\..\\..\\middlewares\\3rd_party\\lwip_2.1.2\\port\\ethernetif.c 0x00000000   Number         0  ethernetif.o ABSOLUTE
    ..\\..\\..\\..\\..\\at32f403a_407_board\\at32f403a_407_board.c 0x00000000   Number         0  at32f403a_407_board.o ABSOLUTE
    ..\\src\\at32_emac.c                     0x00000000   Number         0  at32_emac.o ABSOLUTE
    ..\\src\\at32f403a_407_clock.c           0x00000000   Number         0  at32f403a_407_clock.o ABSOLUTE
    ..\\src\\at32f403a_407_int.c             0x00000000   Number         0  at32f403a_407_int.o ABSOLUTE
    ..\\src\\main.c                          0x00000000   Number         0  main.o ABSOLUTE
    ..\\src\\netconf.c                       0x00000000   Number         0  netconf.o ABSOLUTE
    ..\src\at32_emac.c                       0x00000000   Number         0  at32_emac.o ABSOLUTE
    ..\src\at32f403a_407_clock.c             0x00000000   Number         0  at32f403a_407_clock.o ABSOLUTE
    ..\src\at32f403a_407_int.c               0x00000000   Number         0  at32f403a_407_int.o ABSOLUTE
    ..\src\main.c                            0x00000000   Number         0  main.o ABSOLUTE
    ..\src\netconf.c                         0x00000000   Number         0  netconf.o ABSOLUTE
    ..\src\tcp_server.c                      0x00000000   Number         0  tcp_server.o ABSOLUTE
    dc.s                                     0x00000000   Number         0  dc.o ABSOLUTE
    RESET                                    0x08000000   Section      388  startup_at32f403a_407.o(RESET)
    !!!main                                  0x08000184   Section        8  __main.o(!!!main)
    !!!scatter                               0x0800018c   Section       52  __scatter.o(!!!scatter)
    !!dczerorl2                              0x080001c0   Section       90  __dczerorl2.o(!!dczerorl2)
    !!handler_zi                             0x0800021c   Section       28  __scatter_zi.o(!!handler_zi)
    .ARM.Collect$$libinit$$00000000          0x08000238   Section        2  libinit.o(.ARM.Collect$$libinit$$00000000)
    .ARM.Collect$$libinit$$00000001          0x0800023a   Section        4  libinit2.o(.ARM.Collect$$libinit$$00000001)
    .ARM.Collect$$libinit$$00000004          0x0800023e   Section        0  libinit2.o(.ARM.Collect$$libinit$$00000004)
    .ARM.Collect$$libinit$$00000005          0x0800023e   Section        8  libinit2.o(.ARM.Collect$$libinit$$00000005)
    .ARM.Collect$$libinit$$0000000A          0x08000246   Section        0  libinit2.o(.ARM.Collect$$libinit$$0000000A)
    .ARM.Collect$$libinit$$0000000C          0x08000246   Section        0  libinit2.o(.ARM.Collect$$libinit$$0000000C)
    .ARM.Collect$$libinit$$0000000E          0x08000246   Section        0  libinit2.o(.ARM.Collect$$libinit$$0000000E)
    .ARM.Collect$$libinit$$00000011          0x08000246   Section        0  libinit2.o(.ARM.Collect$$libinit$$00000011)
    .ARM.Collect$$libinit$$00000013          0x08000246   Section        0  libinit2.o(.ARM.Collect$$libinit$$00000013)
    .ARM.Collect$$libinit$$00000015          0x08000246   Section        0  libinit2.o(.ARM.Collect$$libinit$$00000015)
    .ARM.Collect$$libinit$$00000017          0x08000246   Section        0  libinit2.o(.ARM.Collect$$libinit$$00000017)
    .ARM.Collect$$libinit$$00000019          0x08000246   Section        0  libinit2.o(.ARM.Collect$$libinit$$00000019)
    .ARM.Collect$$libinit$$0000001B          0x08000246   Section        0  libinit2.o(.ARM.Collect$$libinit$$0000001B)
    .ARM.Collect$$libinit$$0000001D          0x08000246   Section        0  libinit2.o(.ARM.Collect$$libinit$$0000001D)
    .ARM.Collect$$libinit$$0000001F          0x08000246   Section        0  libinit2.o(.ARM.Collect$$libinit$$0000001F)
    .ARM.Collect$$libinit$$00000021          0x08000246   Section        0  libinit2.o(.ARM.Collect$$libinit$$00000021)
    .ARM.Collect$$libinit$$00000023          0x08000246   Section        0  libinit2.o(.ARM.Collect$$libinit$$00000023)
    .ARM.Collect$$libinit$$00000025          0x08000246   Section        0  libinit2.o(.ARM.Collect$$libinit$$00000025)
    .ARM.Collect$$libinit$$0000002C          0x08000246   Section        0  libinit2.o(.ARM.Collect$$libinit$$0000002C)
    .ARM.Collect$$libinit$$0000002E          0x08000246   Section        0  libinit2.o(.ARM.Collect$$libinit$$0000002E)
    .ARM.Collect$$libinit$$00000030          0x08000246   Section        0  libinit2.o(.ARM.Collect$$libinit$$00000030)
    .ARM.Collect$$libinit$$00000032          0x08000246   Section        0  libinit2.o(.ARM.Collect$$libinit$$00000032)
    .ARM.Collect$$libinit$$00000033          0x08000246   Section        2  libinit2.o(.ARM.Collect$$libinit$$00000033)
    .ARM.Collect$$libshutdown$$00000000      0x08000248   Section        2  libshutdown.o(.ARM.Collect$$libshutdown$$00000000)
    .ARM.Collect$$libshutdown$$00000002      0x0800024a   Section        0  libshutdown2.o(.ARM.Collect$$libshutdown$$00000002)
    .ARM.Collect$$libshutdown$$00000004      0x0800024a   Section        0  libshutdown2.o(.ARM.Collect$$libshutdown$$00000004)
    .ARM.Collect$$libshutdown$$00000006      0x0800024a   Section        0  libshutdown2.o(.ARM.Collect$$libshutdown$$00000006)
    .ARM.Collect$$libshutdown$$00000009      0x0800024a   Section        0  libshutdown2.o(.ARM.Collect$$libshutdown$$00000009)
    .ARM.Collect$$libshutdown$$0000000C      0x0800024a   Section        0  libshutdown2.o(.ARM.Collect$$libshutdown$$0000000C)
    .ARM.Collect$$libshutdown$$0000000E      0x0800024a   Section        0  libshutdown2.o(.ARM.Collect$$libshutdown$$0000000E)
    .ARM.Collect$$libshutdown$$00000011      0x0800024a   Section        0  libshutdown2.o(.ARM.Collect$$libshutdown$$00000011)
    .ARM.Collect$$libshutdown$$00000012      0x0800024a   Section        2  libshutdown2.o(.ARM.Collect$$libshutdown$$00000012)
    .ARM.Collect$$rtentry$$00000000          0x0800024c   Section        0  __rtentry.o(.ARM.Collect$$rtentry$$00000000)
    .ARM.Collect$$rtentry$$00000002          0x0800024c   Section        0  __rtentry2.o(.ARM.Collect$$rtentry$$00000002)
    .ARM.Collect$$rtentry$$00000004          0x0800024c   Section        6  __rtentry4.o(.ARM.Collect$$rtentry$$00000004)
    .ARM.Collect$$rtentry$$00000009          0x08000252   Section        0  __rtentry2.o(.ARM.Collect$$rtentry$$00000009)
    .ARM.Collect$$rtentry$$0000000A          0x08000252   Section        4  __rtentry2.o(.ARM.Collect$$rtentry$$0000000A)
    .ARM.Collect$$rtentry$$0000000C          0x08000256   Section        0  __rtentry2.o(.ARM.Collect$$rtentry$$0000000C)
    .ARM.Collect$$rtentry$$0000000D          0x08000256   Section        8  __rtentry2.o(.ARM.Collect$$rtentry$$0000000D)
    .ARM.Collect$$rtexit$$00000000           0x0800025e   Section        2  rtexit.o(.ARM.Collect$$rtexit$$00000000)
    .ARM.Collect$$rtexit$$00000002           0x08000260   Section        0  rtexit2.o(.ARM.Collect$$rtexit$$00000002)
    .ARM.Collect$$rtexit$$00000003           0x08000260   Section        4  rtexit2.o(.ARM.Collect$$rtexit$$00000003)
    .ARM.Collect$$rtexit$$00000004           0x08000264   Section        6  rtexit2.o(.ARM.Collect$$rtexit$$00000004)
    .emb_text                                0x0800026c   Section        0  maybetermalloc1.o(.emb_text)
    .text                                    0x0800026c   Section       64  startup_at32f403a_407.o(.text)
    $v0                                      0x0800026c   Number         0  startup_at32f403a_407.o(.text)
    .text                                    0x080002ac   Section        2  use_no_semi_2.o(.text)
    .text                                    0x080002ae   Section        0  h1_alloc.o(.text)
    .text                                    0x0800030c   Section        0  h1_free.o(.text)
    .text                                    0x0800035a   Section        0  memcmp.o(.text)
    .text                                    0x080003b2   Section      138  rt_memcpy_v6.o(.text)
    .text                                    0x0800043c   Section      100  rt_memcpy_w.o(.text)
    .text                                    0x080004a0   Section       68  rt_memclr.o(.text)
    .text                                    0x080004e4   Section       78  rt_memclr_w.o(.text)
    .text                                    0x08000532   Section       86  strncpy.o(.text)
    .text                                    0x08000588   Section        0  heapauxi.o(.text)
    .text                                    0x0800058e   Section        2  use_no_semi.o(.text)
    .text                                    0x08000590   Section        8  rt_heap_descriptor_intlibspace.o(.text)
    .text                                    0x08000598   Section        0  hguard.o(.text)
    .text                                    0x0800059c   Section        0  init_alloc.o(.text)
    .text                                    0x08000626   Section        0  h1_init.o(.text)
    .text                                    0x08000634   Section        8  libspace.o(.text)
    .text                                    0x0800063c   Section        0  h1_extend.o(.text)
    .text                                    0x08000670   Section        0  defsig_rtmem_outer.o(.text)
    .text                                    0x0800067e   Section       74  sys_stackheap_outer.o(.text)
    .text                                    0x080006c8   Section        0  exit.o(.text)
    .text                                    0x080006da   Section        0  defsig_exit.o(.text)
    .text                                    0x080006e4   Section        0  defsig_rtmem_inner.o(.text)
    .text                                    0x08000734   Section        0  defsig_general.o(.text)
    i.BusFault_Handler                       0x08000766   Section        0  at32f403a_407_int.o(i.BusFault_Handler)
    i.DebugMon_Handler                       0x0800076a   Section        0  at32f403a_407_int.o(i.DebugMon_Handler)
    i.HardFault_Handler                      0x0800076c   Section        0  at32f403a_407_int.o(i.HardFault_Handler)
    i.MemManage_Handler                      0x08000770   Section        0  at32f403a_407_int.o(i.MemManage_Handler)
    i.NMI_Handler                            0x08000774   Section        0  at32f403a_407_int.o(i.NMI_Handler)
    i.PendSV_Handler                         0x08000776   Section        0  at32f403a_407_int.o(i.PendSV_Handler)
    i.SVC_Handler                            0x08000778   Section        0  at32f403a_407_int.o(i.SVC_Handler)
    i.SysTick_Handler                        0x0800077a   Section        0  at32f403a_407_int.o(i.SysTick_Handler)
    i.SystemInit                             0x0800077c   Section        0  system_at32f403a_407.o(i.SystemInit)
    i.TMR6_GLOBAL_IRQHandler                 0x080007ec   Section        0  at32f403a_407_int.o(i.TMR6_GLOBAL_IRQHandler)
    i.UsageFault_Handler                     0x0800080c   Section        0  at32f403a_407_int.o(i.UsageFault_Handler)
    i._sys_exit                              0x08000810   Section        0  at32f403a_407_board.o(i._sys_exit)
    i._ttywrch                               0x08000814   Section        0  at32f403a_407_board.o(i._ttywrch)
    i.at32_board_init                        0x08000818   Section        0  at32f403a_407_board.o(i.at32_board_init)
    i.at32_button_init                       0x08000848   Section        0  at32f403a_407_board.o(i.at32_button_init)
    i.at32_led_init                          0x08000884   Section        0  at32f403a_407_board.o(i.at32_led_init)
    i.at32_led_off                           0x080008d4   Section        0  at32f403a_407_board.o(i.at32_led_off)
    i.at32_led_on                            0x080008fc   Section        0  at32f403a_407_board.o(i.at32_led_on)
    i.crm_ahb_div_set                        0x08000924   Section        0  at32f403a_407_crm.o(i.crm_ahb_div_set)
    i.crm_apb1_div_set                       0x08000938   Section        0  at32f403a_407_crm.o(i.crm_apb1_div_set)
    i.crm_apb2_div_set                       0x0800094c   Section        0  at32f403a_407_crm.o(i.crm_apb2_div_set)
    i.crm_auto_step_mode_enable              0x08000960   Section        0  at32f403a_407_crm.o(i.crm_auto_step_mode_enable)
    i.crm_clkout_div_set                     0x08000988   Section        0  at32f403a_407_crm.o(i.crm_clkout_div_set)
    i.crm_clock_out_set                      0x0800099c   Section        0  at32f403a_407_crm.o(i.crm_clock_out_set)
    i.crm_clock_source_enable                0x080009bc   Section        0  at32f403a_407_crm.o(i.crm_clock_source_enable)
    i.crm_clocks_freq_get                    0x08000a1c   Section        0  at32f403a_407_crm.o(i.crm_clocks_freq_get)
    i.crm_flag_get                           0x08000b48   Section        0  at32f403a_407_crm.o(i.crm_flag_get)
    i.crm_periph_clock_enable                0x08000b78   Section        0  at32f403a_407_crm.o(i.crm_periph_clock_enable)
    i.crm_periph_reset                       0x08000bbc   Section        0  at32f403a_407_crm.o(i.crm_periph_reset)
    i.crm_pll_config                         0x08000c00   Section        0  at32f403a_407_crm.o(i.crm_pll_config)
    i.crm_reset                              0x08000c7c   Section        0  at32f403a_407_crm.o(i.crm_reset)
    i.crm_sysclk_switch                      0x08000cd4   Section        0  at32f403a_407_crm.o(i.crm_sysclk_switch)
    i.crm_sysclk_switch_status_get           0x08000ce8   Section        0  at32f403a_407_crm.o(i.crm_sysclk_switch_status_get)
    i.delay_init                             0x08000cf8   Section        0  at32f403a_407_board.o(i.delay_init)
    i.delay_ms                               0x08000d30   Section        0  at32f403a_407_board.o(i.delay_ms)
    i.do_memp_free_pool                      0x08000da4   Section        0  memp.o(i.do_memp_free_pool)
    do_memp_free_pool                        0x08000da5   Thumb Code    26  memp.o(i.do_memp_free_pool)
    i.do_memp_malloc_pool                    0x08000dbe   Section        0  memp.o(i.do_memp_malloc_pool)
    do_memp_malloc_pool                      0x08000dbf   Thumb Code    66  memp.o(i.do_memp_malloc_pool)
    i.emac_auto_pad_crc_stripping_set        0x08000e00   Section        0  at32f403a_407_emac.o(i.emac_auto_pad_crc_stripping_set)
    i.emac_backoff_limit_set                 0x08000e14   Section        0  at32f403a_407_emac.o(i.emac_backoff_limit_set)
    i.emac_carrier_sense_disable             0x08000e28   Section        0  at32f403a_407_emac.o(i.emac_carrier_sense_disable)
    i.emac_control_config                    0x08000e3c   Section        0  at32f403a_407_emac.o(i.emac_control_config)
    i.emac_control_para_init                 0x08000e84   Section        0  at32f403a_407_emac.o(i.emac_control_para_init)
    i.emac_deferral_check_set                0x08000ea4   Section        0  at32f403a_407_emac.o(i.emac_deferral_check_set)
    i.emac_delay                             0x08000eb8   Section        0  at32f403a_407_emac.o(i.emac_delay)
    emac_delay                               0x08000eb9   Thumb Code    36  at32f403a_407_emac.o(i.emac_delay)
    i.emac_dma_config                        0x08000ee0   Section        0  at32f403a_407_emac.o(i.emac_dma_config)
    i.emac_dma_descriptor_list_address_set   0x08000fd4   Section        0  at32f403a_407_emac.o(i.emac_dma_descriptor_list_address_set)
    i.emac_dma_flag_clear                    0x08001080   Section        0  at32f403a_407_emac.o(i.emac_dma_flag_clear)
    i.emac_dma_flag_get                      0x0800108c   Section        0  at32f403a_407_emac.o(i.emac_dma_flag_get)
    i.emac_dma_interrupt_enable              0x080010a0   Section        0  at32f403a_407_emac.o(i.emac_dma_interrupt_enable)
    i.emac_dma_operations_set                0x08001194   Section        0  at32f403a_407_emac.o(i.emac_dma_operations_set)
    i.emac_dma_para_init                     0x08001258   Section        0  at32f403a_407_emac.o(i.emac_dma_para_init)
    i.emac_dma_rx_desc_interrupt_config      0x08001286   Section        0  at32f403a_407_emac.o(i.emac_dma_rx_desc_interrupt_config)
    i.emac_dma_software_reset_get            0x0800129c   Section        0  at32f403a_407_emac.o(i.emac_dma_software_reset_get)
    i.emac_dma_software_reset_set            0x080012b4   Section        0  at32f403a_407_emac.o(i.emac_dma_software_reset_set)
    i.emac_dmarxdesc_frame_length_get        0x080012c8   Section        0  at32f403a_407_emac.o(i.emac_dmarxdesc_frame_length_get)
    i.emac_duplex_mode_set                   0x080012d4   Section        0  at32f403a_407_emac.o(i.emac_duplex_mode_set)
    i.emac_fast_speed_set                    0x080012e8   Section        0  at32f403a_407_emac.o(i.emac_fast_speed_set)
    i.emac_getcurrenttxbuffer                0x080012fc   Section        0  ethernetif.o(i.emac_getcurrenttxbuffer)
    i.emac_interframe_gap_set                0x08001308   Section        0  at32f403a_407_emac.o(i.emac_interframe_gap_set)
    i.emac_ipv4_checksum_offload_set         0x0800131c   Section        0  at32f403a_407_emac.o(i.emac_ipv4_checksum_offload_set)
    i.emac_jabber_disable                    0x08001330   Section        0  at32f403a_407_emac.o(i.emac_jabber_disable)
    i.emac_layer2_configuration              0x08001344   Section        0  at32_emac.o(i.emac_layer2_configuration)
    i.emac_local_address_set                 0x080013e0   Section        0  at32f403a_407_emac.o(i.emac_local_address_set)
    i.emac_loopback_mode_enable              0x08001418   Section        0  at32f403a_407_emac.o(i.emac_loopback_mode_enable)
    i.emac_nvic_configuration                0x0800142c   Section        0  at32_emac.o(i.emac_nvic_configuration)
    i.emac_phy_init                          0x0800142e   Section        0  at32_emac.o(i.emac_phy_init)
    i.emac_phy_register_read                 0x0800143c   Section        0  at32f403a_407_emac.o(i.emac_phy_register_read)
    i.emac_phy_register_write                0x080014a8   Section        0  at32f403a_407_emac.o(i.emac_phy_register_write)
    i.emac_pins_configuration                0x08001514   Section        0  at32_emac.o(i.emac_pins_configuration)
    i.emac_receive_own_disable               0x08001600   Section        0  at32f403a_407_emac.o(i.emac_receive_own_disable)
    i.emac_received_packet_size_get          0x08001614   Section        0  at32f403a_407_emac.o(i.emac_received_packet_size_get)
    i.emac_receiver_enable                   0x0800165c   Section        0  at32f403a_407_emac.o(i.emac_receiver_enable)
    i.emac_reset                             0x08001688   Section        0  at32f403a_407_emac.o(i.emac_reset)
    i.emac_retry_disable                     0x080016a0   Section        0  at32f403a_407_emac.o(i.emac_retry_disable)
    i.emac_rxpkt_chainmode                   0x080016b4   Section        0  ethernetif.o(i.emac_rxpkt_chainmode)
    i.emac_speed_config                      0x08001758   Section        0  at32_emac.o(i.emac_speed_config)
    i.emac_start                             0x08001890   Section        0  at32f403a_407_emac.o(i.emac_start)
    i.emac_stop                              0x080018b8   Section        0  at32f403a_407_emac.o(i.emac_stop)
    i.emac_system_init                       0x080018e0   Section        0  at32_emac.o(i.emac_system_init)
    i.emac_tmr_init                          0x08001918   Section        0  at32_emac.o(i.emac_tmr_init)
    i.emac_trasmitter_enable                 0x08001980   Section        0  at32f403a_407_emac.o(i.emac_trasmitter_enable)
    i.emac_txpkt_chainmode                   0x080019ac   Section        0  ethernetif.o(i.emac_txpkt_chainmode)
    i.emac_watchdog_disable                  0x08001a18   Section        0  at32f403a_407_emac.o(i.emac_watchdog_disable)
    i.etharp_cleanup_netif                   0x08001a2c   Section        0  etharp.o(i.etharp_cleanup_netif)
    i.etharp_find_entry                      0x08001a64   Section        0  etharp.o(i.etharp_find_entry)
    etharp_find_entry                        0x08001a65   Thumb Code   382  etharp.o(i.etharp_find_entry)
    i.etharp_free_entry                      0x08001be8   Section        0  etharp.o(i.etharp_free_entry)
    etharp_free_entry                        0x08001be9   Thumb Code   112  etharp.o(i.etharp_free_entry)
    i.etharp_input                           0x08001c60   Section        0  etharp.o(i.etharp_input)
    i.etharp_output                          0x08001d64   Section        0  etharp.o(i.etharp_output)
    i.etharp_output_to_arp_index             0x08001ebc   Section        0  etharp.o(i.etharp_output_to_arp_index)
    etharp_output_to_arp_index               0x08001ebd   Thumb Code   174  etharp.o(i.etharp_output_to_arp_index)
    i.etharp_query                           0x08001f70   Section        0  etharp.o(i.etharp_query)
    i.etharp_raw                             0x080020fc   Section        0  etharp.o(i.etharp_raw)
    etharp_raw                               0x080020fd   Thumb Code   172  etharp.o(i.etharp_raw)
    i.etharp_request                         0x080021ac   Section        0  etharp.o(i.etharp_request)
    i.etharp_request_dst                     0x080021c8   Section        0  etharp.o(i.etharp_request_dst)
    etharp_request_dst                       0x080021c9   Thumb Code    38  etharp.o(i.etharp_request_dst)
    i.etharp_tmr                             0x080021f4   Section        0  etharp.o(i.etharp_tmr)
    i.etharp_update_arp_entry                0x080022dc   Section        0  etharp.o(i.etharp_update_arp_entry)
    etharp_update_arp_entry                  0x080022dd   Thumb Code   238  etharp.o(i.etharp_update_arp_entry)
    i.ethernet_input                         0x080023d0   Section        0  ethernet.o(i.ethernet_input)
    i.ethernet_output                        0x08002500   Section        0  ethernet.o(i.ethernet_output)
    i.ethernetif_init                        0x08002568   Section        0  ethernetif.o(i.ethernetif_init)
    i.ethernetif_input                       0x080025dc   Section        0  ethernetif.o(i.ethernetif_input)
    i.ethernetif_notify_conn_changed         0x0800260c   Section        0  at32_emac.o(i.ethernetif_notify_conn_changed)
    i.ethernetif_set_link                    0x0800262a   Section        0  at32_emac.o(i.ethernetif_set_link)
    i.ethernetif_update_config               0x08002680   Section        0  at32_emac.o(i.ethernetif_update_config)
    i.gpio_default_para_init                 0x080026b8   Section        0  at32f403a_407_gpio.o(i.gpio_default_para_init)
    i.gpio_init                              0x080026ce   Section        0  at32f403a_407_gpio.o(i.gpio_init)
    i.gpio_pin_remap_config                  0x08002778   Section        0  at32f403a_407_gpio.o(i.gpio_pin_remap_config)
    i.icmp_dest_unreach                      0x080027c4   Section        0  icmp.o(i.icmp_dest_unreach)
    i.icmp_input                             0x080027e8   Section        0  icmp.o(i.icmp_input)
    i.icmp_send_response                     0x08002aec   Section        0  icmp.o(i.icmp_send_response)
    icmp_send_response                       0x08002aed   Thumb Code   180  icmp.o(i.icmp_send_response)
    i.icmp_time_exceeded                     0x08002ba4   Section        0  icmp.o(i.icmp_time_exceeded)
    i.igmp_delaying_member                   0x08002bc8   Section        0  igmp.o(i.igmp_delaying_member)
    igmp_delaying_member                     0x08002bc9   Thumb Code    42  igmp.o(i.igmp_delaying_member)
    i.igmp_init                              0x08002bf4   Section        0  igmp.o(i.igmp_init)
    i.igmp_input                             0x08002c18   Section        0  igmp.o(i.igmp_input)
    i.igmp_ip_output_if                      0x08002df0   Section        0  igmp.o(i.igmp_ip_output_if)
    igmp_ip_output_if                        0x08002df1   Thumb Code    74  igmp.o(i.igmp_ip_output_if)
    i.igmp_lookfor_group                     0x08002e40   Section        0  igmp.o(i.igmp_lookfor_group)
    i.igmp_lookup_group                      0x08002e60   Section        0  igmp.o(i.igmp_lookup_group)
    igmp_lookup_group                        0x08002e61   Thumb Code    88  igmp.o(i.igmp_lookup_group)
    i.igmp_report_groups                     0x08002eb8   Section        0  igmp.o(i.igmp_report_groups)
    i.igmp_send                              0x08002ed8   Section        0  igmp.o(i.igmp_send)
    igmp_send                                0x08002ed9   Thumb Code   152  igmp.o(i.igmp_send)
    i.igmp_start                             0x08002f7c   Section        0  igmp.o(i.igmp_start)
    i.igmp_start_timer                       0x08002fc4   Section        0  igmp.o(i.igmp_start_timer)
    igmp_start_timer                         0x08002fc5   Thumb Code    22  igmp.o(i.igmp_start_timer)
    i.igmp_timeout                           0x08002fdc   Section        0  igmp.o(i.igmp_timeout)
    igmp_timeout                             0x08002fdd   Thumb Code    66  igmp.o(i.igmp_timeout)
    i.igmp_tmr                               0x08003028   Section        0  igmp.o(i.igmp_tmr)
    i.inet_chksum                            0x08003060   Section        0  inet_chksum.o(i.inet_chksum)
    i.ip4_addr_isbroadcast_u32               0x08003074   Section        0  ip4_addr.o(i.ip4_addr_isbroadcast_u32)
    i.ip4_frag                               0x080030c4   Section        0  ip4_frag.o(i.ip4_frag)
    i.ip4_input                              0x080032c0   Section        0  ip4.o(i.ip4_input)
    i.ip4_input_accept                       0x08003618   Section        0  ip4.o(i.ip4_input_accept)
    ip4_input_accept                         0x08003619   Thumb Code    56  ip4.o(i.ip4_input_accept)
    i.ip4_output_if                          0x08003654   Section        0  ip4.o(i.ip4_output_if)
    i.ip4_output_if_opt                      0x08003688   Section        0  ip4.o(i.ip4_output_if_opt)
    i.ip4_output_if_opt_src                  0x080036cc   Section        0  ip4.o(i.ip4_output_if_opt_src)
    i.ip4_reass                              0x080038c0   Section        0  ip4_frag.o(i.ip4_reass)
    i.ip4_route                              0x08003b38   Section        0  ip4.o(i.ip4_route)
    i.ip_frag_alloc_pbuf_custom_ref          0x08003c0c   Section        0  ip4_frag.o(i.ip_frag_alloc_pbuf_custom_ref)
    ip_frag_alloc_pbuf_custom_ref            0x08003c0d   Thumb Code    10  ip4_frag.o(i.ip_frag_alloc_pbuf_custom_ref)
    i.ip_frag_free_pbuf_custom_ref           0x08003c16   Section        0  ip4_frag.o(i.ip_frag_free_pbuf_custom_ref)
    ip_frag_free_pbuf_custom_ref             0x08003c17   Thumb Code    14  ip4_frag.o(i.ip_frag_free_pbuf_custom_ref)
    i.ip_reass_chain_frag_into_datagram_and_validate 0x08003c24   Section        0  ip4_frag.o(i.ip_reass_chain_frag_into_datagram_and_validate)
    ip_reass_chain_frag_into_datagram_and_validate 0x08003c25   Thumb Code   378  ip4_frag.o(i.ip_reass_chain_frag_into_datagram_and_validate)
    i.ip_reass_dequeue_datagram              0x08003da0   Section        0  ip4_frag.o(i.ip_reass_dequeue_datagram)
    ip_reass_dequeue_datagram                0x08003da1   Thumb Code    36  ip4_frag.o(i.ip_reass_dequeue_datagram)
    i.ip_reass_enqueue_new_datagram          0x08003dc8   Section        0  ip4_frag.o(i.ip_reass_enqueue_new_datagram)
    ip_reass_enqueue_new_datagram            0x08003dc9   Thumb Code    96  ip4_frag.o(i.ip_reass_enqueue_new_datagram)
    i.ip_reass_free_complete_datagram        0x08003e30   Section        0  ip4_frag.o(i.ip_reass_free_complete_datagram)
    ip_reass_free_complete_datagram          0x08003e31   Thumb Code   144  ip4_frag.o(i.ip_reass_free_complete_datagram)
    i.ip_reass_remove_oldest_datagram        0x08003ec8   Section        0  ip4_frag.o(i.ip_reass_remove_oldest_datagram)
    ip_reass_remove_oldest_datagram          0x08003ec9   Thumb Code   130  ip4_frag.o(i.ip_reass_remove_oldest_datagram)
    i.ip_reass_tmr                           0x08003f50   Section        0  ip4_frag.o(i.ip_reass_tmr)
    i.ipfrag_free_pbuf_custom                0x08003f8c   Section        0  ip4_frag.o(i.ipfrag_free_pbuf_custom)
    ipfrag_free_pbuf_custom                  0x08003f8d   Thumb Code    24  ip4_frag.o(i.ipfrag_free_pbuf_custom)
    i.link_update                            0x08003fa4   Section        0  at32_emac.o(i.link_update)
    i.low_level_init                         0x08003fc4   Section        0  ethernetif.o(i.low_level_init)
    low_level_init                           0x08003fc5   Thumb Code   152  ethernetif.o(i.low_level_init)
    i.low_level_input                        0x08004070   Section        0  ethernetif.o(i.low_level_input)
    low_level_input                          0x08004071   Thumb Code   120  ethernetif.o(i.low_level_input)
    i.low_level_output                       0x080040ec   Section        0  ethernetif.o(i.low_level_output)
    low_level_output                         0x080040ed   Thumb Code    58  ethernetif.o(i.low_level_output)
    i.lwip_cyclic_timer                      0x08004128   Section        0  timeouts.o(i.lwip_cyclic_timer)
    lwip_cyclic_timer                        0x08004129   Thumb Code    70  timeouts.o(i.lwip_cyclic_timer)
    i.lwip_htonl                             0x08004178   Section        0  def.o(i.lwip_htonl)
    i.lwip_htons                             0x08004192   Section        0  def.o(i.lwip_htons)
    i.lwip_init                              0x0800419e   Section        0  init.o(i.lwip_init)
    i.lwip_periodic_handle                   0x080041c4   Section        0  netconf.o(i.lwip_periodic_handle)
    i.lwip_pkt_handle                        0x08004240   Section        0  netconf.o(i.lwip_pkt_handle)
    i.lwip_rx_loop_handler                   0x08004254   Section        0  netconf.o(i.lwip_rx_loop_handler)
    i.lwip_set_mac_address                   0x08004268   Section        0  ethernetif.o(i.lwip_set_mac_address)
    i.lwip_standard_chksum                   0x08004294   Section        0  inet_chksum.o(i.lwip_standard_chksum)
    i.main                                   0x080042f4   Section        0  main.o(i.main)
    i.mem_free                               0x08004330   Section        0  mem.o(i.mem_free)
    i.mem_init                               0x08004414   Section        0  mem.o(i.mem_init)
    i.mem_link_valid                         0x0800447c   Section        0  mem.o(i.mem_link_valid)
    mem_link_valid                           0x0800447d   Thumb Code    82  mem.o(i.mem_link_valid)
    i.mem_malloc                             0x080044d4   Section        0  mem.o(i.mem_malloc)
    i.mem_to_ptr                             0x08004644   Section        0  mem.o(i.mem_to_ptr)
    mem_to_ptr                               0x08004645   Thumb Code    12  mem.o(i.mem_to_ptr)
    i.mem_trim                               0x08004654   Section        0  mem.o(i.mem_trim)
    i.memp_free                              0x080047a4   Section        0  memp.o(i.memp_free)
    i.memp_init                              0x080047cc   Section        0  memp.o(i.memp_init)
    i.memp_init_pool                         0x080047fc   Section        0  memp.o(i.memp_init_pool)
    i.memp_malloc                            0x08004834   Section        0  memp.o(i.memp_malloc)
    i.netif_add                              0x08004858   Section        0  netif.o(i.netif_add)
    i.netif_do_ip_addr_changed               0x08004980   Section        0  netif.o(i.netif_do_ip_addr_changed)
    netif_do_ip_addr_changed                 0x08004981   Thumb Code    32  netif.o(i.netif_do_ip_addr_changed)
    i.netif_do_set_gw                        0x080049a0   Section        0  netif.o(i.netif_do_set_gw)
    netif_do_set_gw                          0x080049a1   Thumb Code    42  netif.o(i.netif_do_set_gw)
    i.netif_do_set_ipaddr                    0x080049ca   Section        0  netif.o(i.netif_do_set_ipaddr)
    netif_do_set_ipaddr                      0x080049cb   Thumb Code    70  netif.o(i.netif_do_set_ipaddr)
    i.netif_do_set_netmask                   0x08004a10   Section        0  netif.o(i.netif_do_set_netmask)
    netif_do_set_netmask                     0x08004a11   Thumb Code    42  netif.o(i.netif_do_set_netmask)
    i.netif_get_by_index                     0x08004a3c   Section        0  netif.o(i.netif_get_by_index)
    i.netif_init                             0x08004a64   Section        0  netif.o(i.netif_init)
    i.netif_input                            0x08004aac   Section        0  netif.o(i.netif_input)
    i.netif_issue_reports                    0x08004ad0   Section        0  netif.o(i.netif_issue_reports)
    netif_issue_reports                      0x08004ad1   Thumb Code    76  netif.o(i.netif_issue_reports)
    i.netif_loop_output                      0x08004b1c   Section        0  netif.o(i.netif_loop_output)
    i.netif_loop_output_ipv4                 0x08004bdc   Section        0  netif.o(i.netif_loop_output_ipv4)
    netif_loop_output_ipv4                   0x08004bdd   Thumb Code    18  netif.o(i.netif_loop_output_ipv4)
    i.netif_loopif_init                      0x08004bf0   Section        0  netif.o(i.netif_loopif_init)
    netif_loopif_init                        0x08004bf1   Thumb Code    62  netif.o(i.netif_loopif_init)
    i.netif_null_output_ip4                  0x08004c34   Section        0  netif.o(i.netif_null_output_ip4)
    netif_null_output_ip4                    0x08004c35   Thumb Code     8  netif.o(i.netif_null_output_ip4)
    i.netif_set_addr                         0x08004c3c   Section        0  netif.o(i.netif_set_addr)
    i.netif_set_default                      0x08004c9c   Section        0  netif.o(i.netif_set_default)
    i.netif_set_down                         0x08004cac   Section        0  netif.o(i.netif_set_down)
    i.netif_set_link_callback                0x08004cf2   Section        0  netif.o(i.netif_set_link_callback)
    i.netif_set_link_down                    0x08004cf8   Section        0  netif.o(i.netif_set_link_down)
    i.netif_set_link_up                      0x08004d30   Section        0  netif.o(i.netif_set_link_up)
    i.netif_set_up                           0x08004d70   Section        0  netif.o(i.netif_set_up)
    i.nvic_irq_enable                        0x08004db0   Section        0  at32f403a_407_misc.o(i.nvic_irq_enable)
    i.nvic_priority_group_config             0x08004e78   Section        0  at32f403a_407_misc.o(i.nvic_priority_group_config)
    i.pbuf_add_header                        0x08004ea0   Section        0  pbuf.o(i.pbuf_add_header)
    i.pbuf_add_header_impl                   0x08004eb2   Section        0  pbuf.o(i.pbuf_add_header_impl)
    pbuf_add_header_impl                     0x08004eb3   Thumb Code   102  pbuf.o(i.pbuf_add_header_impl)
    i.pbuf_alloc                             0x08004f18   Section        0  pbuf.o(i.pbuf_alloc)
    i.pbuf_alloc_reference                   0x08005040   Section        0  pbuf.o(i.pbuf_alloc_reference)
    i.pbuf_alloced_custom                    0x08005074   Section        0  pbuf.o(i.pbuf_alloced_custom)
    i.pbuf_cat                               0x080050ce   Section        0  pbuf.o(i.pbuf_cat)
    i.pbuf_clen                              0x080050fe   Section        0  pbuf.o(i.pbuf_clen)
    i.pbuf_clone                             0x08005110   Section        0  pbuf.o(i.pbuf_clone)
    i.pbuf_copy                              0x0800513c   Section        0  pbuf.o(i.pbuf_copy)
    i.pbuf_copy_partial                      0x080051f0   Section        0  pbuf.o(i.pbuf_copy_partial)
    i.pbuf_free                              0x08005270   Section        0  pbuf.o(i.pbuf_free)
    i.pbuf_header_force                      0x080052f6   Section        0  pbuf.o(i.pbuf_header_force)
    i.pbuf_header_impl                       0x08005308   Section        0  pbuf.o(i.pbuf_header_impl)
    pbuf_header_impl                         0x08005309   Thumb Code    34  pbuf.o(i.pbuf_header_impl)
    i.pbuf_init_alloced_pbuf                 0x0800532a   Section        0  pbuf.o(i.pbuf_init_alloced_pbuf)
    pbuf_init_alloced_pbuf                   0x0800532b   Thumb Code    30  pbuf.o(i.pbuf_init_alloced_pbuf)
    i.pbuf_pool_is_empty                     0x08005348   Section        0  pbuf.o(i.pbuf_pool_is_empty)
    pbuf_pool_is_empty                       0x08005349   Thumb Code    12  pbuf.o(i.pbuf_pool_is_empty)
    i.pbuf_realloc                           0x08005358   Section        0  pbuf.o(i.pbuf_realloc)
    i.pbuf_ref                               0x080053cc   Section        0  pbuf.o(i.pbuf_ref)
    i.pbuf_remove_header                     0x080053da   Section        0  pbuf.o(i.pbuf_remove_header)
    i.plug_holes                             0x0800541c   Section        0  mem.o(i.plug_holes)
    plug_holes                               0x0800541d   Thumb Code   130  mem.o(i.plug_holes)
    i.ptr_to_mem                             0x080054a8   Section        0  mem.o(i.ptr_to_mem)
    ptr_to_mem                               0x080054a9   Thumb Code    10  mem.o(i.ptr_to_mem)
    i.raw_input                              0x080054b8   Section        0  raw.o(i.raw_input)
    i.raw_input_local_match                  0x0800554c   Section        0  raw.o(i.raw_input_local_match)
    raw_input_local_match                    0x0800554d   Thumb Code    64  raw.o(i.raw_input_local_match)
    i.raw_netif_ip_addr_changed              0x08005590   Section        0  raw.o(i.raw_netif_ip_addr_changed)
    i.stats_init                             0x080055c0   Section        0  stats.o(i.stats_init)
    i.sys_now                                0x080055d4   Section        0  sys_arch.o(i.sys_now)
    i.sys_timeout                            0x080055e0   Section        0  timeouts.o(i.sys_timeout)
    i.sys_timeout_abs                        0x08005600   Section        0  timeouts.o(i.sys_timeout_abs)
    sys_timeout_abs                          0x08005601   Thumb Code   136  timeouts.o(i.sys_timeout_abs)
    i.sys_timeouts_init                      0x0800568c   Section        0  timeouts.o(i.sys_timeouts_init)
    i.system_clock_config                    0x080056b4   Section        0  at32f403a_407_clock.o(i.system_clock_config)
    i.system_core_clock_update               0x08005720   Section        0  system_at32f403a_407.o(i.system_core_clock_update)
    i.systick_clock_source_config            0x08005818   Section        0  at32f403a_407_misc.o(i.systick_clock_source_config)
    i.tcp_abandon                            0x08005840   Section        0  tcp.o(i.tcp_abandon)
    i.tcp_abort                              0x08005940   Section        0  tcp.o(i.tcp_abort)
    i.tcp_accept                             0x0800594e   Section        0  tcp.o(i.tcp_accept)
    i.tcp_accept_null                        0x0800595e   Section        0  tcp.o(i.tcp_accept_null)
    tcp_accept_null                          0x0800595f   Thumb Code    20  tcp.o(i.tcp_accept_null)
    i.tcp_alloc                              0x08005974   Section        0  tcp.o(i.tcp_alloc)
    i.tcp_bind                               0x08005a98   Section        0  tcp.o(i.tcp_bind)
    i.tcp_close                              0x08005b4c   Section        0  tcp.o(i.tcp_close)
    i.tcp_close_shutdown                     0x08005b7c   Section        0  tcp.o(i.tcp_close_shutdown)
    tcp_close_shutdown                       0x08005b7d   Thumb Code   314  tcp.o(i.tcp_close_shutdown)
    i.tcp_close_shutdown_fin                 0x08005cd0   Section        0  tcp.o(i.tcp_close_shutdown_fin)
    tcp_close_shutdown_fin                   0x08005cd1   Thumb Code   150  tcp.o(i.tcp_close_shutdown_fin)
    i.tcp_create_segment                     0x08005d6c   Section        0  tcp_out.o(i.tcp_create_segment)
    tcp_create_segment                       0x08005d6d   Thumb Code   234  tcp_out.o(i.tcp_create_segment)
    i.tcp_eff_send_mss_netif                 0x08005e5c   Section        0  tcp.o(i.tcp_eff_send_mss_netif)
    i.tcp_enqueue_flags                      0x08005e8c   Section        0  tcp_out.o(i.tcp_enqueue_flags)
    i.tcp_fasttmr                            0x08005fa8   Section        0  tcp.o(i.tcp_fasttmr)
    i.tcp_free                               0x0800604c   Section        0  tcp.o(i.tcp_free)
    i.tcp_free_acked_segments                0x0800605c   Section        0  tcp_in.o(i.tcp_free_acked_segments)
    tcp_free_acked_segments                  0x0800605d   Thumb Code   122  tcp_in.o(i.tcp_free_acked_segments)
    i.tcp_free_listen                        0x080060e0   Section        0  tcp.o(i.tcp_free_listen)
    tcp_free_listen                          0x080060e1   Thumb Code    14  tcp.o(i.tcp_free_listen)
    i.tcp_free_ooseq                         0x080060ee   Section        0  tcp.o(i.tcp_free_ooseq)
    i.tcp_get_next_optbyte                   0x08006104   Section        0  tcp_in.o(i.tcp_get_next_optbyte)
    tcp_get_next_optbyte                     0x08006105   Thumb Code    54  tcp_in.o(i.tcp_get_next_optbyte)
    i.tcp_handle_closepend                   0x0800614c   Section        0  tcp.o(i.tcp_handle_closepend)
    tcp_handle_closepend                     0x0800614d   Thumb Code    52  tcp.o(i.tcp_handle_closepend)
    i.tcp_init                               0x08006184   Section        0  tcp.o(i.tcp_init)
    i.tcp_input                              0x08006188   Section        0  tcp_in.o(i.tcp_input)
    i.tcp_input_delayed_close                0x080067c0   Section        0  tcp_in.o(i.tcp_input_delayed_close)
    tcp_input_delayed_close                  0x080067c1   Thumb Code    66  tcp_in.o(i.tcp_input_delayed_close)
    i.tcp_keepalive                          0x0800680c   Section        0  tcp_out.o(i.tcp_keepalive)
    i.tcp_kill_prio                          0x0800686c   Section        0  tcp.o(i.tcp_kill_prio)
    tcp_kill_prio                            0x0800686d   Thumb Code   100  tcp.o(i.tcp_kill_prio)
    i.tcp_kill_state                         0x080068d8   Section        0  tcp.o(i.tcp_kill_state)
    tcp_kill_state                           0x080068d9   Thumb Code    68  tcp.o(i.tcp_kill_state)
    i.tcp_kill_timewait                      0x08006924   Section        0  tcp.o(i.tcp_kill_timewait)
    tcp_kill_timewait                        0x08006925   Thumb Code    54  tcp.o(i.tcp_kill_timewait)
    i.tcp_listen_closed                      0x08006964   Section        0  tcp.o(i.tcp_listen_closed)
    tcp_listen_closed                        0x08006965   Thumb Code    30  tcp.o(i.tcp_listen_closed)
    i.tcp_listen_input                       0x08006988   Section        0  tcp_in.o(i.tcp_listen_input)
    tcp_listen_input                         0x08006989   Thumb Code   358  tcp_in.o(i.tcp_listen_input)
    i.tcp_listen_with_backlog                0x08006b14   Section        0  tcp.o(i.tcp_listen_with_backlog)
    i.tcp_listen_with_backlog_and_err        0x08006b28   Section        0  tcp.o(i.tcp_listen_with_backlog_and_err)
    i.tcp_netif_ip_addr_changed              0x08006c04   Section        0  tcp.o(i.tcp_netif_ip_addr_changed)
    i.tcp_netif_ip_addr_changed_pcblist      0x08006c50   Section        0  tcp.o(i.tcp_netif_ip_addr_changed_pcblist)
    tcp_netif_ip_addr_changed_pcblist        0x08006c51   Thumb Code    46  tcp.o(i.tcp_netif_ip_addr_changed_pcblist)
    i.tcp_new                                0x08006c7e   Section        0  tcp.o(i.tcp_new)
    i.tcp_new_port                           0x08006c88   Section        0  tcp.o(i.tcp_new_port)
    tcp_new_port                             0x08006c89   Thumb Code    96  tcp.o(i.tcp_new_port)
    i.tcp_next_iss                           0x08006cf0   Section        0  tcp.o(i.tcp_next_iss)
    i.tcp_oos_insert_segment                 0x08006d10   Section        0  tcp_in.o(i.tcp_oos_insert_segment)
    tcp_oos_insert_segment                   0x08006d11   Thumb Code   138  tcp_in.o(i.tcp_oos_insert_segment)
    i.tcp_output                             0x08006da0   Section        0  tcp_out.o(i.tcp_output)
    i.tcp_output_alloc_header                0x08007008   Section        0  tcp_out.o(i.tcp_output_alloc_header)
    tcp_output_alloc_header                  0x08007009   Thumb Code    60  tcp_out.o(i.tcp_output_alloc_header)
    i.tcp_output_alloc_header_common         0x08007044   Section        0  tcp_out.o(i.tcp_output_alloc_header_common)
    tcp_output_alloc_header_common           0x08007045   Thumb Code   118  tcp_out.o(i.tcp_output_alloc_header_common)
    i.tcp_output_control_segment             0x080070bc   Section        0  tcp_out.o(i.tcp_output_control_segment)
    tcp_output_control_segment               0x080070bd   Thumb Code    98  tcp_out.o(i.tcp_output_control_segment)
    i.tcp_output_fill_options                0x08007124   Section        0  tcp_out.o(i.tcp_output_fill_options)
    tcp_output_fill_options                  0x08007125   Thumb Code    18  tcp_out.o(i.tcp_output_fill_options)
    i.tcp_output_segment                     0x08007138   Section        0  tcp_out.o(i.tcp_output_segment)
    tcp_output_segment                       0x08007139   Thumb Code   240  tcp_out.o(i.tcp_output_segment)
    i.tcp_output_segment_busy                0x08007230   Section        0  tcp_out.o(i.tcp_output_segment_busy)
    tcp_output_segment_busy                  0x08007231   Thumb Code    18  tcp_out.o(i.tcp_output_segment_busy)
    i.tcp_parseopt                           0x08007244   Section        0  tcp_in.o(i.tcp_parseopt)
    tcp_parseopt                             0x08007245   Thumb Code   174  tcp_in.o(i.tcp_parseopt)
    i.tcp_pbuf_prealloc                      0x080072fc   Section        0  tcp_out.o(i.tcp_pbuf_prealloc)
    tcp_pbuf_prealloc                        0x080072fd   Thumb Code   118  tcp_out.o(i.tcp_pbuf_prealloc)
    i.tcp_pcb_purge                          0x08007372   Section        0  tcp.o(i.tcp_pcb_purge)
    i.tcp_pcb_remove                         0x080073e2   Section        0  tcp.o(i.tcp_pcb_remove)
    i.tcp_process                            0x0800744c   Section        0  tcp_in.o(i.tcp_process)
    tcp_process                              0x0800744d   Thumb Code  1494  tcp_in.o(i.tcp_process)
    i.tcp_process_refused_data               0x08007a3c   Section        0  tcp.o(i.tcp_process_refused_data)
    i.tcp_receive                            0x08007ae8   Section        0  tcp_in.o(i.tcp_receive)
    tcp_receive                              0x08007ae9   Thumb Code  2448  tcp_in.o(i.tcp_receive)
    i.tcp_recv                               0x08008484   Section        0  tcp.o(i.tcp_recv)
    i.tcp_recv_null                          0x0800848c   Section        0  tcp.o(i.tcp_recv_null)
    i.tcp_recved                             0x080084c6   Section        0  tcp.o(i.tcp_recved)
    i.tcp_remove_listener                    0x08008524   Section        0  tcp.o(i.tcp_remove_listener)
    tcp_remove_listener                      0x08008525   Thumb Code    24  tcp.o(i.tcp_remove_listener)
    i.tcp_rexmit                             0x0800853c   Section        0  tcp_out.o(i.tcp_rexmit)
    i.tcp_rexmit_fast                        0x080085c8   Section        0  tcp_out.o(i.tcp_rexmit_fast)
    i.tcp_rexmit_rto                         0x08008644   Section        0  tcp_out.o(i.tcp_rexmit_rto)
    i.tcp_rexmit_rto_commit                  0x08008658   Section        0  tcp_out.o(i.tcp_rexmit_rto_commit)
    i.tcp_rexmit_rto_prepare                 0x08008676   Section        0  tcp_out.o(i.tcp_rexmit_rto_prepare)
    i.tcp_route                              0x08008704   Section        0  tcp_out.o(i.tcp_route)
    tcp_route                                0x08008705   Thumb Code    30  tcp_out.o(i.tcp_route)
    i.tcp_rst                                0x08008724   Section        0  tcp_out.o(i.tcp_rst)
    i.tcp_seg_copy                           0x0800879c   Section        0  tcp.o(i.tcp_seg_copy)
    i.tcp_seg_free                           0x080087c2   Section        0  tcp.o(i.tcp_seg_free)
    i.tcp_segs_free                          0x080087dc   Section        0  tcp.o(i.tcp_segs_free)
    i.tcp_send_empty_ack                     0x080087f4   Section        0  tcp_out.o(i.tcp_send_empty_ack)
    i.tcp_send_fin                           0x080088a0   Section        0  tcp_out.o(i.tcp_send_fin)
    i.tcp_server_accept                      0x080088f0   Section        0  tcp_server.o(i.tcp_server_accept)
    tcp_server_accept                        0x080088f1   Thumb Code    42  tcp_server.o(i.tcp_server_accept)
    i.tcp_server_init                        0x08008934   Section        0  tcp_server.o(i.tcp_server_init)
    i.tcp_server_recv                        0x08008970   Section        0  tcp_server.o(i.tcp_server_recv)
    tcp_server_recv                          0x08008971   Thumb Code   106  tcp_server.o(i.tcp_server_recv)
    i.tcp_setprio                            0x080089f0   Section        0  tcp.o(i.tcp_setprio)
    i.tcp_slowtmr                            0x08008a00   Section        0  tcp.o(i.tcp_slowtmr)
    i.tcp_split_unsent_seg                   0x08008e0c   Section        0  tcp_out.o(i.tcp_split_unsent_seg)
    i.tcp_timer_needed                       0x08008fc0   Section        0  timeouts.o(i.tcp_timer_needed)
    i.tcp_timewait_input                     0x08008ff8   Section        0  tcp_in.o(i.tcp_timewait_input)
    tcp_timewait_input                       0x08008ff9   Thumb Code   144  tcp_in.o(i.tcp_timewait_input)
    i.tcp_tmr                                0x080090a4   Section        0  tcp.o(i.tcp_tmr)
    i.tcp_trigger_input_pcb_close            0x080090c8   Section        0  tcp_in.o(i.tcp_trigger_input_pcb_close)
    i.tcp_update_rcv_ann_wnd                 0x080090dc   Section        0  tcp.o(i.tcp_update_rcv_ann_wnd)
    i.tcp_write                              0x08009128   Section        0  tcp_out.o(i.tcp_write)
    i.tcp_write_checks                       0x080095a0   Section        0  tcp_out.o(i.tcp_write_checks)
    tcp_write_checks                         0x080095a1   Thumb Code   126  tcp_out.o(i.tcp_write_checks)
    i.tcp_zero_window_probe                  0x08009624   Section        0  tcp_out.o(i.tcp_zero_window_probe)
    i.tcpip_stack_init                       0x08009710   Section        0  netconf.o(i.tcpip_stack_init)
    i.tcpip_tcp_timer                        0x0800990c   Section        0  timeouts.o(i.tcpip_tcp_timer)
    tcpip_tcp_timer                          0x0800990d   Thumb Code    40  timeouts.o(i.tcpip_tcp_timer)
    i.time_update                            0x08009944   Section        0  netconf.o(i.time_update)
    i.tmr_base_init                          0x08009954   Section        0  at32f403a_407_tmr.o(i.tmr_base_init)
    i.tmr_cnt_dir_set                        0x08009964   Section        0  at32f403a_407_tmr.o(i.tmr_cnt_dir_set)
    i.tmr_counter_enable                     0x0800996e   Section        0  at32f403a_407_tmr.o(i.tmr_counter_enable)
    i.tmr_flag_clear                         0x08009978   Section        0  at32f403a_407_tmr.o(i.tmr_flag_clear)
    i.tmr_flag_get                           0x0800997e   Section        0  at32f403a_407_tmr.o(i.tmr_flag_get)
    i.tmr_interrupt_enable                   0x08009990   Section        0  at32f403a_407_tmr.o(i.tmr_interrupt_enable)
    i.udp_init                               0x080099a6   Section        0  udp.o(i.udp_init)
    i.udp_input                              0x080099a8   Section        0  udp.o(i.udp_input)
    i.udp_input_local_match                  0x08009be4   Section        0  udp.o(i.udp_input_local_match)
    udp_input_local_match                    0x08009be5   Thumb Code    92  udp.o(i.udp_input_local_match)
    i.udp_netif_ip_addr_changed              0x08009c44   Section        0  udp.o(i.udp_netif_ip_addr_changed)
    x$fpl$fpinit                             0x08009c74   Section       10  fpinit.o(x$fpl$fpinit)
    $v0                                      0x08009c74   Number         0  fpinit.o(x$fpl$fpinit)
    .constdata                               0x08009c7e   Section       40  at32f403a_407_crm.o(.constdata)
    sclk_ahb_div_table                       0x08009c7e   Data          16  at32f403a_407_crm.o(.constdata)
    ahb_apb1_div_table                       0x08009c8e   Data           8  at32f403a_407_crm.o(.constdata)
    ahb_apb2_div_table                       0x08009c96   Data           8  at32f403a_407_crm.o(.constdata)
    adc_div_table                            0x08009c9e   Data           8  at32f403a_407_crm.o(.constdata)
    .constdata                               0x08009ca6   Section       16  system_at32f403a_407.o(.constdata)
    sys_ahb_div_table                        0x08009ca6   Data          16  system_at32f403a_407.o(.constdata)
    .constdata                               0x08009cb6   Section       12  ethernet.o(.constdata)
    .constdata                               0x08009cc4   Section        8  ip4_addr.o(.constdata)
    .constdata                               0x08009ccc   Section      264  memp.o(.constdata)
    .constdata                               0x08009dd4   Section       80  tcp.o(.constdata)
    tcp_state_str                            0x08009dd4   Data          44  tcp.o(.constdata)
    tcp_backoff                              0x08009e00   Data          13  tcp.o(.constdata)
    tcp_persist_backoff                      0x08009e0d   Data           7  tcp.o(.constdata)
    .constdata                               0x08009e24   Section       36  timeouts.o(.constdata)
    .conststring                             0x08009e48   Section      124  memp.o(.conststring)
    .conststring                             0x08009ec4   Section      109  tcp.o(.conststring)
    .data                                    0x20000000   Section        8  main.o(.data)
    .data                                    0x20000008   Section       30  netconf.o(.data)
    mac_address                              0x20000014   Data           6  netconf.o(.data)
    local_ip                                 0x2000001a   Data           4  netconf.o(.data)
    local_gw                                 0x2000001e   Data           4  netconf.o(.data)
    local_mask                               0x20000022   Data           4  netconf.o(.data)
    .data                                    0x20000028   Section       45  at32f403a_407_board.o(.data)
    fac_us                                   0x20000048   Data           4  at32f403a_407_board.o(.data)
    fac_ms                                   0x2000004c   Data           4  at32f403a_407_board.o(.data)
    pressed                                  0x20000054   Data           1  at32f403a_407_board.o(.data)
    .data                                    0x20000058   Section        8  at32f403a_407_emac.o(.data)
    .data                                    0x20000060   Section        4  system_at32f403a_407.o(.data)
    .data                                    0x20000064   Section        1  etharp.o(.data)
    etharp_cached_entry                      0x20000064   Data           1  etharp.o(.data)
    .data                                    0x20000068   Section       14  ethernetif.o(.data)
    .data                                    0x20000078   Section        8  igmp.o(.data)
    allsystems                               0x20000078   Data           4  igmp.o(.data)
    allrouters                               0x2000007c   Data           4  igmp.o(.data)
    .data                                    0x20000080   Section        8  ip4.o(.data)
    ip_id                                    0x20000080   Data           2  ip4.o(.data)
    ip4_default_multicast_netif              0x20000084   Data           4  ip4.o(.data)
    .data                                    0x20000088   Section        6  ip4_frag.o(.data)
    reassdatagrams                           0x20000088   Data           4  ip4_frag.o(.data)
    ip_reass_pbufcount                       0x2000008c   Data           2  ip4_frag.o(.data)
    .data                                    0x20000090   Section       12  mem.o(.data)
    ram                                      0x20000090   Data           4  mem.o(.data)
    ram_end                                  0x20000094   Data           4  mem.o(.data)
    lfree                                    0x20000098   Data           4  mem.o(.data)
    .data                                    0x2000009c   Section       44  memp.o(.data)
    memp_tab_RAW_PCB                         0x2000009c   Data           4  memp.o(.data)
    memp_tab_UDP_PCB                         0x200000a0   Data           4  memp.o(.data)
    memp_tab_TCP_PCB                         0x200000a4   Data           4  memp.o(.data)
    memp_tab_TCP_PCB_LISTEN                  0x200000a8   Data           4  memp.o(.data)
    memp_tab_TCP_SEG                         0x200000ac   Data           4  memp.o(.data)
    memp_tab_REASSDATA                       0x200000b0   Data           4  memp.o(.data)
    memp_tab_FRAG_PBUF                       0x200000b4   Data           4  memp.o(.data)
    memp_tab_IGMP_GROUP                      0x200000b8   Data           4  memp.o(.data)
    memp_tab_SYS_TIMEOUT                     0x200000bc   Data           4  memp.o(.data)
    memp_tab_PBUF                            0x200000c0   Data           4  memp.o(.data)
    memp_tab_PBUF_POOL                       0x200000c4   Data           4  memp.o(.data)
    .data                                    0x200000c8   Section       10  netif.o(.data)
    netif_num                                0x200000d0   Data           1  netif.o(.data)
    netif_client_id                          0x200000d1   Data           1  netif.o(.data)
    .data                                    0x200000d2   Section        1  pbuf.o(.data)
    .data                                    0x200000d4   Section        4  raw.o(.data)
    raw_pcbs                                 0x200000d4   Data           4  raw.o(.data)
    .data                                    0x200000d8   Section        4  sys_arch.o(.data)
    .data                                    0x200000dc   Section       32  tcp.o(.data)
    tcp_port                                 0x200000dc   Data           2  tcp.o(.data)
    tcp_timer                                0x200000f5   Data           1  tcp.o(.data)
    tcp_timer_ctr                            0x200000f6   Data           1  tcp.o(.data)
    iss                                      0x200000f8   Data           4  tcp.o(.data)
    .data                                    0x200000fc   Section       40  tcp_in.o(.data)
    tcphdr                                   0x200000fc   Data           4  tcp_in.o(.data)
    tcphdr_optlen                            0x20000100   Data           2  tcp_in.o(.data)
    tcphdr_opt1len                           0x20000102   Data           2  tcp_in.o(.data)
    tcphdr_opt2                              0x20000104   Data           4  tcp_in.o(.data)
    tcp_optidx                               0x20000108   Data           2  tcp_in.o(.data)
    seqno                                    0x2000010c   Data           4  tcp_in.o(.data)
    ackno                                    0x20000110   Data           4  tcp_in.o(.data)
    recv_acked                               0x20000114   Data           2  tcp_in.o(.data)
    tcplen                                   0x20000116   Data           2  tcp_in.o(.data)
    flags                                    0x20000118   Data           1  tcp_in.o(.data)
    recv_flags                               0x20000119   Data           1  tcp_in.o(.data)
    recv_data                                0x2000011c   Data           4  tcp_in.o(.data)
    .data                                    0x20000124   Section       12  timeouts.o(.data)
    next_timeout                             0x20000124   Data           4  timeouts.o(.data)
    current_timeout_due_time                 0x20000128   Data           4  timeouts.o(.data)
    tcpip_tcp_timer_active                   0x2000012c   Data           4  timeouts.o(.data)
    .data                                    0x20000130   Section        8  udp.o(.data)
    udp_port                                 0x20000130   Data           2  udp.o(.data)
    .bss                                     0x20000138   Section       14  at32_emac.o(.bss)
    .bss                                     0x20000148   Section      124  netconf.o(.bss)
    .bss                                     0x200001c4   Section      240  etharp.o(.bss)
    arp_table                                0x200001c4   Data         240  etharp.o(.bss)
    .bss                                     0x200002b4   Section    15360  ethernetif.o(.bss)
    .bss                                     0x20003eb4   Section       24  ip.o(.bss)
    .bss                                     0x20003ecc   Section    20499  mem.o(.bss)
    .bss                                     0x20008ee0   Section    22992  memp.o(.bss)
    memp_stats_RAW_PCB                       0x20008f54   Data          16  memp.o(.bss)
    memp_stats_UDP_PCB                       0x20009008   Data          16  memp.o(.bss)
    memp_stats_TCP_PCB                       0x20009328   Data          16  memp.o(.bss)
    memp_stats_TCP_PCB_LISTEN                0x2000941c   Data          16  memp.o(.bss)
    memp_stats_TCP_SEG                       0x20009520   Data          16  memp.o(.bss)
    memp_stats_REASSDATA                     0x200095d4   Data          16  memp.o(.bss)
    memp_stats_FRAG_PBUF                     0x20009750   Data          16  memp.o(.bss)
    memp_stats_IGMP_GROUP                    0x200097e4   Data          16  memp.o(.bss)
    memp_stats_SYS_TIMEOUT                   0x200098b8   Data          16  memp.o(.bss)
    memp_stats_PBUF                          0x200099cc   Data          16  memp.o(.bss)
    memp_stats_PBUF_POOL                     0x2000e8a0   Data          16  memp.o(.bss)
    .bss                                     0x2000e8b0   Section      124  netif.o(.bss)
    loop_netif                               0x2000e8b0   Data         124  netif.o(.bss)
    .bss                                     0x2000e92c   Section      448  stats.o(.bss)
    .bss                                     0x2000eaec   Section       20  tcp_in.o(.bss)
    inseg                                    0x2000eaec   Data          20  tcp_in.o(.bss)
    .bss                                     0x2000eb00   Section       96  libspace.o(.bss)
    HEAP                                     0x2000eb60   Section      512  startup_at32f403a_407.o(HEAP)
    Heap_Mem                                 0x2000eb60   Data         512  startup_at32f403a_407.o(HEAP)
    STACK                                    0x2000ed60   Section     1024  startup_at32f403a_407.o(STACK)
    Stack_Mem                                0x2000ed60   Data        1024  startup_at32f403a_407.o(STACK)
    __initial_sp                             0x2000f160   Data           0  startup_at32f403a_407.o(STACK)

    Global Symbols

    Symbol Name                              Value     Ov Type        Size  Object(Section)

    BuildAttributes$$THM_ISAv4$E$P$D$K$B$S$7EM$VFPi3$EXTD16$VFPS$VFMA$PE$A:L22UL41UL21$X:L11$S22US41US21$IEEE1$IW$USESV6$~STKCKD$USESV7$~SHL$OTIME$ROPI$EBA8$UX$STANDARDLIB$REQ8$PRES8$EABIv2 0x00000000   Number         0  anon$$obj.o ABSOLUTE
    __ARM_use_no_argv                        0x00000000   Number         0  main.o ABSOLUTE
    __ARM_exceptions_init                     - Undefined Weak Reference
    __alloca_initialize                       - Undefined Weak Reference
    __arm_fini_                               - Undefined Weak Reference
    __arm_preinit_                            - Undefined Weak Reference
    __cpp_initialize__aeabi_                  - Undefined Weak Reference
    __cxa_finalize                            - Undefined Weak Reference
    __sigvec_lookup                           - Undefined Weak Reference
    __user_heap_extent                        - Undefined Weak Reference
    _atexit_init                              - Undefined Weak Reference
    _call_atexit_fns                          - Undefined Weak Reference
    _clock_init                               - Undefined Weak Reference
    _fp_trap_init                             - Undefined Weak Reference
    _fp_trap_shutdown                         - Undefined Weak Reference
    _get_lc_collate                           - Undefined Weak Reference
    _get_lc_monetary                          - Undefined Weak Reference
    _get_lc_numeric                           - Undefined Weak Reference
    _get_lc_time                              - Undefined Weak Reference
    _getenv_init                              - Undefined Weak Reference
    _handle_redirection                       - Undefined Weak Reference
    _initio                                   - Undefined Weak Reference
    _mutex_acquire                            - Undefined Weak Reference
    _mutex_free                               - Undefined Weak Reference
    _mutex_release                            - Undefined Weak Reference
    _rand_init                                - Undefined Weak Reference
    _signal_finish                            - Undefined Weak Reference
    _signal_init                              - Undefined Weak Reference
    _terminateio                              - Undefined Weak Reference
    __Vectors_Size                           0x00000184   Number         0  startup_at32f403a_407.o ABSOLUTE
    __Vectors                                0x08000000   Data           4  startup_at32f403a_407.o(RESET)
    __Vectors_End                            0x08000184   Data           0  startup_at32f403a_407.o(RESET)
    __main                                   0x08000185   Thumb Code     8  __main.o(!!!main)
    __scatterload                            0x0800018d   Thumb Code     0  __scatter.o(!!!scatter)
    __scatterload_rt2                        0x0800018d   Thumb Code    44  __scatter.o(!!!scatter)
    __scatterload_rt2_thumb_only             0x0800018d   Thumb Code     0  __scatter.o(!!!scatter)
    __scatterload_null                       0x0800019b   Thumb Code     0  __scatter.o(!!!scatter)
    __decompress                             0x080001c1   Thumb Code    90  __dczerorl2.o(!!dczerorl2)
    __decompress1                            0x080001c1   Thumb Code     0  __dczerorl2.o(!!dczerorl2)
    __scatterload_zeroinit                   0x0800021d   Thumb Code    28  __scatter_zi.o(!!handler_zi)
    __rt_lib_init                            0x08000239   Thumb Code     0  libinit.o(.ARM.Collect$$libinit$$00000000)
    __rt_lib_init_fp_1                       0x0800023b   Thumb Code     0  libinit2.o(.ARM.Collect$$libinit$$00000001)
    __rt_lib_init_heap_2                     0x0800023f   Thumb Code     0  libinit2.o(.ARM.Collect$$libinit$$00000005)
    __rt_lib_init_preinit_1                  0x0800023f   Thumb Code     0  libinit2.o(.ARM.Collect$$libinit$$00000004)
    __rt_lib_init_alloca_1                   0x08000247   Thumb Code     0  libinit2.o(.ARM.Collect$$libinit$$0000002E)
    __rt_lib_init_argv_1                     0x08000247   Thumb Code     0  libinit2.o(.ARM.Collect$$libinit$$0000002C)
    __rt_lib_init_atexit_1                   0x08000247   Thumb Code     0  libinit2.o(.ARM.Collect$$libinit$$0000001B)
    __rt_lib_init_clock_1                    0x08000247   Thumb Code     0  libinit2.o(.ARM.Collect$$libinit$$00000021)
    __rt_lib_init_cpp_1                      0x08000247   Thumb Code     0  libinit2.o(.ARM.Collect$$libinit$$00000032)
    __rt_lib_init_exceptions_1               0x08000247   Thumb Code     0  libinit2.o(.ARM.Collect$$libinit$$00000030)
    __rt_lib_init_fp_trap_1                  0x08000247   Thumb Code     0  libinit2.o(.ARM.Collect$$libinit$$0000001F)
    __rt_lib_init_getenv_1                   0x08000247   Thumb Code     0  libinit2.o(.ARM.Collect$$libinit$$00000023)
    __rt_lib_init_heap_1                     0x08000247   Thumb Code     0  libinit2.o(.ARM.Collect$$libinit$$0000000A)
    __rt_lib_init_lc_collate_1               0x08000247   Thumb Code     0  libinit2.o(.ARM.Collect$$libinit$$00000011)
    __rt_lib_init_lc_ctype_1                 0x08000247   Thumb Code     0  libinit2.o(.ARM.Collect$$libinit$$00000013)
    __rt_lib_init_lc_monetary_1              0x08000247   Thumb Code     0  libinit2.o(.ARM.Collect$$libinit$$00000015)
    __rt_lib_init_lc_numeric_1               0x08000247   Thumb Code     0  libinit2.o(.ARM.Collect$$libinit$$00000017)
    __rt_lib_init_lc_time_1                  0x08000247   Thumb Code     0  libinit2.o(.ARM.Collect$$libinit$$00000019)
    __rt_lib_init_rand_1                     0x08000247   Thumb Code     0  libinit2.o(.ARM.Collect$$libinit$$0000000E)
    __rt_lib_init_return                     0x08000247   Thumb Code     0  libinit2.o(.ARM.Collect$$libinit$$00000033)
    __rt_lib_init_signal_1                   0x08000247   Thumb Code     0  libinit2.o(.ARM.Collect$$libinit$$0000001D)
    __rt_lib_init_stdio_1                    0x08000247   Thumb Code     0  libinit2.o(.ARM.Collect$$libinit$$00000025)
    __rt_lib_init_user_alloc_1               0x08000247   Thumb Code     0  libinit2.o(.ARM.Collect$$libinit$$0000000C)
    __rt_lib_shutdown                        0x08000249   Thumb Code     0  libshutdown.o(.ARM.Collect$$libshutdown$$00000000)
    __rt_lib_shutdown_cpp_1                  0x0800024b   Thumb Code     0  libshutdown2.o(.ARM.Collect$$libshutdown$$00000004)
    __rt_lib_shutdown_fini_1                 0x0800024b   Thumb Code     0  libshutdown2.o(.ARM.Collect$$libshutdown$$00000002)
    __rt_lib_shutdown_fp_trap_1              0x0800024b   Thumb Code     0  libshutdown2.o(.ARM.Collect$$libshutdown$$00000009)
    __rt_lib_shutdown_heap_1                 0x0800024b   Thumb Code     0  libshutdown2.o(.ARM.Collect$$libshutdown$$00000011)
    __rt_lib_shutdown_return                 0x0800024b   Thumb Code     0  libshutdown2.o(.ARM.Collect$$libshutdown$$00000012)
    __rt_lib_shutdown_signal_1               0x0800024b   Thumb Code     0  libshutdown2.o(.ARM.Collect$$libshutdown$$0000000C)
    __rt_lib_shutdown_stdio_1                0x0800024b   Thumb Code     0  libshutdown2.o(.ARM.Collect$$libshutdown$$00000006)
    __rt_lib_shutdown_user_alloc_1           0x0800024b   Thumb Code     0  libshutdown2.o(.ARM.Collect$$libshutdown$$0000000E)
    __rt_entry                               0x0800024d   Thumb Code     0  __rtentry.o(.ARM.Collect$$rtentry$$00000000)
    __rt_entry_presh_1                       0x0800024d   Thumb Code     0  __rtentry2.o(.ARM.Collect$$rtentry$$00000002)
    __rt_entry_sh                            0x0800024d   Thumb Code     0  __rtentry4.o(.ARM.Collect$$rtentry$$00000004)
    __rt_entry_li                            0x08000253   Thumb Code     0  __rtentry2.o(.ARM.Collect$$rtentry$$0000000A)
    __rt_entry_postsh_1                      0x08000253   Thumb Code     0  __rtentry2.o(.ARM.Collect$$rtentry$$00000009)
    __rt_entry_main                          0x08000257   Thumb Code     0  __rtentry2.o(.ARM.Collect$$rtentry$$0000000D)
    __rt_entry_postli_1                      0x08000257   Thumb Code     0  __rtentry2.o(.ARM.Collect$$rtentry$$0000000C)
    __rt_exit                                0x0800025f   Thumb Code     0  rtexit.o(.ARM.Collect$$rtexit$$00000000)
    __rt_exit_ls                             0x08000261   Thumb Code     0  rtexit2.o(.ARM.Collect$$rtexit$$00000003)
    __rt_exit_prels_1                        0x08000261   Thumb Code     0  rtexit2.o(.ARM.Collect$$rtexit$$00000002)
    __rt_exit_exit                           0x08000265   Thumb Code     0  rtexit2.o(.ARM.Collect$$rtexit$$00000004)
    Reset_Handler                            0x0800026d   Thumb Code     8  startup_at32f403a_407.o(.text)
    _maybe_terminate_alloc                   0x0800026d   Thumb Code     0  maybetermalloc1.o(.emb_text)
    ACC_IRQHandler                           0x08000287   Thumb Code     0  startup_at32f403a_407.o(.text)
    ADC1_2_IRQHandler                        0x08000287   Thumb Code     0  startup_at32f403a_407.o(.text)
    ADC3_IRQHandler                          0x08000287   Thumb Code     0  startup_at32f403a_407.o(.text)
    CAN1_RX1_IRQHandler                      0x08000287   Thumb Code     0  startup_at32f403a_407.o(.text)
    CAN1_SE_IRQHandler                       0x08000287   Thumb Code     0  startup_at32f403a_407.o(.text)
    CAN2_RX0_IRQHandler                      0x08000287   Thumb Code     0  startup_at32f403a_407.o(.text)
    CAN2_RX1_IRQHandler                      0x08000287   Thumb Code     0  startup_at32f403a_407.o(.text)
    CAN2_SE_IRQHandler                       0x08000287   Thumb Code     0  startup_at32f403a_407.o(.text)
    CAN2_TX_IRQHandler                       0x08000287   Thumb Code     0  startup_at32f403a_407.o(.text)
    CRM_IRQHandler                           0x08000287   Thumb Code     0  startup_at32f403a_407.o(.text)
    DMA1_Channel1_IRQHandler                 0x08000287   Thumb Code     0  startup_at32f403a_407.o(.text)
    DMA1_Channel2_IRQHandler                 0x08000287   Thumb Code     0  startup_at32f403a_407.o(.text)
    DMA1_Channel3_IRQHandler                 0x08000287   Thumb Code     0  startup_at32f403a_407.o(.text)
    DMA1_Channel4_IRQHandler                 0x08000287   Thumb Code     0  startup_at32f403a_407.o(.text)
    DMA1_Channel5_IRQHandler                 0x08000287   Thumb Code     0  startup_at32f403a_407.o(.text)
    DMA1_Channel6_IRQHandler                 0x08000287   Thumb Code     0  startup_at32f403a_407.o(.text)
    DMA1_Channel7_IRQHandler                 0x08000287   Thumb Code     0  startup_at32f403a_407.o(.text)
    DMA2_Channel1_IRQHandler                 0x08000287   Thumb Code     0  startup_at32f403a_407.o(.text)
    DMA2_Channel2_IRQHandler                 0x08000287   Thumb Code     0  startup_at32f403a_407.o(.text)
    DMA2_Channel3_IRQHandler                 0x08000287   Thumb Code     0  startup_at32f403a_407.o(.text)
    DMA2_Channel4_5_IRQHandler               0x08000287   Thumb Code     0  startup_at32f403a_407.o(.text)
    DMA2_Channel6_7_IRQHandler               0x08000287   Thumb Code     0  startup_at32f403a_407.o(.text)
    EMAC_IRQHandler                          0x08000287   Thumb Code     0  startup_at32f403a_407.o(.text)
    EMAC_WKUP_IRQHandler                     0x08000287   Thumb Code     0  startup_at32f403a_407.o(.text)
    EXINT0_IRQHandler                        0x08000287   Thumb Code     0  startup_at32f403a_407.o(.text)
    EXINT15_10_IRQHandler                    0x08000287   Thumb Code     0  startup_at32f403a_407.o(.text)
    EXINT1_IRQHandler                        0x08000287   Thumb Code     0  startup_at32f403a_407.o(.text)
    EXINT2_IRQHandler                        0x08000287   Thumb Code     0  startup_at32f403a_407.o(.text)
    EXINT3_IRQHandler                        0x08000287   Thumb Code     0  startup_at32f403a_407.o(.text)
    EXINT4_IRQHandler                        0x08000287   Thumb Code     0  startup_at32f403a_407.o(.text)
    EXINT9_5_IRQHandler                      0x08000287   Thumb Code     0  startup_at32f403a_407.o(.text)
    FLASH_IRQHandler                         0x08000287   Thumb Code     0  startup_at32f403a_407.o(.text)
    I2C1_ERR_IRQHandler                      0x08000287   Thumb Code     0  startup_at32f403a_407.o(.text)
    I2C1_EVT_IRQHandler                      0x08000287   Thumb Code     0  startup_at32f403a_407.o(.text)
    I2C2_ERR_IRQHandler                      0x08000287   Thumb Code     0  startup_at32f403a_407.o(.text)
    I2C2_EVT_IRQHandler                      0x08000287   Thumb Code     0  startup_at32f403a_407.o(.text)
    I2C3_ERR_IRQHandler                      0x08000287   Thumb Code     0  startup_at32f403a_407.o(.text)
    I2C3_EVT_IRQHandler                      0x08000287   Thumb Code     0  startup_at32f403a_407.o(.text)
    PVM_IRQHandler                           0x08000287   Thumb Code     0  startup_at32f403a_407.o(.text)
    RTCAlarm_IRQHandler                      0x08000287   Thumb Code     0  startup_at32f403a_407.o(.text)
    RTC_IRQHandler                           0x08000287   Thumb Code     0  startup_at32f403a_407.o(.text)
    SDIO1_IRQHandler                         0x08000287   Thumb Code     0  startup_at32f403a_407.o(.text)
    SDIO2_IRQHandler                         0x08000287   Thumb Code     0  startup_at32f403a_407.o(.text)
    SPI1_IRQHandler                          0x08000287   Thumb Code     0  startup_at32f403a_407.o(.text)
    SPI2_I2S2EXT_IRQHandler                  0x08000287   Thumb Code     0  startup_at32f403a_407.o(.text)
    SPI3_I2S3EXT_IRQHandler                  0x08000287   Thumb Code     0  startup_at32f403a_407.o(.text)
    SPI4_IRQHandler                          0x08000287   Thumb Code     0  startup_at32f403a_407.o(.text)
    TAMPER_IRQHandler                        0x08000287   Thumb Code     0  startup_at32f403a_407.o(.text)
    TMR1_BRK_TMR9_IRQHandler                 0x08000287   Thumb Code     0  startup_at32f403a_407.o(.text)
    TMR1_CH_IRQHandler                       0x08000287   Thumb Code     0  startup_at32f403a_407.o(.text)
    TMR1_OVF_TMR10_IRQHandler                0x08000287   Thumb Code     0  startup_at32f403a_407.o(.text)
    TMR1_TRG_HALL_TMR11_IRQHandler           0x08000287   Thumb Code     0  startup_at32f403a_407.o(.text)
    TMR2_GLOBAL_IRQHandler                   0x08000287   Thumb Code     0  startup_at32f403a_407.o(.text)
    TMR3_GLOBAL_IRQHandler                   0x08000287   Thumb Code     0  startup_at32f403a_407.o(.text)
    TMR4_GLOBAL_IRQHandler                   0x08000287   Thumb Code     0  startup_at32f403a_407.o(.text)
    TMR5_GLOBAL_IRQHandler                   0x08000287   Thumb Code     0  startup_at32f403a_407.o(.text)
    TMR7_GLOBAL_IRQHandler                   0x08000287   Thumb Code     0  startup_at32f403a_407.o(.text)
    TMR8_BRK_TMR12_IRQHandler                0x08000287   Thumb Code     0  startup_at32f403a_407.o(.text)
    TMR8_CH_IRQHandler                       0x08000287   Thumb Code     0  startup_at32f403a_407.o(.text)
    TMR8_OVF_TMR13_IRQHandler                0x08000287   Thumb Code     0  startup_at32f403a_407.o(.text)
    TMR8_TRG_HALL_TMR14_IRQHandler           0x08000287   Thumb Code     0  startup_at32f403a_407.o(.text)
    UART4_IRQHandler                         0x08000287   Thumb Code     0  startup_at32f403a_407.o(.text)
    UART5_IRQHandler                         0x08000287   Thumb Code     0  startup_at32f403a_407.o(.text)
    UART7_IRQHandler                         0x08000287   Thumb Code     0  startup_at32f403a_407.o(.text)
    UART8_IRQHandler                         0x08000287   Thumb Code     0  startup_at32f403a_407.o(.text)
    USART1_IRQHandler                        0x08000287   Thumb Code     0  startup_at32f403a_407.o(.text)
    USART2_IRQHandler                        0x08000287   Thumb Code     0  startup_at32f403a_407.o(.text)
    USART3_IRQHandler                        0x08000287   Thumb Code     0  startup_at32f403a_407.o(.text)
    USART6_IRQHandler                        0x08000287   Thumb Code     0  startup_at32f403a_407.o(.text)
    USBFSWakeUp_IRQHandler                   0x08000287   Thumb Code     0  startup_at32f403a_407.o(.text)
    USBFS_H_CAN1_TX_IRQHandler               0x08000287   Thumb Code     0  startup_at32f403a_407.o(.text)
    USBFS_L_CAN1_RX0_IRQHandler              0x08000287   Thumb Code     0  startup_at32f403a_407.o(.text)
    USBFS_MAPH_IRQHandler                    0x08000287   Thumb Code     0  startup_at32f403a_407.o(.text)
    USBFS_MAPL_IRQHandler                    0x08000287   Thumb Code     0  startup_at32f403a_407.o(.text)
    WWDT_IRQHandler                          0x08000287   Thumb Code     0  startup_at32f403a_407.o(.text)
    XMC_IRQHandler                           0x08000287   Thumb Code     0  startup_at32f403a_407.o(.text)
    __user_initial_stackheap                 0x08000289   Thumb Code     0  startup_at32f403a_407.o(.text)
    __use_no_semihosting                     0x080002ad   Thumb Code     2  use_no_semi_2.o(.text)
    malloc                                   0x080002af   Thumb Code    94  h1_alloc.o(.text)
    free                                     0x0800030d   Thumb Code    78  h1_free.o(.text)
    memcmp                                   0x0800035b   Thumb Code    88  memcmp.o(.text)
    __aeabi_memcpy                           0x080003b3   Thumb Code     0  rt_memcpy_v6.o(.text)
    __rt_memcpy                              0x080003b3   Thumb Code   138  rt_memcpy_v6.o(.text)
    _memcpy_lastbytes                        0x08000419   Thumb Code     0  rt_memcpy_v6.o(.text)
    __aeabi_memcpy4                          0x0800043d   Thumb Code     0  rt_memcpy_w.o(.text)
    __aeabi_memcpy8                          0x0800043d   Thumb Code     0  rt_memcpy_w.o(.text)
    __rt_memcpy_w                            0x0800043d   Thumb Code   100  rt_memcpy_w.o(.text)
    _memcpy_lastbytes_aligned                0x08000485   Thumb Code     0  rt_memcpy_w.o(.text)
    __aeabi_memclr                           0x080004a1   Thumb Code     0  rt_memclr.o(.text)
    __rt_memclr                              0x080004a1   Thumb Code    68  rt_memclr.o(.text)
    _memset                                  0x080004a5   Thumb Code     0  rt_memclr.o(.text)
    __aeabi_memclr4                          0x080004e5   Thumb Code     0  rt_memclr_w.o(.text)
    __aeabi_memclr8                          0x080004e5   Thumb Code     0  rt_memclr_w.o(.text)
    __rt_memclr_w                            0x080004e5   Thumb Code    78  rt_memclr_w.o(.text)
    _memset_w                                0x080004e9   Thumb Code     0  rt_memclr_w.o(.text)
    strncpy                                  0x08000533   Thumb Code    86  strncpy.o(.text)
    __use_two_region_memory                  0x08000589   Thumb Code     2  heapauxi.o(.text)
    __rt_heap_escrow                         0x0800058b   Thumb Code     2  heapauxi.o(.text)
    __rt_heap_expand                         0x0800058d   Thumb Code     2  heapauxi.o(.text)
    __I$use$semihosting                      0x0800058f   Thumb Code     0  use_no_semi.o(.text)
    __use_no_semihosting_swi                 0x0800058f   Thumb Code     2  use_no_semi.o(.text)
    __rt_heap_descriptor                     0x08000591   Thumb Code     8  rt_heap_descriptor_intlibspace.o(.text)
    __use_no_heap                            0x08000599   Thumb Code     2  hguard.o(.text)
    __heap$guard                             0x0800059b   Thumb Code     2  hguard.o(.text)
    _terminate_user_alloc                    0x0800059d   Thumb Code     2  init_alloc.o(.text)
    _init_user_alloc                         0x0800059f   Thumb Code     2  init_alloc.o(.text)
    __Heap_Full                              0x080005a1   Thumb Code    34  init_alloc.o(.text)
    __Heap_Broken                            0x080005c3   Thumb Code     6  init_alloc.o(.text)
    _init_alloc                              0x080005c9   Thumb Code    94  init_alloc.o(.text)
    __Heap_Initialize                        0x08000627   Thumb Code    10  h1_init.o(.text)
    __Heap_DescSize                          0x08000631   Thumb Code     4  h1_init.o(.text)
    __user_libspace                          0x08000635   Thumb Code     8  libspace.o(.text)
    __user_perproc_libspace                  0x08000635   Thumb Code     0  libspace.o(.text)
    __user_perthread_libspace                0x08000635   Thumb Code     0  libspace.o(.text)
    __Heap_ProvideMemory                     0x0800063d   Thumb Code    52  h1_extend.o(.text)
    __rt_SIGRTMEM                            0x08000671   Thumb Code    14  defsig_rtmem_outer.o(.text)
    __user_setup_stackheap                   0x0800067f   Thumb Code    74  sys_stackheap_outer.o(.text)
    exit                                     0x080006c9   Thumb Code    18  exit.o(.text)
    __sig_exit                               0x080006db   Thumb Code    10  defsig_exit.o(.text)
    __rt_SIGRTMEM_inner                      0x080006e5   Thumb Code    22  defsig_rtmem_inner.o(.text)
    __default_signal_display                 0x08000735   Thumb Code    50  defsig_general.o(.text)
    BusFault_Handler                         0x08000767   Thumb Code     4  at32f403a_407_int.o(i.BusFault_Handler)
    DebugMon_Handler                         0x0800076b   Thumb Code     2  at32f403a_407_int.o(i.DebugMon_Handler)
    HardFault_Handler                        0x0800076d   Thumb Code     4  at32f403a_407_int.o(i.HardFault_Handler)
    MemManage_Handler                        0x08000771   Thumb Code     4  at32f403a_407_int.o(i.MemManage_Handler)
    NMI_Handler                              0x08000775   Thumb Code     2  at32f403a_407_int.o(i.NMI_Handler)
    PendSV_Handler                           0x08000777   Thumb Code     2  at32f403a_407_int.o(i.PendSV_Handler)
    SVC_Handler                              0x08000779   Thumb Code     2  at32f403a_407_int.o(i.SVC_Handler)
    SysTick_Handler                          0x0800077b   Thumb Code     2  at32f403a_407_int.o(i.SysTick_Handler)
    SystemInit                               0x0800077d   Thumb Code   100  system_at32f403a_407.o(i.SystemInit)
    TMR6_GLOBAL_IRQHandler                   0x080007ed   Thumb Code    26  at32f403a_407_int.o(i.TMR6_GLOBAL_IRQHandler)
    UsageFault_Handler                       0x0800080d   Thumb Code     4  at32f403a_407_int.o(i.UsageFault_Handler)
    _sys_exit                                0x08000811   Thumb Code     4  at32f403a_407_board.o(i._sys_exit)
    _ttywrch                                 0x08000815   Thumb Code     4  at32f403a_407_board.o(i._ttywrch)
    at32_board_init                          0x08000819   Thumb Code    48  at32f403a_407_board.o(i.at32_board_init)
    at32_button_init                         0x08000849   Thumb Code    52  at32f403a_407_board.o(i.at32_button_init)
    at32_led_init                            0x08000885   Thumb Code    68  at32f403a_407_board.o(i.at32_led_init)
    at32_led_off                             0x080008d5   Thumb Code    32  at32f403a_407_board.o(i.at32_led_off)
    at32_led_on                              0x080008fd   Thumb Code    32  at32f403a_407_board.o(i.at32_led_on)
    crm_ahb_div_set                          0x08000925   Thumb Code    14  at32f403a_407_crm.o(i.crm_ahb_div_set)
    crm_apb1_div_set                         0x08000939   Thumb Code    14  at32f403a_407_crm.o(i.crm_apb1_div_set)
    crm_apb2_div_set                         0x0800094d   Thumb Code    14  at32f403a_407_crm.o(i.crm_apb2_div_set)
    crm_auto_step_mode_enable                0x08000961   Thumb Code    34  at32f403a_407_crm.o(i.crm_auto_step_mode_enable)
    crm_clkout_div_set                       0x08000989   Thumb Code    14  at32f403a_407_crm.o(i.crm_clkout_div_set)
    crm_clock_out_set                        0x0800099d   Thumb Code    28  at32f403a_407_crm.o(i.crm_clock_out_set)
    crm_clock_source_enable                  0x080009bd   Thumb Code    90  at32f403a_407_crm.o(i.crm_clock_source_enable)
    crm_clocks_freq_get                      0x08000a1d   Thumb Code   268  at32f403a_407_crm.o(i.crm_clocks_freq_get)
    crm_flag_get                             0x08000b49   Thumb Code    42  at32f403a_407_crm.o(i.crm_flag_get)
    crm_periph_clock_enable                  0x08000b79   Thumb Code    62  at32f403a_407_crm.o(i.crm_periph_clock_enable)
    crm_periph_reset                         0x08000bbd   Thumb Code    62  at32f403a_407_crm.o(i.crm_periph_reset)
    crm_pll_config                           0x08000c01   Thumb Code   118  at32f403a_407_crm.o(i.crm_pll_config)
    crm_reset                                0x08000c7d   Thumb Code    80  at32f403a_407_crm.o(i.crm_reset)
    crm_sysclk_switch                        0x08000cd5   Thumb Code    14  at32f403a_407_crm.o(i.crm_sysclk_switch)
    crm_sysclk_switch_status_get             0x08000ce9   Thumb Code    10  at32f403a_407_crm.o(i.crm_sysclk_switch_status_get)
    delay_init                               0x08000cf9   Thumb Code    38  at32f403a_407_board.o(i.delay_init)
    delay_ms                                 0x08000d31   Thumb Code   110  at32f403a_407_board.o(i.delay_ms)
    emac_auto_pad_crc_stripping_set          0x08000e01   Thumb Code    14  at32f403a_407_emac.o(i.emac_auto_pad_crc_stripping_set)
    emac_backoff_limit_set                   0x08000e15   Thumb Code    14  at32f403a_407_emac.o(i.emac_backoff_limit_set)
    emac_carrier_sense_disable               0x08000e29   Thumb Code    14  at32f403a_407_emac.o(i.emac_carrier_sense_disable)
    emac_control_config                      0x08000e3d   Thumb Code    72  at32f403a_407_emac.o(i.emac_control_config)
    emac_control_para_init                   0x08000e85   Thumb Code    32  at32f403a_407_emac.o(i.emac_control_para_init)
    emac_deferral_check_set                  0x08000ea5   Thumb Code    14  at32f403a_407_emac.o(i.emac_deferral_check_set)
    emac_dma_config                          0x08000ee1   Thumb Code   240  at32f403a_407_emac.o(i.emac_dma_config)
    emac_dma_descriptor_list_address_set     0x08000fd5   Thumb Code   158  at32f403a_407_emac.o(i.emac_dma_descriptor_list_address_set)
    emac_dma_flag_clear                      0x08001081   Thumb Code     6  at32f403a_407_emac.o(i.emac_dma_flag_clear)
    emac_dma_flag_get                        0x0800108d   Thumb Code    16  at32f403a_407_emac.o(i.emac_dma_flag_get)
    emac_dma_interrupt_enable                0x080010a1   Thumb Code   238  at32f403a_407_emac.o(i.emac_dma_interrupt_enable)
    emac_dma_operations_set                  0x08001195   Thumb Code   190  at32f403a_407_emac.o(i.emac_dma_operations_set)
    emac_dma_para_init                       0x08001259   Thumb Code    46  at32f403a_407_emac.o(i.emac_dma_para_init)
    emac_dma_rx_desc_interrupt_config        0x08001287   Thumb Code    22  at32f403a_407_emac.o(i.emac_dma_rx_desc_interrupt_config)
    emac_dma_software_reset_get              0x0800129d   Thumb Code    18  at32f403a_407_emac.o(i.emac_dma_software_reset_get)
    emac_dma_software_reset_set              0x080012b5   Thumb Code    16  at32f403a_407_emac.o(i.emac_dma_software_reset_set)
    emac_dmarxdesc_frame_length_get          0x080012c9   Thumb Code    10  at32f403a_407_emac.o(i.emac_dmarxdesc_frame_length_get)
    emac_duplex_mode_set                     0x080012d5   Thumb Code    14  at32f403a_407_emac.o(i.emac_duplex_mode_set)
    emac_fast_speed_set                      0x080012e9   Thumb Code    14  at32f403a_407_emac.o(i.emac_fast_speed_set)
    emac_getcurrenttxbuffer                  0x080012fd   Thumb Code     8  ethernetif.o(i.emac_getcurrenttxbuffer)
    emac_interframe_gap_set                  0x08001309   Thumb Code    14  at32f403a_407_emac.o(i.emac_interframe_gap_set)
    emac_ipv4_checksum_offload_set           0x0800131d   Thumb Code    14  at32f403a_407_emac.o(i.emac_ipv4_checksum_offload_set)
    emac_jabber_disable                      0x08001331   Thumb Code    14  at32f403a_407_emac.o(i.emac_jabber_disable)
    emac_layer2_configuration                0x08001345   Thumb Code   148  at32_emac.o(i.emac_layer2_configuration)
    emac_local_address_set                   0x080013e1   Thumb Code    50  at32f403a_407_emac.o(i.emac_local_address_set)
    emac_loopback_mode_enable                0x08001419   Thumb Code    14  at32f403a_407_emac.o(i.emac_loopback_mode_enable)
    emac_nvic_configuration                  0x0800142d   Thumb Code     2  at32_emac.o(i.emac_nvic_configuration)
    emac_phy_init                            0x0800142f   Thumb Code    14  at32_emac.o(i.emac_phy_init)
    emac_phy_register_read                   0x0800143d   Thumb Code    98  at32f403a_407_emac.o(i.emac_phy_register_read)
    emac_phy_register_write                  0x080014a9   Thumb Code    98  at32f403a_407_emac.o(i.emac_phy_register_write)
    emac_pins_configuration                  0x08001515   Thumb Code   220  at32_emac.o(i.emac_pins_configuration)
    emac_receive_own_disable                 0x08001601   Thumb Code    14  at32f403a_407_emac.o(i.emac_receive_own_disable)
    emac_received_packet_size_get            0x08001615   Thumb Code    66  at32f403a_407_emac.o(i.emac_received_packet_size_get)
    emac_receiver_enable                     0x0800165d   Thumb Code    40  at32f403a_407_emac.o(i.emac_receiver_enable)
    emac_reset                               0x08001689   Thumb Code    20  at32f403a_407_emac.o(i.emac_reset)
    emac_retry_disable                       0x080016a1   Thumb Code    14  at32f403a_407_emac.o(i.emac_retry_disable)
    emac_rxpkt_chainmode                     0x080016b5   Thumb Code   154  ethernetif.o(i.emac_rxpkt_chainmode)
    emac_speed_config                        0x08001759   Thumb Code   306  at32_emac.o(i.emac_speed_config)
    emac_start                               0x08001891   Thumb Code    40  at32f403a_407_emac.o(i.emac_start)
    emac_stop                                0x080018b9   Thumb Code    40  at32f403a_407_emac.o(i.emac_stop)
    emac_system_init                         0x080018e1   Thumb Code    52  at32_emac.o(i.emac_system_init)
    emac_tmr_init                            0x08001919   Thumb Code    94  at32_emac.o(i.emac_tmr_init)
    emac_trasmitter_enable                   0x08001981   Thumb Code    40  at32f403a_407_emac.o(i.emac_trasmitter_enable)
    emac_txpkt_chainmode                     0x080019ad   Thumb Code   100  ethernetif.o(i.emac_txpkt_chainmode)
    emac_watchdog_disable                    0x08001a19   Thumb Code    14  at32f403a_407_emac.o(i.emac_watchdog_disable)
    etharp_cleanup_netif                     0x08001a2d   Thumb Code    50  etharp.o(i.etharp_cleanup_netif)
    etharp_input                             0x08001c61   Thumb Code   254  etharp.o(i.etharp_input)
    etharp_output                            0x08001d65   Thumb Code   328  etharp.o(i.etharp_output)
    etharp_query                             0x08001f71   Thumb Code   384  etharp.o(i.etharp_query)
    etharp_request                           0x080021ad   Thumb Code    22  etharp.o(i.etharp_request)
    etharp_tmr                               0x080021f5   Thumb Code   226  etharp.o(i.etharp_tmr)
    ethernet_input                           0x080023d1   Thumb Code   296  ethernet.o(i.ethernet_input)
    ethernet_output                          0x08002501   Thumb Code   100  ethernet.o(i.ethernet_output)
    ethernetif_init                          0x08002569   Thumb Code   104  ethernetif.o(i.ethernetif_init)
    ethernetif_input                         0x080025dd   Thumb Code    48  ethernetif.o(i.ethernetif_input)
    ethernetif_notify_conn_changed           0x0800260d   Thumb Code    30  at32_emac.o(i.ethernetif_notify_conn_changed)
    ethernetif_set_link                      0x0800262b   Thumb Code    84  at32_emac.o(i.ethernetif_set_link)
    ethernetif_update_config                 0x08002681   Thumb Code    52  at32_emac.o(i.ethernetif_update_config)
    gpio_default_para_init                   0x080026b9   Thumb Code    22  at32f403a_407_gpio.o(i.gpio_default_para_init)
    gpio_init                                0x080026cf   Thumb Code   168  at32f403a_407_gpio.o(i.gpio_init)
    gpio_pin_remap_config                    0x08002779   Thumb Code    70  at32f403a_407_gpio.o(i.gpio_pin_remap_config)
    icmp_dest_unreach                        0x080027c5   Thumb Code    32  icmp.o(i.icmp_dest_unreach)
    icmp_input                               0x080027e9   Thumb Code   764  icmp.o(i.icmp_input)
    icmp_time_exceeded                       0x08002ba5   Thumb Code    32  icmp.o(i.icmp_time_exceeded)
    igmp_init                                0x08002bf5   Thumb Code    18  igmp.o(i.igmp_init)
    igmp_input                               0x08002c19   Thumb Code   464  igmp.o(i.igmp_input)
    igmp_lookfor_group                       0x08002e41   Thumb Code    32  igmp.o(i.igmp_lookfor_group)
    igmp_report_groups                       0x08002eb9   Thumb Code    32  igmp.o(i.igmp_report_groups)
    igmp_start                               0x08002f7d   Thumb Code    66  igmp.o(i.igmp_start)
    igmp_tmr                                 0x08003029   Thumb Code    50  igmp.o(i.igmp_tmr)
    inet_chksum                              0x08003061   Thumb Code    20  inet_chksum.o(i.inet_chksum)
    ip4_addr_isbroadcast_u32                 0x08003075   Thumb Code    78  ip4_addr.o(i.ip4_addr_isbroadcast_u32)
    ip4_frag                                 0x080030c5   Thumb Code   498  ip4_frag.o(i.ip4_frag)
    ip4_input                                0x080032c1   Thumb Code   838  ip4.o(i.ip4_input)
    ip4_output_if                            0x08003655   Thumb Code    52  ip4.o(i.ip4_output_if)
    ip4_output_if_opt                        0x08003689   Thumb Code    68  ip4.o(i.ip4_output_if_opt)
    ip4_output_if_opt_src                    0x080036cd   Thumb Code   486  ip4.o(i.ip4_output_if_opt_src)
    ip4_reass                                0x080038c1   Thumb Code   618  ip4_frag.o(i.ip4_reass)
    ip4_route                                0x08003b39   Thumb Code   194  ip4.o(i.ip4_route)
    ip_reass_tmr                             0x08003f51   Thumb Code    56  ip4_frag.o(i.ip_reass_tmr)
    link_update                              0x08003fa5   Thumb Code    30  at32_emac.o(i.link_update)
    lwip_htonl                               0x08004179   Thumb Code    26  def.o(i.lwip_htonl)
    lwip_htons                               0x08004193   Thumb Code    12  def.o(i.lwip_htons)
    lwip_init                                0x0800419f   Thumb Code    38  init.o(i.lwip_init)
    lwip_periodic_handle                     0x080041c5   Thumb Code   106  netconf.o(i.lwip_periodic_handle)
    lwip_pkt_handle                          0x08004241   Thumb Code    16  netconf.o(i.lwip_pkt_handle)
    lwip_rx_loop_handler                     0x08004255   Thumb Code    18  netconf.o(i.lwip_rx_loop_handler)
    lwip_set_mac_address                     0x08004269   Thumb Code    38  ethernetif.o(i.lwip_set_mac_address)
    lwip_standard_chksum                     0x08004295   Thumb Code    94  inet_chksum.o(i.lwip_standard_chksum)
    main                                     0x080042f5   Thumb Code    54  main.o(i.main)
    mem_free                                 0x08004331   Thumb Code   210  mem.o(i.mem_free)
    mem_init                                 0x08004415   Thumb Code    82  mem.o(i.mem_init)
    mem_malloc                               0x080044d5   Thumb Code   356  mem.o(i.mem_malloc)
    mem_trim                                 0x08004655   Thumb Code   320  mem.o(i.mem_trim)
    memp_free                                0x080047a5   Thumb Code    36  memp.o(i.memp_free)
    memp_init                                0x080047cd   Thumb Code    40  memp.o(i.memp_init)
    memp_init_pool                           0x080047fd   Thumb Code    56  memp.o(i.memp_init_pool)
    memp_malloc                              0x08004835   Thumb Code    32  memp.o(i.memp_malloc)
    netif_add                                0x08004859   Thumb Code   278  netif.o(i.netif_add)
    netif_get_by_index                       0x08004a3d   Thumb Code    36  netif.o(i.netif_get_by_index)
    netif_init                               0x08004a65   Thumb Code    54  netif.o(i.netif_init)
    netif_input                              0x08004aad   Thumb Code    36  netif.o(i.netif_input)
    netif_loop_output                        0x08004b1d   Thumb Code   182  netif.o(i.netif_loop_output)
    netif_set_addr                           0x08004c3d   Thumb Code    92  netif.o(i.netif_set_addr)
    netif_set_default                        0x08004c9d   Thumb Code    10  netif.o(i.netif_set_default)
    netif_set_down                           0x08004cad   Thumb Code    70  netif.o(i.netif_set_down)
    netif_set_link_callback                  0x08004cf3   Thumb Code     6  netif.o(i.netif_set_link_callback)
    netif_set_link_down                      0x08004cf9   Thumb Code    56  netif.o(i.netif_set_link_down)
    netif_set_link_up                        0x08004d31   Thumb Code    64  netif.o(i.netif_set_link_up)
    netif_set_up                             0x08004d71   Thumb Code    62  netif.o(i.netif_set_up)
    nvic_irq_enable                          0x08004db1   Thumb Code   190  at32f403a_407_misc.o(i.nvic_irq_enable)
    nvic_priority_group_config               0x08004e79   Thumb Code    32  at32f403a_407_misc.o(i.nvic_priority_group_config)
    pbuf_add_header                          0x08004ea1   Thumb Code    18  pbuf.o(i.pbuf_add_header)
    pbuf_alloc                               0x08004f19   Thumb Code   296  pbuf.o(i.pbuf_alloc)
    pbuf_alloc_reference                     0x08005041   Thumb Code    52  pbuf.o(i.pbuf_alloc_reference)
    pbuf_alloced_custom                      0x08005075   Thumb Code    90  pbuf.o(i.pbuf_alloced_custom)
    pbuf_cat                                 0x080050cf   Thumb Code    48  pbuf.o(i.pbuf_cat)
    pbuf_clen                                0x080050ff   Thumb Code    18  pbuf.o(i.pbuf_clen)
    pbuf_clone                               0x08005111   Thumb Code    44  pbuf.o(i.pbuf_clone)
    pbuf_copy                                0x0800513d   Thumb Code   180  pbuf.o(i.pbuf_copy)
    pbuf_copy_partial                        0x080051f1   Thumb Code   128  pbuf.o(i.pbuf_copy_partial)
    pbuf_free                                0x08005271   Thumb Code   134  pbuf.o(i.pbuf_free)
    pbuf_header_force                        0x080052f7   Thumb Code    18  pbuf.o(i.pbuf_header_force)
    pbuf_realloc                             0x08005359   Thumb Code   116  pbuf.o(i.pbuf_realloc)
    pbuf_ref                                 0x080053cd   Thumb Code    14  pbuf.o(i.pbuf_ref)
    pbuf_remove_header                       0x080053db   Thumb Code    66  pbuf.o(i.pbuf_remove_header)
    raw_input                                0x080054b9   Thumb Code   138  raw.o(i.raw_input)
    raw_netif_ip_addr_changed                0x08005591   Thumb Code    42  raw.o(i.raw_netif_ip_addr_changed)
    stats_init                               0x080055c1   Thumb Code    10  stats.o(i.stats_init)
    sys_now                                  0x080055d5   Thumb Code     6  sys_arch.o(i.sys_now)
    sys_timeout                              0x080055e1   Thumb Code    30  timeouts.o(i.sys_timeout)
    sys_timeouts_init                        0x0800568d   Thumb Code    30  timeouts.o(i.sys_timeouts_init)
    system_clock_config                      0x080056b5   Thumb Code   108  at32f403a_407_clock.o(i.system_clock_config)
    system_core_clock_update                 0x08005721   Thumb Code   222  system_at32f403a_407.o(i.system_core_clock_update)
    systick_clock_source_config              0x08005819   Thumb Code    40  at32f403a_407_misc.o(i.systick_clock_source_config)
    tcp_abandon                              0x08005841   Thumb Code   240  tcp.o(i.tcp_abandon)
    tcp_abort                                0x08005941   Thumb Code    14  tcp.o(i.tcp_abort)
    tcp_accept                               0x0800594f   Thumb Code    16  tcp.o(i.tcp_accept)
    tcp_alloc                                0x08005975   Thumb Code   272  tcp.o(i.tcp_alloc)
    tcp_bind                                 0x08005a99   Thumb Code   168  tcp.o(i.tcp_bind)
    tcp_close                                0x08005b4d   Thumb Code    48  tcp.o(i.tcp_close)
    tcp_eff_send_mss_netif                   0x08005e5d   Thumb Code    48  tcp.o(i.tcp_eff_send_mss_netif)
    tcp_enqueue_flags                        0x08005e8d   Thumb Code   278  tcp_out.o(i.tcp_enqueue_flags)
    tcp_fasttmr                              0x08005fa9   Thumb Code   150  tcp.o(i.tcp_fasttmr)
    tcp_free                                 0x0800604d   Thumb Code    14  tcp.o(i.tcp_free)
    tcp_free_ooseq                           0x080060ef   Thumb Code    20  tcp.o(i.tcp_free_ooseq)
    tcp_init                                 0x08006185   Thumb Code     2  tcp.o(i.tcp_init)
    tcp_input                                0x08006189   Thumb Code  1548  tcp_in.o(i.tcp_input)
    tcp_keepalive                            0x0800680d   Thumb Code    94  tcp_out.o(i.tcp_keepalive)
    tcp_listen_with_backlog                  0x08006b15   Thumb Code    18  tcp.o(i.tcp_listen_with_backlog)
    tcp_listen_with_backlog_and_err          0x08006b29   Thumb Code   206  tcp.o(i.tcp_listen_with_backlog_and_err)
    tcp_netif_ip_addr_changed                0x08006c05   Thumb Code    64  tcp.o(i.tcp_netif_ip_addr_changed)
    tcp_new                                  0x08006c7f   Thumb Code    10  tcp.o(i.tcp_new)
    tcp_next_iss                             0x08006cf1   Thumb Code    22  tcp.o(i.tcp_next_iss)
    tcp_output                               0x08006da1   Thumb Code   610  tcp_out.o(i.tcp_output)
    tcp_pcb_purge                            0x08007373   Thumb Code   112  tcp.o(i.tcp_pcb_purge)
    tcp_pcb_remove                           0x080073e3   Thumb Code   106  tcp.o(i.tcp_pcb_remove)
    tcp_process_refused_data                 0x08007a3d   Thumb Code   170  tcp.o(i.tcp_process_refused_data)
    tcp_recv                                 0x08008485   Thumb Code     8  tcp.o(i.tcp_recv)
    tcp_recv_null                            0x0800848d   Thumb Code    58  tcp.o(i.tcp_recv_null)
    tcp_recved                               0x080084c7   Thumb Code    94  tcp.o(i.tcp_recved)
    tcp_rexmit                               0x0800853d   Thumb Code   134  tcp_out.o(i.tcp_rexmit)
    tcp_rexmit_fast                          0x080085c9   Thumb Code   124  tcp_out.o(i.tcp_rexmit_fast)
    tcp_rexmit_rto                           0x08008645   Thumb Code    20  tcp_out.o(i.tcp_rexmit_rto)
    tcp_rexmit_rto_commit                    0x08008659   Thumb Code    30  tcp_out.o(i.tcp_rexmit_rto_commit)
    tcp_rexmit_rto_prepare                   0x08008677   Thumb Code   142  tcp_out.o(i.tcp_rexmit_rto_prepare)
    tcp_rst                                  0x08008725   Thumb Code   116  tcp_out.o(i.tcp_rst)
    tcp_seg_copy                             0x0800879d   Thumb Code    38  tcp.o(i.tcp_seg_copy)
    tcp_seg_free                             0x080087c3   Thumb Code    26  tcp.o(i.tcp_seg_free)
    tcp_segs_free                            0x080087dd   Thumb Code    24  tcp.o(i.tcp_segs_free)
    tcp_send_empty_ack                       0x080087f5   Thumb Code   172  tcp_out.o(i.tcp_send_empty_ack)
    tcp_send_fin                             0x080088a1   Thumb Code    78  tcp_out.o(i.tcp_send_fin)
    tcp_server_init                          0x08008935   Thumb Code    52  tcp_server.o(i.tcp_server_init)
    tcp_setprio                              0x080089f1   Thumb Code    14  tcp.o(i.tcp_setprio)
    tcp_slowtmr                              0x08008a01   Thumb Code  1036  tcp.o(i.tcp_slowtmr)
    tcp_split_unsent_seg                     0x08008e0d   Thumb Code   430  tcp_out.o(i.tcp_split_unsent_seg)
    tcp_timer_needed                         0x08008fc1   Thumb Code    38  timeouts.o(i.tcp_timer_needed)
    tcp_tmr                                  0x080090a5   Thumb Code    30  tcp.o(i.tcp_tmr)
    tcp_trigger_input_pcb_close              0x080090c9   Thumb Code    14  tcp_in.o(i.tcp_trigger_input_pcb_close)
    tcp_update_rcv_ann_wnd                   0x080090dd   Thumb Code    74  tcp.o(i.tcp_update_rcv_ann_wnd)
    tcp_write                                0x08009129   Thumb Code  1140  tcp_out.o(i.tcp_write)
    tcp_zero_window_probe                    0x08009625   Thumb Code   236  tcp_out.o(i.tcp_zero_window_probe)
    tcpip_stack_init                         0x08009711   Thumb Code   476  netconf.o(i.tcpip_stack_init)
    time_update                              0x08009945   Thumb Code    12  netconf.o(i.time_update)
    tmr_base_init                            0x08009955   Thumb Code    16  at32f403a_407_tmr.o(i.tmr_base_init)
    tmr_cnt_dir_set                          0x08009965   Thumb Code    10  at32f403a_407_tmr.o(i.tmr_cnt_dir_set)
    tmr_counter_enable                       0x0800996f   Thumb Code    10  at32f403a_407_tmr.o(i.tmr_counter_enable)
    tmr_flag_clear                           0x08009979   Thumb Code     6  at32f403a_407_tmr.o(i.tmr_flag_clear)
    tmr_flag_get                             0x0800997f   Thumb Code    18  at32f403a_407_tmr.o(i.tmr_flag_get)
    tmr_interrupt_enable                     0x08009991   Thumb Code    22  at32f403a_407_tmr.o(i.tmr_interrupt_enable)
    udp_init                                 0x080099a7   Thumb Code     2  udp.o(i.udp_init)
    udp_input                                0x080099a9   Thumb Code   558  udp.o(i.udp_input)
    udp_netif_ip_addr_changed                0x08009c45   Thumb Code    42  udp.o(i.udp_netif_ip_addr_changed)
    _fp_init                                 0x08009c75   Thumb Code    10  fpinit.o(x$fpl$fpinit)
    __fplib_config_fpu_vfp                   0x08009c7d   Thumb Code     0  fpinit.o(x$fpl$fpinit)
    __fplib_config_pureend_doubles           0x08009c7d   Thumb Code     0  fpinit.o(x$fpl$fpinit)
    ethbroadcast                             0x08009cb6   Data           6  ethernet.o(.constdata)
    ethzero                                  0x08009cbc   Data           6  ethernet.o(.constdata)
    ip_addr_any                              0x08009cc4   Data           4  ip4_addr.o(.constdata)
    ip_addr_broadcast                        0x08009cc8   Data           4  ip4_addr.o(.constdata)
    memp_RAW_PCB                             0x08009ccc   Data          20  memp.o(.constdata)
    memp_UDP_PCB                             0x08009ce0   Data          20  memp.o(.constdata)
    memp_TCP_PCB                             0x08009cf4   Data          20  memp.o(.constdata)
    memp_TCP_PCB_LISTEN                      0x08009d08   Data          20  memp.o(.constdata)
    memp_TCP_SEG                             0x08009d1c   Data          20  memp.o(.constdata)
    memp_REASSDATA                           0x08009d30   Data          20  memp.o(.constdata)
    memp_FRAG_PBUF                           0x08009d44   Data          20  memp.o(.constdata)
    memp_IGMP_GROUP                          0x08009d58   Data          20  memp.o(.constdata)
    memp_SYS_TIMEOUT                         0x08009d6c   Data          20  memp.o(.constdata)
    memp_PBUF                                0x08009d80   Data          20  memp.o(.constdata)
    memp_PBUF_POOL                           0x08009d94   Data          20  memp.o(.constdata)
    memp_pools                               0x08009da8   Data          44  memp.o(.constdata)
    tcp_pcb_lists                            0x08009e14   Data          16  tcp.o(.constdata)
    lwip_cyclic_timers                       0x08009e24   Data          32  timeouts.o(.constdata)
    lwip_num_cyclic_timers                   0x08009e44   Data           4  timeouts.o(.constdata)
    Region$$Table$$Base                      0x08009f34   Number         0  anon$$obj.o(Region$$Table)
    Region$$Table$$Limit                     0x08009f54   Number         0  anon$$obj.o(Region$$Table)
    g_speed                                  0x20000000   Data           1  main.o(.data)
    local_time                               0x20000004   Data           4  main.o(.data)
    tcp_timer                                0x20000008   Data           4  netconf.o(.data)
    arp_timer                                0x2000000c   Data           4  netconf.o(.data)
    link_timer                               0x20000010   Data           4  netconf.o(.data)
    led_gpio_port                            0x20000028   Data          12  at32f403a_407_board.o(.data)
    led_gpio_pin                             0x20000034   Data           6  at32f403a_407_board.o(.data)
    led_gpio_crm_clk                         0x2000003c   Data          12  at32f403a_407_board.o(.data)
    __stdout                                 0x20000050   Data           4  at32f403a_407_board.o(.data)
    dma_tx_desc_to_set                       0x20000058   Data           4  at32f403a_407_emac.o(.data)
    dma_rx_desc_to_get                       0x2000005c   Data           4  at32f403a_407_emac.o(.data)
    system_core_clock                        0x20000060   Data           4  system_at32f403a_407.o(.data)
    tcp_end_time                             0x20000068   Data           4  ethernetif.o(.data)
    arp_end_time                             0x2000006c   Data           4  ethernetif.o(.data)
    MACaddr                                  0x20000070   Data           6  ethernetif.o(.data)
    netif_list                               0x200000c8   Data           4  netif.o(.data)
    netif_default                            0x200000cc   Data           4  netif.o(.data)
    pbuf_free_ooseq_pending                  0x200000d2   Data           1  pbuf.o(.data)
    lwip_sys_now                             0x200000d8   Data           4  sys_arch.o(.data)
    tcp_ticks                                0x200000e0   Data           4  tcp.o(.data)
    tcp_bound_pcbs                           0x200000e4   Data           4  tcp.o(.data)
    tcp_listen_pcbs                          0x200000e8   Data           4  tcp.o(.data)
    tcp_active_pcbs                          0x200000ec   Data           4  tcp.o(.data)
    tcp_tw_pcbs                              0x200000f0   Data           4  tcp.o(.data)
    tcp_active_pcbs_changed                  0x200000f4   Data           1  tcp.o(.data)
    tcp_input_pcb                            0x20000120   Data           4  tcp_in.o(.data)
    udp_pcbs                                 0x20000134   Data           4  udp.o(.data)
    mac_control_para                         0x20000138   Data          14  at32_emac.o(.bss)
    netif                                    0x20000148   Data         124  netconf.o(.bss)
    DMARxDscrTab                             0x200002b4   Data          96  ethernetif.o(.bss)
    DMATxDscrTab                             0x20000314   Data          64  ethernetif.o(.bss)
    Rx_Buff                                  0x20000354   Data        9120  ethernetif.o(.bss)
    Tx_Buff                                  0x200026f4   Data        6080  ethernetif.o(.bss)
    ip_data                                  0x20003eb4   Data          24  ip.o(.bss)
    ram_heap                                 0x20003ecc   Data       20499  mem.o(.bss)
    memp_memory_RAW_PCB_base                 0x20008ee0   Data         115  memp.o(.bss)
    memp_memory_UDP_PCB_base                 0x20008f64   Data         163  memp.o(.bss)
    memp_memory_TCP_PCB_base                 0x20009018   Data         783  memp.o(.bss)
    memp_memory_TCP_PCB_LISTEN_base          0x20009338   Data         227  memp.o(.bss)
    memp_memory_TCP_SEG_base                 0x2000942c   Data         243  memp.o(.bss)
    memp_memory_REASSDATA_base               0x20009530   Data         163  memp.o(.bss)
    memp_memory_FRAG_PBUF_base               0x200095e4   Data         363  memp.o(.bss)
    memp_memory_IGMP_GROUP_base              0x20009760   Data         131  memp.o(.bss)
    memp_memory_SYS_TIMEOUT_base             0x200097f4   Data         195  memp.o(.bss)
    memp_memory_PBUF_base                    0x200098c8   Data         259  memp.o(.bss)
    memp_memory_PBUF_POOL_base               0x200099dc   Data       20163  memp.o(.bss)
    lwip_stats                               0x2000e92c   Data         448  stats.o(.bss)
    __libspace_start                         0x2000eb00   Data          96  libspace.o(.bss)
    __temporary_stack_top$libspace           0x2000eb60   Data           0  libspace.o(.bss)



==============================================================================

Memory Map of the image

  Image Entry point : 0x08000185

  Load Region LR_IROM1 (Base: 0x08000000, Size: 0x0000a08c, Max: 0x00100000, ABSOLUTE, COMPRESSED[0x00009f88])

    Execution Region ER_IROM1 (Exec base: 0x08000000, Load base: 0x08000000, Size: 0x00009f54, Max: 0x00100000, ABSOLUTE)

    Exec Addr    Load Addr    Size         Type   Attr      Idx    E Section Name        Object

    0x08000000   0x08000000   0x00000184   Data   RO         2617    RESET               startup_at32f403a_407.o
    0x08000184   0x08000184   0x00000008   Code   RO         5111  * !!!main             c_w.l(__main.o)
    0x0800018c   0x0800018c   0x00000034   Code   RO         5335    !!!scatter          c_w.l(__scatter.o)
    0x080001c0   0x080001c0   0x0000005a   Code   RO         5333    !!dczerorl2         c_w.l(__dczerorl2.o)
    0x0800021a   0x0800021a   0x00000002   PAD
    0x0800021c   0x0800021c   0x0000001c   Code   RO         5337    !!handler_zi        c_w.l(__scatter_zi.o)
    0x08000238   0x08000238   0x00000002   Code   RO         5274    .ARM.Collect$$libinit$$00000000  c_w.l(libinit.o)
    0x0800023a   0x0800023a   0x00000004   Code   RO         5162    .ARM.Collect$$libinit$$00000001  c_w.l(libinit2.o)
    0x0800023e   0x0800023e   0x00000000   Code   RO         5165    .ARM.Collect$$libinit$$00000004  c_w.l(libinit2.o)
    0x0800023e   0x0800023e   0x00000008   Code   RO         5166    .ARM.Collect$$libinit$$00000005  c_w.l(libinit2.o)
    0x08000246   0x08000246   0x00000000   Code   RO         5168    .ARM.Collect$$libinit$$0000000A  c_w.l(libinit2.o)
    0x08000246   0x08000246   0x00000000   Code   RO         5170    .ARM.Collect$$libinit$$0000000C  c_w.l(libinit2.o)
    0x08000246   0x08000246   0x00000000   Code   RO         5172    .ARM.Collect$$libinit$$0000000E  c_w.l(libinit2.o)
    0x08000246   0x08000246   0x00000000   Code   RO         5175    .ARM.Collect$$libinit$$00000011  c_w.l(libinit2.o)
    0x08000246   0x08000246   0x00000000   Code   RO         5177    .ARM.Collect$$libinit$$00000013  c_w.l(libinit2.o)
    0x08000246   0x08000246   0x00000000   Code   RO         5179    .ARM.Collect$$libinit$$00000015  c_w.l(libinit2.o)
    0x08000246   0x08000246   0x00000000   Code   RO         5181    .ARM.Collect$$libinit$$00000017  c_w.l(libinit2.o)
    0x08000246   0x08000246   0x00000000   Code   RO         5183    .ARM.Collect$$libinit$$00000019  c_w.l(libinit2.o)
    0x08000246   0x08000246   0x00000000   Code   RO         5185    .ARM.Collect$$libinit$$0000001B  c_w.l(libinit2.o)
    0x08000246   0x08000246   0x00000000   Code   RO         5187    .ARM.Collect$$libinit$$0000001D  c_w.l(libinit2.o)
    0x08000246   0x08000246   0x00000000   Code   RO         5189    .ARM.Collect$$libinit$$0000001F  c_w.l(libinit2.o)
    0x08000246   0x08000246   0x00000000   Code   RO         5191    .ARM.Collect$$libinit$$00000021  c_w.l(libinit2.o)
    0x08000246   0x08000246   0x00000000   Code   RO         5193    .ARM.Collect$$libinit$$00000023  c_w.l(libinit2.o)
    0x08000246   0x08000246   0x00000000   Code   RO         5195    .ARM.Collect$$libinit$$00000025  c_w.l(libinit2.o)
    0x08000246   0x08000246   0x00000000   Code   RO         5199    .ARM.Collect$$libinit$$0000002C  c_w.l(libinit2.o)
    0x08000246   0x08000246   0x00000000   Code   RO         5201    .ARM.Collect$$libinit$$0000002E  c_w.l(libinit2.o)
    0x08000246   0x08000246   0x00000000   Code   RO         5203    .ARM.Collect$$libinit$$00000030  c_w.l(libinit2.o)
    0x08000246   0x08000246   0x00000000   Code   RO         5205    .ARM.Collect$$libinit$$00000032  c_w.l(libinit2.o)
    0x08000246   0x08000246   0x00000002   Code   RO         5206    .ARM.Collect$$libinit$$00000033  c_w.l(libinit2.o)
    0x08000248   0x08000248   0x00000002   Code   RO         5330    .ARM.Collect$$libshutdown$$00000000  c_w.l(libshutdown.o)
    0x0800024a   0x0800024a   0x00000000   Code   RO         5286    .ARM.Collect$$libshutdown$$00000002  c_w.l(libshutdown2.o)
    0x0800024a   0x0800024a   0x00000000   Code   RO         5288    .ARM.Collect$$libshutdown$$00000004  c_w.l(libshutdown2.o)
    0x0800024a   0x0800024a   0x00000000   Code   RO         5290    .ARM.Collect$$libshutdown$$00000006  c_w.l(libshutdown2.o)
    0x0800024a   0x0800024a   0x00000000   Code   RO         5293    .ARM.Collect$$libshutdown$$00000009  c_w.l(libshutdown2.o)
    0x0800024a   0x0800024a   0x00000000   Code   RO         5296    .ARM.Collect$$libshutdown$$0000000C  c_w.l(libshutdown2.o)
    0x0800024a   0x0800024a   0x00000000   Code   RO         5298    .ARM.Collect$$libshutdown$$0000000E  c_w.l(libshutdown2.o)
    0x0800024a   0x0800024a   0x00000000   Code   RO         5301    .ARM.Collect$$libshutdown$$00000011  c_w.l(libshutdown2.o)
    0x0800024a   0x0800024a   0x00000002   Code   RO         5302    .ARM.Collect$$libshutdown$$00000012  c_w.l(libshutdown2.o)
    0x0800024c   0x0800024c   0x00000000   Code   RO         5117    .ARM.Collect$$rtentry$$00000000  c_w.l(__rtentry.o)
    0x0800024c   0x0800024c   0x00000000   Code   RO         5213    .ARM.Collect$$rtentry$$00000002  c_w.l(__rtentry2.o)
    0x0800024c   0x0800024c   0x00000006   Code   RO         5225    .ARM.Collect$$rtentry$$00000004  c_w.l(__rtentry4.o)
    0x08000252   0x08000252   0x00000000   Code   RO         5215    .ARM.Collect$$rtentry$$00000009  c_w.l(__rtentry2.o)
    0x08000252   0x08000252   0x00000004   Code   RO         5216    .ARM.Collect$$rtentry$$0000000A  c_w.l(__rtentry2.o)
    0x08000256   0x08000256   0x00000000   Code   RO         5218    .ARM.Collect$$rtentry$$0000000C  c_w.l(__rtentry2.o)
    0x08000256   0x08000256   0x00000008   Code   RO         5219    .ARM.Collect$$rtentry$$0000000D  c_w.l(__rtentry2.o)
    0x0800025e   0x0800025e   0x00000002   Code   RO         5275    .ARM.Collect$$rtexit$$00000000  c_w.l(rtexit.o)
    0x08000260   0x08000260   0x00000000   Code   RO         5304    .ARM.Collect$$rtexit$$00000002  c_w.l(rtexit2.o)
    0x08000260   0x08000260   0x00000004   Code   RO         5305    .ARM.Collect$$rtexit$$00000003  c_w.l(rtexit2.o)
    0x08000264   0x08000264   0x00000006   Code   RO         5306    .ARM.Collect$$rtexit$$00000004  c_w.l(rtexit2.o)
    0x0800026a   0x0800026a   0x00000002   PAD
    0x0800026c   0x0800026c   0x00000000   Code   RO         5229    .emb_text           c_w.l(maybetermalloc1.o)
    0x0800026c   0x0800026c   0x00000040   Code   RO         2618    .text               startup_at32f403a_407.o
    0x080002ac   0x080002ac   0x00000002   Code   RO         5023    .text               c_w.l(use_no_semi_2.o)
    0x080002ae   0x080002ae   0x0000005e   Code   RO         5031    .text               c_w.l(h1_alloc.o)
    0x0800030c   0x0800030c   0x0000004e   Code   RO         5033    .text               c_w.l(h1_free.o)
    0x0800035a   0x0800035a   0x00000058   Code   RO         5091    .text               c_w.l(memcmp.o)
    0x080003b2   0x080003b2   0x0000008a   Code   RO         5097    .text               c_w.l(rt_memcpy_v6.o)
    0x0800043c   0x0800043c   0x00000064   Code   RO         5101    .text               c_w.l(rt_memcpy_w.o)
    0x080004a0   0x080004a0   0x00000044   Code   RO         5103    .text               c_w.l(rt_memclr.o)
    0x080004e4   0x080004e4   0x0000004e   Code   RO         5105    .text               c_w.l(rt_memclr_w.o)
    0x08000532   0x08000532   0x00000056   Code   RO         5107    .text               c_w.l(strncpy.o)
    0x08000588   0x08000588   0x00000006   Code   RO         5109    .text               c_w.l(heapauxi.o)
    0x0800058e   0x0800058e   0x00000002   Code   RO         5113    .text               c_w.l(use_no_semi.o)
    0x08000590   0x08000590   0x00000008   Code   RO         5121    .text               c_w.l(rt_heap_descriptor_intlibspace.o)
    0x08000598   0x08000598   0x00000004   Code   RO         5133    .text               c_w.l(hguard.o)
    0x0800059c   0x0800059c   0x0000008a   Code   RO         5135    .text               c_w.l(init_alloc.o)
    0x08000626   0x08000626   0x0000000e   Code   RO         5139    .text               c_w.l(h1_init.o)
    0x08000634   0x08000634   0x00000008   Code   RO         5209    .text               c_w.l(libspace.o)
    0x0800063c   0x0800063c   0x00000034   Code   RO         5231    .text               c_w.l(h1_extend.o)
    0x08000670   0x08000670   0x0000000e   Code   RO         5237    .text               c_w.l(defsig_rtmem_outer.o)
    0x0800067e   0x0800067e   0x0000004a   Code   RO         5251    .text               c_w.l(sys_stackheap_outer.o)
    0x080006c8   0x080006c8   0x00000012   Code   RO         5259    .text               c_w.l(exit.o)
    0x080006da   0x080006da   0x0000000a   Code   RO         5261    .text               c_w.l(defsig_exit.o)
    0x080006e4   0x080006e4   0x00000050   Code   RO         5263    .text               c_w.l(defsig_rtmem_inner.o)
    0x08000734   0x08000734   0x00000032   Code   RO         5283    .text               c_w.l(defsig_general.o)
    0x08000766   0x08000766   0x00000004   Code   RO          142    i.BusFault_Handler  at32f403a_407_int.o
    0x0800076a   0x0800076a   0x00000002   Code   RO          143    i.DebugMon_Handler  at32f403a_407_int.o
    0x0800076c   0x0800076c   0x00000004   Code   RO          144    i.HardFault_Handler  at32f403a_407_int.o
    0x08000770   0x08000770   0x00000004   Code   RO          145    i.MemManage_Handler  at32f403a_407_int.o
    0x08000774   0x08000774   0x00000002   Code   RO          146    i.NMI_Handler       at32f403a_407_int.o
    0x08000776   0x08000776   0x00000002   Code   RO          147    i.PendSV_Handler    at32f403a_407_int.o
    0x08000778   0x08000778   0x00000002   Code   RO          148    i.SVC_Handler       at32f403a_407_int.o
    0x0800077a   0x0800077a   0x00000002   Code   RO          149    i.SysTick_Handler   at32f403a_407_int.o
    0x0800077c   0x0800077c   0x00000070   Code   RO         2581    i.SystemInit        system_at32f403a_407.o
    0x080007ec   0x080007ec   0x00000020   Code   RO          150    i.TMR6_GLOBAL_IRQHandler  at32f403a_407_int.o
    0x0800080c   0x0800080c   0x00000004   Code   RO          151    i.UsageFault_Handler  at32f403a_407_int.o
    0x08000810   0x08000810   0x00000004   Code   RO          641    i._sys_exit         at32f403a_407_board.o
    0x08000814   0x08000814   0x00000004   Code   RO          642    i._ttywrch          at32f403a_407_board.o
    0x08000818   0x08000818   0x00000030   Code   RO          643    i.at32_board_init   at32f403a_407_board.o
    0x08000848   0x08000848   0x0000003c   Code   RO          644    i.at32_button_init  at32f403a_407_board.o
    0x08000884   0x08000884   0x00000050   Code   RO          647    i.at32_led_init     at32f403a_407_board.o
    0x080008d4   0x080008d4   0x00000028   Code   RO          648    i.at32_led_off      at32f403a_407_board.o
    0x080008fc   0x080008fc   0x00000028   Code   RO          649    i.at32_led_on       at32f403a_407_board.o
    0x08000924   0x08000924   0x00000014   Code   RO          763    i.crm_ahb_div_set   at32f403a_407_crm.o
    0x08000938   0x08000938   0x00000014   Code   RO          764    i.crm_apb1_div_set  at32f403a_407_crm.o
    0x0800094c   0x0800094c   0x00000014   Code   RO          765    i.crm_apb2_div_set  at32f403a_407_crm.o
    0x08000960   0x08000960   0x00000028   Code   RO          766    i.crm_auto_step_mode_enable  at32f403a_407_crm.o
    0x08000988   0x08000988   0x00000014   Code   RO          768    i.crm_clkout_div_set  at32f403a_407_crm.o
    0x0800099c   0x0800099c   0x00000020   Code   RO          771    i.crm_clock_out_set  at32f403a_407_crm.o
    0x080009bc   0x080009bc   0x00000060   Code   RO          772    i.crm_clock_source_enable  at32f403a_407_crm.o
    0x08000a1c   0x08000a1c   0x0000012c   Code   RO          773    i.crm_clocks_freq_get  at32f403a_407_crm.o
    0x08000b48   0x08000b48   0x00000030   Code   RO          776    i.crm_flag_get      at32f403a_407_crm.o
    0x08000b78   0x08000b78   0x00000044   Code   RO          786    i.crm_periph_clock_enable  at32f403a_407_crm.o
    0x08000bbc   0x08000bbc   0x00000044   Code   RO          787    i.crm_periph_reset  at32f403a_407_crm.o
    0x08000c00   0x08000c00   0x0000007c   Code   RO          789    i.crm_pll_config    at32f403a_407_crm.o
    0x08000c7c   0x08000c7c   0x00000058   Code   RO          790    i.crm_reset         at32f403a_407_crm.o
    0x08000cd4   0x08000cd4   0x00000014   Code   RO          793    i.crm_sysclk_switch  at32f403a_407_crm.o
    0x08000ce8   0x08000ce8   0x00000010   Code   RO          794    i.crm_sysclk_switch_status_get  at32f403a_407_crm.o
    0x08000cf8   0x08000cf8   0x00000038   Code   RO          651    i.delay_init        at32f403a_407_board.o
    0x08000d30   0x08000d30   0x00000074   Code   RO          652    i.delay_ms          at32f403a_407_board.o
    0x08000da4   0x08000da4   0x0000001a   Code   RO         3557    i.do_memp_free_pool  memp.o
    0x08000dbe   0x08000dbe   0x00000042   Code   RO         3558    i.do_memp_malloc_pool  memp.o
    0x08000e00   0x08000e00   0x00000014   Code   RO         1190    i.emac_auto_pad_crc_stripping_set  at32f403a_407_emac.o
    0x08000e14   0x08000e14   0x00000014   Code   RO         1191    i.emac_backoff_limit_set  at32f403a_407_emac.o
    0x08000e28   0x08000e28   0x00000014   Code   RO         1193    i.emac_carrier_sense_disable  at32f403a_407_emac.o
    0x08000e3c   0x08000e3c   0x00000048   Code   RO         1195    i.emac_control_config  at32f403a_407_emac.o
    0x08000e84   0x08000e84   0x00000020   Code   RO         1196    i.emac_control_para_init  at32f403a_407_emac.o
    0x08000ea4   0x08000ea4   0x00000014   Code   RO         1197    i.emac_deferral_check_set  at32f403a_407_emac.o
    0x08000eb8   0x08000eb8   0x00000028   Code   RO         1198    i.emac_delay        at32f403a_407_emac.o
    0x08000ee0   0x08000ee0   0x000000f4   Code   RO         1202    i.emac_dma_config   at32f403a_407_emac.o
    0x08000fd4   0x08000fd4   0x000000ac   Code   RO         1205    i.emac_dma_descriptor_list_address_set  at32f403a_407_emac.o
    0x08001080   0x08001080   0x0000000c   Code   RO         1209    i.emac_dma_flag_clear  at32f403a_407_emac.o
    0x0800108c   0x0800108c   0x00000014   Code   RO         1210    i.emac_dma_flag_get  at32f403a_407_emac.o
    0x080010a0   0x080010a0   0x000000f4   Code   RO         1211    i.emac_dma_interrupt_enable  at32f403a_407_emac.o
    0x08001194   0x08001194   0x000000c4   Code   RO         1213    i.emac_dma_operations_set  at32f403a_407_emac.o
    0x08001258   0x08001258   0x0000002e   Code   RO         1214    i.emac_dma_para_init  at32f403a_407_emac.o
    0x08001286   0x08001286   0x00000016   Code   RO         1219    i.emac_dma_rx_desc_interrupt_config  at32f403a_407_emac.o
    0x0800129c   0x0800129c   0x00000018   Code   RO         1221    i.emac_dma_software_reset_get  at32f403a_407_emac.o
    0x080012b4   0x080012b4   0x00000014   Code   RO         1222    i.emac_dma_software_reset_set  at32f403a_407_emac.o
    0x080012c8   0x080012c8   0x0000000a   Code   RO         1226    i.emac_dmarxdesc_frame_length_get  at32f403a_407_emac.o
    0x080012d2   0x080012d2   0x00000002   PAD
    0x080012d4   0x080012d4   0x00000014   Code   RO         1228    i.emac_duplex_mode_set  at32f403a_407_emac.o
    0x080012e8   0x080012e8   0x00000014   Code   RO         1229    i.emac_fast_speed_set  at32f403a_407_emac.o
    0x080012fc   0x080012fc   0x0000000c   Code   RO         2888    i.emac_getcurrenttxbuffer  ethernetif.o
    0x08001308   0x08001308   0x00000014   Code   RO         1237    i.emac_interframe_gap_set  at32f403a_407_emac.o
    0x0800131c   0x0800131c   0x00000014   Code   RO         1240    i.emac_ipv4_checksum_offload_set  at32f403a_407_emac.o
    0x08001330   0x08001330   0x00000014   Code   RO         1241    i.emac_jabber_disable  at32f403a_407_emac.o
    0x08001344   0x08001344   0x0000009c   Code   RO          226    i.emac_layer2_configuration  at32_emac.o
    0x080013e0   0x080013e0   0x00000038   Code   RO         1242    i.emac_local_address_set  at32f403a_407_emac.o
    0x08001418   0x08001418   0x00000014   Code   RO         1243    i.emac_loopback_mode_enable  at32f403a_407_emac.o
    0x0800142c   0x0800142c   0x00000002   Code   RO          227    i.emac_nvic_configuration  at32_emac.o
    0x0800142e   0x0800142e   0x0000000e   Code   RO          228    i.emac_phy_init     at32_emac.o
    0x0800143c   0x0800143c   0x0000006c   Code   RO         1261    i.emac_phy_register_read  at32f403a_407_emac.o
    0x080014a8   0x080014a8   0x0000006c   Code   RO         1262    i.emac_phy_register_write  at32f403a_407_emac.o
    0x08001514   0x08001514   0x000000ec   Code   RO          230    i.emac_pins_configuration  at32_emac.o
    0x08001600   0x08001600   0x00000014   Code   RO         1295    i.emac_receive_own_disable  at32f403a_407_emac.o
    0x08001614   0x08001614   0x00000048   Code   RO         1297    i.emac_received_packet_size_get  at32f403a_407_emac.o
    0x0800165c   0x0800165c   0x0000002c   Code   RO         1299    i.emac_receiver_enable  at32f403a_407_emac.o
    0x08001688   0x08001688   0x00000018   Code   RO         1300    i.emac_reset        at32f403a_407_emac.o
    0x080016a0   0x080016a0   0x00000014   Code   RO         1301    i.emac_retry_disable  at32f403a_407_emac.o
    0x080016b4   0x080016b4   0x000000a4   Code   RO         2889    i.emac_rxpkt_chainmode  ethernetif.o
    0x08001758   0x08001758   0x00000138   Code   RO          231    i.emac_speed_config  at32_emac.o
    0x08001890   0x08001890   0x00000028   Code   RO         1304    i.emac_start        at32f403a_407_emac.o
    0x080018b8   0x080018b8   0x00000028   Code   RO         1305    i.emac_stop         at32f403a_407_emac.o
    0x080018e0   0x080018e0   0x00000038   Code   RO          232    i.emac_system_init  at32_emac.o
    0x08001918   0x08001918   0x00000068   Code   RO          233    i.emac_tmr_init     at32_emac.o
    0x08001980   0x08001980   0x0000002c   Code   RO         1307    i.emac_trasmitter_enable  at32f403a_407_emac.o
    0x080019ac   0x080019ac   0x0000006c   Code   RO         2890    i.emac_txpkt_chainmode  ethernetif.o
    0x08001a18   0x08001a18   0x00000014   Code   RO         1315    i.emac_watchdog_disable  at32f403a_407_emac.o
    0x08001a2c   0x08001a2c   0x00000038   Code   RO         2740    i.etharp_cleanup_netif  etharp.o
    0x08001a64   0x08001a64   0x00000184   Code   RO         2742    i.etharp_find_entry  etharp.o
    0x08001be8   0x08001be8   0x00000078   Code   RO         2743    i.etharp_free_entry  etharp.o
    0x08001c60   0x08001c60   0x00000104   Code   RO         2745    i.etharp_input      etharp.o
    0x08001d64   0x08001d64   0x00000158   Code   RO         2746    i.etharp_output     etharp.o
    0x08001ebc   0x08001ebc   0x000000b4   Code   RO         2747    i.etharp_output_to_arp_index  etharp.o
    0x08001f70   0x08001f70   0x0000018c   Code   RO         2748    i.etharp_query      etharp.o
    0x080020fc   0x080020fc   0x000000b0   Code   RO         2749    i.etharp_raw        etharp.o
    0x080021ac   0x080021ac   0x0000001c   Code   RO         2751    i.etharp_request    etharp.o
    0x080021c8   0x080021c8   0x0000002c   Code   RO         2752    i.etharp_request_dst  etharp.o
    0x080021f4   0x080021f4   0x000000e8   Code   RO         2753    i.etharp_tmr        etharp.o
    0x080022dc   0x080022dc   0x000000f4   Code   RO         2754    i.etharp_update_arp_entry  etharp.o
    0x080023d0   0x080023d0   0x00000130   Code   RO         2854    i.ethernet_input    ethernet.o
    0x08002500   0x08002500   0x00000068   Code   RO         2855    i.ethernet_output   ethernet.o
    0x08002568   0x08002568   0x00000074   Code   RO         2891    i.ethernetif_init   ethernetif.o
    0x080025dc   0x080025dc   0x00000030   Code   RO         2892    i.ethernetif_input  ethernetif.o
    0x0800260c   0x0800260c   0x0000001e   Code   RO          234    i.ethernetif_notify_conn_changed  at32_emac.o
    0x0800262a   0x0800262a   0x00000054   Code   RO          235    i.ethernetif_set_link  at32_emac.o
    0x0800267e   0x0800267e   0x00000002   PAD
    0x08002680   0x08002680   0x00000038   Code   RO          236    i.ethernetif_update_config  at32_emac.o
    0x080026b8   0x080026b8   0x00000016   Code   RO         2046    i.gpio_default_para_init  at32f403a_407_gpio.o
    0x080026ce   0x080026ce   0x000000a8   Code   RO         2050    i.gpio_init         at32f403a_407_gpio.o
    0x08002776   0x08002776   0x00000002   PAD
    0x08002778   0x08002778   0x0000004c   Code   RO         2056    i.gpio_pin_remap_config  at32f403a_407_gpio.o
    0x080027c4   0x080027c4   0x00000024   Code   RO         2968    i.icmp_dest_unreach  icmp.o
    0x080027e8   0x080027e8   0x00000304   Code   RO         2969    i.icmp_input        icmp.o
    0x08002aec   0x08002aec   0x000000b8   Code   RO         2970    i.icmp_send_response  icmp.o
    0x08002ba4   0x08002ba4   0x00000024   Code   RO         2971    i.icmp_time_exceeded  icmp.o
    0x08002bc8   0x08002bc8   0x0000002a   Code   RO         3017    i.igmp_delaying_member  igmp.o
    0x08002bf2   0x08002bf2   0x00000002   PAD
    0x08002bf4   0x08002bf4   0x00000024   Code   RO         3018    i.igmp_init         igmp.o
    0x08002c18   0x08002c18   0x000001d8   Code   RO         3019    i.igmp_input        igmp.o
    0x08002df0   0x08002df0   0x00000050   Code   RO         3020    i.igmp_ip_output_if  igmp.o
    0x08002e40   0x08002e40   0x00000020   Code   RO         3025    i.igmp_lookfor_group  igmp.o
    0x08002e60   0x08002e60   0x00000058   Code   RO         3026    i.igmp_lookup_group  igmp.o
    0x08002eb8   0x08002eb8   0x00000020   Code   RO         3028    i.igmp_report_groups  igmp.o
    0x08002ed8   0x08002ed8   0x000000a4   Code   RO         3029    i.igmp_send         igmp.o
    0x08002f7c   0x08002f7c   0x00000048   Code   RO         3030    i.igmp_start        igmp.o
    0x08002fc4   0x08002fc4   0x00000016   Code   RO         3031    i.igmp_start_timer  igmp.o
    0x08002fda   0x08002fda   0x00000002   PAD
    0x08002fdc   0x08002fdc   0x0000004c   Code   RO         3033    i.igmp_timeout      igmp.o
    0x08003028   0x08003028   0x00000038   Code   RO         3034    i.igmp_tmr          igmp.o
    0x08003060   0x08003060   0x00000014   Code   RO         3143    i.inet_chksum       inet_chksum.o
    0x08003074   0x08003074   0x0000004e   Code   RO         3355    i.ip4_addr_isbroadcast_u32  ip4_addr.o
    0x080030c2   0x080030c2   0x00000002   PAD
    0x080030c4   0x080030c4   0x000001fc   Code   RO         3414    i.ip4_frag          ip4_frag.o
    0x080032c0   0x080032c0   0x00000358   Code   RO         3284    i.ip4_input         ip4.o
    0x08003618   0x08003618   0x0000003c   Code   RO         3285    i.ip4_input_accept  ip4.o
    0x08003654   0x08003654   0x00000034   Code   RO         3287    i.ip4_output_if     ip4.o
    0x08003688   0x08003688   0x00000044   Code   RO         3288    i.ip4_output_if_opt  ip4.o
    0x080036cc   0x080036cc   0x000001f4   Code   RO         3289    i.ip4_output_if_opt_src  ip4.o
    0x080038c0   0x080038c0   0x00000278   Code   RO         3415    i.ip4_reass         ip4_frag.o
    0x08003b38   0x08003b38   0x000000d4   Code   RO         3291    i.ip4_route         ip4.o
    0x08003c0c   0x08003c0c   0x0000000a   Code   RO         3416    i.ip_frag_alloc_pbuf_custom_ref  ip4_frag.o
    0x08003c16   0x08003c16   0x0000000e   Code   RO         3417    i.ip_frag_free_pbuf_custom_ref  ip4_frag.o
    0x08003c24   0x08003c24   0x0000017a   Code   RO         3418    i.ip_reass_chain_frag_into_datagram_and_validate  ip4_frag.o
    0x08003d9e   0x08003d9e   0x00000002   PAD
    0x08003da0   0x08003da0   0x00000028   Code   RO         3419    i.ip_reass_dequeue_datagram  ip4_frag.o
    0x08003dc8   0x08003dc8   0x00000068   Code   RO         3420    i.ip_reass_enqueue_new_datagram  ip4_frag.o
    0x08003e30   0x08003e30   0x00000098   Code   RO         3421    i.ip_reass_free_complete_datagram  ip4_frag.o
    0x08003ec8   0x08003ec8   0x00000088   Code   RO         3422    i.ip_reass_remove_oldest_datagram  ip4_frag.o
    0x08003f50   0x08003f50   0x0000003c   Code   RO         3423    i.ip_reass_tmr      ip4_frag.o
    0x08003f8c   0x08003f8c   0x00000018   Code   RO         3424    i.ipfrag_free_pbuf_custom  ip4_frag.o
    0x08003fa4   0x08003fa4   0x0000001e   Code   RO          237    i.link_update       at32_emac.o
    0x08003fc2   0x08003fc2   0x00000002   PAD
    0x08003fc4   0x08003fc4   0x000000ac   Code   RO         2893    i.low_level_init    ethernetif.o
    0x08004070   0x08004070   0x0000007c   Code   RO         2894    i.low_level_input   ethernetif.o
    0x080040ec   0x080040ec   0x0000003a   Code   RO         2895    i.low_level_output  ethernetif.o
    0x08004126   0x08004126   0x00000002   PAD
    0x08004128   0x08004128   0x00000050   Code   RO         4830    i.lwip_cyclic_timer  timeouts.o
    0x08004178   0x08004178   0x0000001a   Code   RO         2661    i.lwip_htonl        def.o
    0x08004192   0x08004192   0x0000000c   Code   RO         2662    i.lwip_htons        def.o
    0x0800419e   0x0800419e   0x00000026   Code   RO         3211    i.lwip_init         init.o
    0x080041c4   0x080041c4   0x0000007c   Code   RO          443    i.lwip_periodic_handle  netconf.o
    0x08004240   0x08004240   0x00000014   Code   RO          444    i.lwip_pkt_handle   netconf.o
    0x08004254   0x08004254   0x00000012   Code   RO          445    i.lwip_rx_loop_handler  netconf.o
    0x08004266   0x08004266   0x00000002   PAD
    0x08004268   0x08004268   0x0000002c   Code   RO         2896    i.lwip_set_mac_address  ethernetif.o
    0x08004294   0x08004294   0x0000005e   Code   RO         3151    i.lwip_standard_chksum  inet_chksum.o
    0x080042f2   0x080042f2   0x00000002   PAD
    0x080042f4   0x080042f4   0x0000003c   Code   RO          409    i.main              main.o
    0x08004330   0x08004330   0x000000e4   Code   RO         3484    i.mem_free          mem.o
    0x08004414   0x08004414   0x00000068   Code   RO         3485    i.mem_init          mem.o
    0x0800447c   0x0800447c   0x00000058   Code   RO         3486    i.mem_link_valid    mem.o
    0x080044d4   0x080044d4   0x00000170   Code   RO         3487    i.mem_malloc        mem.o
    0x08004644   0x08004644   0x00000010   Code   RO         3488    i.mem_to_ptr        mem.o
    0x08004654   0x08004654   0x00000150   Code   RO         3489    i.mem_trim          mem.o
    0x080047a4   0x080047a4   0x00000028   Code   RO         3559    i.memp_free         memp.o
    0x080047cc   0x080047cc   0x00000030   Code   RO         3561    i.memp_init         memp.o
    0x080047fc   0x080047fc   0x00000038   Code   RO         3562    i.memp_init_pool    memp.o
    0x08004834   0x08004834   0x00000024   Code   RO         3563    i.memp_malloc       memp.o
    0x08004858   0x08004858   0x00000128   Code   RO         3663    i.netif_add         netif.o
    0x08004980   0x08004980   0x00000020   Code   RO         3666    i.netif_do_ip_addr_changed  netif.o
    0x080049a0   0x080049a0   0x0000002a   Code   RO         3667    i.netif_do_set_gw   netif.o
    0x080049ca   0x080049ca   0x00000046   Code   RO         3668    i.netif_do_set_ipaddr  netif.o
    0x08004a10   0x08004a10   0x0000002a   Code   RO         3669    i.netif_do_set_netmask  netif.o
    0x08004a3a   0x08004a3a   0x00000002   PAD
    0x08004a3c   0x08004a3c   0x00000028   Code   RO         3671    i.netif_get_by_index  netif.o
    0x08004a64   0x08004a64   0x00000048   Code   RO         3673    i.netif_init        netif.o
    0x08004aac   0x08004aac   0x00000024   Code   RO         3674    i.netif_input       netif.o
    0x08004ad0   0x08004ad0   0x0000004c   Code   RO         3675    i.netif_issue_reports  netif.o
    0x08004b1c   0x08004b1c   0x000000c0   Code   RO         3676    i.netif_loop_output  netif.o
    0x08004bdc   0x08004bdc   0x00000012   Code   RO         3677    i.netif_loop_output_ipv4  netif.o
    0x08004bee   0x08004bee   0x00000002   PAD
    0x08004bf0   0x08004bf0   0x00000044   Code   RO         3678    i.netif_loopif_init  netif.o
    0x08004c34   0x08004c34   0x00000008   Code   RO         3680    i.netif_null_output_ip4  netif.o
    0x08004c3c   0x08004c3c   0x00000060   Code   RO         3684    i.netif_set_addr    netif.o
    0x08004c9c   0x08004c9c   0x00000010   Code   RO         3685    i.netif_set_default  netif.o
    0x08004cac   0x08004cac   0x00000046   Code   RO         3686    i.netif_set_down    netif.o
    0x08004cf2   0x08004cf2   0x00000006   Code   RO         3689    i.netif_set_link_callback  netif.o
    0x08004cf8   0x08004cf8   0x00000038   Code   RO         3690    i.netif_set_link_down  netif.o
    0x08004d30   0x08004d30   0x00000040   Code   RO         3691    i.netif_set_link_up  netif.o
    0x08004d70   0x08004d70   0x0000003e   Code   RO         3693    i.netif_set_up      netif.o
    0x08004dae   0x08004dae   0x00000002   PAD
    0x08004db0   0x08004db0   0x000000c8   Code   RO         2170    i.nvic_irq_enable   at32f403a_407_misc.o
    0x08004e78   0x08004e78   0x00000028   Code   RO         2172    i.nvic_priority_group_config  at32f403a_407_misc.o
    0x08004ea0   0x08004ea0   0x00000012   Code   RO         3884    i.pbuf_add_header   pbuf.o
    0x08004eb2   0x08004eb2   0x00000066   Code   RO         3886    i.pbuf_add_header_impl  pbuf.o
    0x08004f18   0x08004f18   0x00000128   Code   RO         3887    i.pbuf_alloc        pbuf.o
    0x08005040   0x08005040   0x00000034   Code   RO         3888    i.pbuf_alloc_reference  pbuf.o
    0x08005074   0x08005074   0x0000005a   Code   RO         3889    i.pbuf_alloced_custom  pbuf.o
    0x080050ce   0x080050ce   0x00000030   Code   RO         3890    i.pbuf_cat          pbuf.o
    0x080050fe   0x080050fe   0x00000012   Code   RO         3892    i.pbuf_clen         pbuf.o
    0x08005110   0x08005110   0x0000002c   Code   RO         3893    i.pbuf_clone        pbuf.o
    0x0800513c   0x0800513c   0x000000b4   Code   RO         3895    i.pbuf_copy         pbuf.o
    0x080051f0   0x080051f0   0x00000080   Code   RO         3896    i.pbuf_copy_partial  pbuf.o
    0x08005270   0x08005270   0x00000086   Code   RO         3898    i.pbuf_free         pbuf.o
    0x080052f6   0x080052f6   0x00000012   Code   RO         3904    i.pbuf_header_force  pbuf.o
    0x08005308   0x08005308   0x00000022   Code   RO         3905    i.pbuf_header_impl  pbuf.o
    0x0800532a   0x0800532a   0x0000001e   Code   RO         3906    i.pbuf_init_alloced_pbuf  pbuf.o
    0x08005348   0x08005348   0x00000010   Code   RO         3909    i.pbuf_pool_is_empty  pbuf.o
    0x08005358   0x08005358   0x00000074   Code   RO         3911    i.pbuf_realloc      pbuf.o
    0x080053cc   0x080053cc   0x0000000e   Code   RO         3912    i.pbuf_ref          pbuf.o
    0x080053da   0x080053da   0x00000042   Code   RO         3913    i.pbuf_remove_header  pbuf.o
    0x0800541c   0x0800541c   0x0000008c   Code   RO         3490    i.plug_holes        mem.o
    0x080054a8   0x080054a8   0x00000010   Code   RO         3491    i.ptr_to_mem        mem.o
    0x080054b8   0x080054b8   0x00000094   Code   RO         4126    i.raw_input         raw.o
    0x0800554c   0x0800554c   0x00000044   Code   RO         4127    i.raw_input_local_match  raw.o
    0x08005590   0x08005590   0x00000030   Code   RO         4128    i.raw_netif_ip_addr_changed  raw.o
    0x080055c0   0x080055c0   0x00000014   Code   RO         4221    i.stats_init        stats.o
    0x080055d4   0x080055d4   0x0000000c   Code   RO         4260    i.sys_now           sys_arch.o
    0x080055e0   0x080055e0   0x0000001e   Code   RO         4833    i.sys_timeout       timeouts.o
    0x080055fe   0x080055fe   0x00000002   PAD
    0x08005600   0x08005600   0x0000008c   Code   RO         4834    i.sys_timeout_abs   timeouts.o
    0x0800568c   0x0800568c   0x00000028   Code   RO         4835    i.sys_timeouts_init  timeouts.o
    0x080056b4   0x080056b4   0x0000006c   Code   RO            4    i.system_clock_config  at32f403a_407_clock.o
    0x08005720   0x08005720   0x000000f8   Code   RO         2582    i.system_core_clock_update  system_at32f403a_407.o
    0x08005818   0x08005818   0x00000028   Code   RO         2175    i.systick_clock_source_config  at32f403a_407_misc.o
    0x08005840   0x08005840   0x00000100   Code   RO         4285    i.tcp_abandon       tcp.o
    0x08005940   0x08005940   0x0000000e   Code   RO         4286    i.tcp_abort         tcp.o
    0x0800594e   0x0800594e   0x00000010   Code   RO         4287    i.tcp_accept        tcp.o
    0x0800595e   0x0800595e   0x00000014   Code   RO         4288    i.tcp_accept_null   tcp.o
    0x08005972   0x08005972   0x00000002   PAD
    0x08005974   0x08005974   0x00000124   Code   RO         4289    i.tcp_alloc         tcp.o
    0x08005a98   0x08005a98   0x000000b4   Code   RO         4291    i.tcp_bind          tcp.o
    0x08005b4c   0x08005b4c   0x00000030   Code   RO         4293    i.tcp_close         tcp.o
    0x08005b7c   0x08005b7c   0x00000154   Code   RO         4294    i.tcp_close_shutdown  tcp.o
    0x08005cd0   0x08005cd0   0x0000009c   Code   RO         4295    i.tcp_close_shutdown_fin  tcp.o
    0x08005d6c   0x08005d6c   0x000000f0   Code   RO         4677    i.tcp_create_segment  tcp_out.o
    0x08005e5c   0x08005e5c   0x00000030   Code   RO         4298    i.tcp_eff_send_mss_netif  tcp.o
    0x08005e8c   0x08005e8c   0x0000011c   Code   RO         4678    i.tcp_enqueue_flags  tcp_out.o
    0x08005fa8   0x08005fa8   0x000000a4   Code   RO         4300    i.tcp_fasttmr       tcp.o
    0x0800604c   0x0800604c   0x0000000e   Code   RO         4301    i.tcp_free          tcp.o
    0x0800605a   0x0800605a   0x00000002   PAD
    0x0800605c   0x0800605c   0x00000084   Code   RO         4603    i.tcp_free_acked_segments  tcp_in.o
    0x080060e0   0x080060e0   0x0000000e   Code   RO         4302    i.tcp_free_listen   tcp.o
    0x080060ee   0x080060ee   0x00000014   Code   RO         4303    i.tcp_free_ooseq    tcp.o
    0x08006102   0x08006102   0x00000002   PAD
    0x08006104   0x08006104   0x00000048   Code   RO         4604    i.tcp_get_next_optbyte  tcp_in.o
    0x0800614c   0x0800614c   0x00000038   Code   RO         4304    i.tcp_handle_closepend  tcp.o
    0x08006184   0x08006184   0x00000002   Code   RO         4305    i.tcp_init          tcp.o
    0x08006186   0x08006186   0x00000002   PAD
    0x08006188   0x08006188   0x00000638   Code   RO         4605    i.tcp_input         tcp_in.o
    0x080067c0   0x080067c0   0x0000004c   Code   RO         4606    i.tcp_input_delayed_close  tcp_in.o
    0x0800680c   0x0800680c   0x0000005e   Code   RO         4679    i.tcp_keepalive     tcp_out.o
    0x0800686a   0x0800686a   0x00000002   PAD
    0x0800686c   0x0800686c   0x0000006c   Code   RO         4306    i.tcp_kill_prio     tcp.o
    0x080068d8   0x080068d8   0x0000004c   Code   RO         4307    i.tcp_kill_state    tcp.o
    0x08006924   0x08006924   0x00000040   Code   RO         4308    i.tcp_kill_timewait  tcp.o
    0x08006964   0x08006964   0x00000024   Code   RO         4309    i.tcp_listen_closed  tcp.o
    0x08006988   0x08006988   0x0000018c   Code   RO         4607    i.tcp_listen_input  tcp_in.o
    0x08006b14   0x08006b14   0x00000012   Code   RO         4310    i.tcp_listen_with_backlog  tcp.o
    0x08006b26   0x08006b26   0x00000002   PAD
    0x08006b28   0x08006b28   0x000000dc   Code   RO         4311    i.tcp_listen_with_backlog_and_err  tcp.o
    0x08006c04   0x08006c04   0x0000004c   Code   RO         4312    i.tcp_netif_ip_addr_changed  tcp.o
    0x08006c50   0x08006c50   0x0000002e   Code   RO         4313    i.tcp_netif_ip_addr_changed_pcblist  tcp.o
    0x08006c7e   0x08006c7e   0x0000000a   Code   RO         4314    i.tcp_new           tcp.o
    0x08006c88   0x08006c88   0x00000068   Code   RO         4316    i.tcp_new_port      tcp.o
    0x08006cf0   0x08006cf0   0x00000020   Code   RO         4317    i.tcp_next_iss      tcp.o
    0x08006d10   0x08006d10   0x00000090   Code   RO         4608    i.tcp_oos_insert_segment  tcp_in.o
    0x08006da0   0x08006da0   0x00000268   Code   RO         4680    i.tcp_output        tcp_out.o
    0x08007008   0x08007008   0x0000003c   Code   RO         4681    i.tcp_output_alloc_header  tcp_out.o
    0x08007044   0x08007044   0x00000076   Code   RO         4682    i.tcp_output_alloc_header_common  tcp_out.o
    0x080070ba   0x080070ba   0x00000002   PAD
    0x080070bc   0x080070bc   0x00000068   Code   RO         4683    i.tcp_output_control_segment  tcp_out.o
    0x08007124   0x08007124   0x00000012   Code   RO         4684    i.tcp_output_fill_options  tcp_out.o
    0x08007136   0x08007136   0x00000002   PAD
    0x08007138   0x08007138   0x000000f8   Code   RO         4685    i.tcp_output_segment  tcp_out.o
    0x08007230   0x08007230   0x00000012   Code   RO         4686    i.tcp_output_segment_busy  tcp_out.o
    0x08007242   0x08007242   0x00000002   PAD
    0x08007244   0x08007244   0x000000b8   Code   RO         4609    i.tcp_parseopt      tcp_in.o
    0x080072fc   0x080072fc   0x00000076   Code   RO         4687    i.tcp_pbuf_prealloc  tcp_out.o
    0x08007372   0x08007372   0x00000070   Code   RO         4318    i.tcp_pcb_purge     tcp.o
    0x080073e2   0x080073e2   0x0000006a   Code   RO         4319    i.tcp_pcb_remove    tcp.o
    0x0800744c   0x0800744c   0x000005f0   Code   RO         4610    i.tcp_process       tcp_in.o
    0x08007a3c   0x08007a3c   0x000000aa   Code   RO         4321    i.tcp_process_refused_data  tcp.o
    0x08007ae6   0x08007ae6   0x00000002   PAD
    0x08007ae8   0x08007ae8   0x0000099c   Code   RO         4611    i.tcp_receive       tcp_in.o
    0x08008484   0x08008484   0x00000008   Code   RO         4322    i.tcp_recv          tcp.o
    0x0800848c   0x0800848c   0x0000003a   Code   RO         4323    i.tcp_recv_null     tcp.o
    0x080084c6   0x080084c6   0x0000005e   Code   RO         4324    i.tcp_recved        tcp.o
    0x08008524   0x08008524   0x00000018   Code   RO         4325    i.tcp_remove_listener  tcp.o
    0x0800853c   0x0800853c   0x0000008c   Code   RO         4688    i.tcp_rexmit        tcp_out.o
    0x080085c8   0x080085c8   0x0000007c   Code   RO         4689    i.tcp_rexmit_fast   tcp_out.o
    0x08008644   0x08008644   0x00000014   Code   RO         4690    i.tcp_rexmit_rto    tcp_out.o
    0x08008658   0x08008658   0x0000001e   Code   RO         4691    i.tcp_rexmit_rto_commit  tcp_out.o
    0x08008676   0x08008676   0x0000008e   Code   RO         4692    i.tcp_rexmit_rto_prepare  tcp_out.o
    0x08008704   0x08008704   0x0000001e   Code   RO         4693    i.tcp_route         tcp_out.o
    0x08008722   0x08008722   0x00000002   PAD
    0x08008724   0x08008724   0x00000078   Code   RO         4694    i.tcp_rst           tcp_out.o
    0x0800879c   0x0800879c   0x00000026   Code   RO         4326    i.tcp_seg_copy      tcp.o
    0x080087c2   0x080087c2   0x0000001a   Code   RO         4327    i.tcp_seg_free      tcp.o
    0x080087dc   0x080087dc   0x00000018   Code   RO         4328    i.tcp_segs_free     tcp.o
    0x080087f4   0x080087f4   0x000000ac   Code   RO         4695    i.tcp_send_empty_ack  tcp_out.o
    0x080088a0   0x080088a0   0x0000004e   Code   RO         4696    i.tcp_send_fin      tcp_out.o
    0x080088ee   0x080088ee   0x00000002   PAD
    0x080088f0   0x080088f0   0x00000044   Code   RO          591    i.tcp_server_accept  tcp_server.o
    0x08008934   0x08008934   0x0000003c   Code   RO          592    i.tcp_server_init   tcp_server.o
    0x08008970   0x08008970   0x00000080   Code   RO          593    i.tcp_server_recv   tcp_server.o
    0x080089f0   0x080089f0   0x0000000e   Code   RO         4330    i.tcp_setprio       tcp.o
    0x080089fe   0x080089fe   0x00000002   PAD
    0x08008a00   0x08008a00   0x0000040c   Code   RO         4332    i.tcp_slowtmr       tcp.o
    0x08008e0c   0x08008e0c   0x000001b4   Code   RO         4697    i.tcp_split_unsent_seg  tcp_out.o
    0x08008fc0   0x08008fc0   0x00000038   Code   RO         4838    i.tcp_timer_needed  timeouts.o
    0x08008ff8   0x08008ff8   0x000000ac   Code   RO         4612    i.tcp_timewait_input  tcp_in.o
    0x080090a4   0x080090a4   0x00000024   Code   RO         4334    i.tcp_tmr           tcp.o
    0x080090c8   0x080090c8   0x00000014   Code   RO         4613    i.tcp_trigger_input_pcb_close  tcp_in.o
    0x080090dc   0x080090dc   0x0000004a   Code   RO         4336    i.tcp_update_rcv_ann_wnd  tcp.o
    0x08009126   0x08009126   0x00000002   PAD
    0x08009128   0x08009128   0x00000478   Code   RO         4698    i.tcp_write         tcp_out.o
    0x080095a0   0x080095a0   0x00000084   Code   RO         4699    i.tcp_write_checks  tcp_out.o
    0x08009624   0x08009624   0x000000ec   Code   RO         4700    i.tcp_zero_window_probe  tcp_out.o
    0x08009710   0x08009710   0x000001fc   Code   RO          446    i.tcpip_stack_init  netconf.o
    0x0800990c   0x0800990c   0x00000038   Code   RO         4839    i.tcpip_tcp_timer   timeouts.o
    0x08009944   0x08009944   0x00000010   Code   RO          447    i.time_update       netconf.o
    0x08009954   0x08009954   0x00000010   Code   RO         2234    i.tmr_base_init     at32f403a_407_tmr.o
    0x08009964   0x08009964   0x0000000a   Code   RO         2244    i.tmr_cnt_dir_set   at32f403a_407_tmr.o
    0x0800996e   0x0800996e   0x0000000a   Code   RO         2245    i.tmr_counter_enable  at32f403a_407_tmr.o
    0x08009978   0x08009978   0x00000006   Code   RO         2257    i.tmr_flag_clear    at32f403a_407_tmr.o
    0x0800997e   0x0800997e   0x00000012   Code   RO         2258    i.tmr_flag_get      at32f403a_407_tmr.o
    0x08009990   0x08009990   0x00000016   Code   RO         2266    i.tmr_interrupt_enable  at32f403a_407_tmr.o
    0x080099a6   0x080099a6   0x00000002   Code   RO         4907    i.udp_init          udp.o
    0x080099a8   0x080099a8   0x0000023c   Code   RO         4908    i.udp_input         udp.o
    0x08009be4   0x08009be4   0x00000060   Code   RO         4909    i.udp_input_local_match  udp.o
    0x08009c44   0x08009c44   0x00000030   Code   RO         4910    i.udp_netif_ip_addr_changed  udp.o
    0x08009c74   0x08009c74   0x0000000a   Code   RO         5248    x$fpl$fpinit        fz_wm.l(fpinit.o)
    0x08009c7e   0x08009c7e   0x00000028   Data   RO          798    .constdata          at32f403a_407_crm.o
    0x08009ca6   0x08009ca6   0x00000010   Data   RO         2583    .constdata          system_at32f403a_407.o
    0x08009cb6   0x08009cb6   0x0000000c   Data   RO         2856    .constdata          ethernet.o
    0x08009cc2   0x08009cc2   0x00000002   PAD
    0x08009cc4   0x08009cc4   0x00000008   Data   RO         3362    .constdata          ip4_addr.o
    0x08009ccc   0x08009ccc   0x00000108   Data   RO         3566    .constdata          memp.o
    0x08009dd4   0x08009dd4   0x00000050   Data   RO         4337    .constdata          tcp.o
    0x08009e24   0x08009e24   0x00000024   Data   RO         4840    .constdata          timeouts.o
    0x08009e48   0x08009e48   0x0000007c   Data   RO         3567    .conststring        memp.o
    0x08009ec4   0x08009ec4   0x0000006d   Data   RO         4338    .conststring        tcp.o
    0x08009f31   0x08009f31   0x00000003   PAD
    0x08009f34   0x08009f34   0x00000020   Data   RO         5331    Region$$Table       anon$$obj.o


    Execution Region RW_IRAM1 (Exec base: 0x20000000, Load base: 0x08009f54, Size: 0x0000f160, Max: 0x00038000, ABSOLUTE, COMPRESSED[0x00000034])

    Exec Addr    Load Addr    Size         Type   Attr      Idx    E Section Name        Object

    0x20000000   COMPRESSED   0x00000008   Data   RW          410    .data               main.o
    0x20000008   COMPRESSED   0x0000001e   Data   RW          449    .data               netconf.o
    0x20000026   COMPRESSED   0x00000002   PAD
    0x20000028   COMPRESSED   0x0000002d   Data   RW          657    .data               at32f403a_407_board.o
    0x20000055   COMPRESSED   0x00000003   PAD
    0x20000058   COMPRESSED   0x00000008   Data   RW         1317    .data               at32f403a_407_emac.o
    0x20000060   COMPRESSED   0x00000004   Data   RW         2584    .data               system_at32f403a_407.o
    0x20000064   COMPRESSED   0x00000001   Data   RW         2756    .data               etharp.o
    0x20000065   COMPRESSED   0x00000003   PAD
    0x20000068   COMPRESSED   0x0000000e   Data   RW         2898    .data               ethernetif.o
    0x20000076   COMPRESSED   0x00000002   PAD
    0x20000078   COMPRESSED   0x00000008   Data   RW         3035    .data               igmp.o
    0x20000080   COMPRESSED   0x00000008   Data   RW         3293    .data               ip4.o
    0x20000088   COMPRESSED   0x00000006   Data   RW         3425    .data               ip4_frag.o
    0x2000008e   COMPRESSED   0x00000002   PAD
    0x20000090   COMPRESSED   0x0000000c   Data   RW         3493    .data               mem.o
    0x2000009c   COMPRESSED   0x0000002c   Data   RW         3568    .data               memp.o
    0x200000c8   COMPRESSED   0x0000000a   Data   RW         3695    .data               netif.o
    0x200000d2   COMPRESSED   0x00000001   Data   RW         3920    .data               pbuf.o
    0x200000d3   COMPRESSED   0x00000001   PAD
    0x200000d4   COMPRESSED   0x00000004   Data   RW         4136    .data               raw.o
    0x200000d8   COMPRESSED   0x00000004   Data   RW         4261    .data               sys_arch.o
    0x200000dc   COMPRESSED   0x00000020   Data   RW         4339    .data               tcp.o
    0x200000fc   COMPRESSED   0x00000028   Data   RW         4615    .data               tcp_in.o
    0x20000124   COMPRESSED   0x0000000c   Data   RW         4841    .data               timeouts.o
    0x20000130   COMPRESSED   0x00000008   Data   RW         4920    .data               udp.o
    0x20000138        -       0x0000000e   Zero   RW          239    .bss                at32_emac.o
    0x20000146   COMPRESSED   0x00000002   PAD
    0x20000148        -       0x0000007c   Zero   RW          448    .bss                netconf.o
    0x200001c4        -       0x000000f0   Zero   RW         2755    .bss                etharp.o
    0x200002b4        -       0x00003c00   Zero   RW         2897    .bss                ethernetif.o
    0x20003eb4        -       0x00000018   Zero   RW         3272    .bss                ip.o
    0x20003ecc        -       0x00005013   Zero   RW         3492    .bss                mem.o
    0x20008edf   COMPRESSED   0x00000001   PAD
    0x20008ee0        -       0x000059d0   Zero   RW         3565    .bss                memp.o
    0x2000e8b0        -       0x0000007c   Zero   RW         3694    .bss                netif.o
    0x2000e92c        -       0x000001c0   Zero   RW         4222    .bss                stats.o
    0x2000eaec        -       0x00000014   Zero   RW         4614    .bss                tcp_in.o
    0x2000eb00        -       0x00000060   Zero   RW         5210    .bss                c_w.l(libspace.o)
    0x2000eb60        -       0x00000200   Zero   RW         2616    HEAP                startup_at32f403a_407.o
    0x2000ed60        -       0x00000400   Zero   RW         2615    STACK               startup_at32f403a_407.o


==============================================================================

Image component sizes


      Code (inc. data)   RO Data    RW Data    ZI Data      Debug   Object Name

         0          0          0          0          0       2500   altcp.o
      1080         48          0          0         14      34828   at32_emac.o
       448         60          0         45          0       8783   at32f403a_407_board.o
       108          0          0          0          0      65706   at32f403a_407_clock.o
       980        122         40          0          0      11141   at32f403a_407_crm.o
      1950        202          0          8          0      26329   at32f403a_407_emac.o
       266          6          0          0          0       3057   at32f403a_407_gpio.o
        58          6          0          0          0       5403   at32f403a_407_int.o
       280         18          0          0          0      33052   at32f403a_407_misc.o
        82          0          0          0          0       4698   at32f403a_407_tmr.o
        38          0          0          0          0       1354   def.o
      2468         88          0          1        240      18438   etharp.o
       408         12         12          0          0       3230   ethernet.o
       846         64          0         14      15360       9342   ethernetif.o
      1028         20          0          0          0      10293   icmp.o
      1172         66          0          8          0      18254   igmp.o
       114          0          0          0          0      10669   inet_chksum.o
        38          0          0          0          0        684   init.o
         0          0          0          0         24       3438   ip.o
      1748         54          0          8          0       8864   ip4.o
        78          0          8          0          0       9850   ip4_addr.o
      2058         54          0          6          0      13958   ip4_frag.o
        60          6          0          8          0       1392   main.o
      1296         94          0         12      20499       9341   mem.o
       272         16        388         44      22992      12064   memp.o
       686         58          0         30        124      25451   netconf.o
      1362         66          0         10        124      24024   netif.o
      1404          4          0          1          0      19653   pbuf.o
       264         20          0          4          0       8415   raw.o
        64         26        388          0       1536       1016   startup_at32f403a_407.o
        20         10          0          0        448       5858   stats.o
        12          6          0          4          0        957   sys_arch.o
       360         38         16          4          0       2572   system_at32f403a_407.o
      4250        212        189         32          0      45811   tcp.o
      6768        398          0         40         20      24555   tcp_in.o
      4722         58          0          0          0      36382   tcp_out.o
       256         56          0          0          0      15902   tcp_server.o
       402         58         36         12          0       7041   timeouts.o
       718         24          0          8          0       6926   udp.o

    ----------------------------------------------------------------------
     38222       1970       1114        312      61384     551231   Object Totals
         0          0         32          0          0          0   (incl. Generated)
        58          0          5         13          3          0   (incl. Padding)

    ----------------------------------------------------------------------

      Code (inc. data)   RO Data    RW Data    ZI Data      Debug   Library Member Name

        90          0          0          0          0          0   __dczerorl2.o
         8          0          0          0          0         68   __main.o
         0          0          0          0          0          0   __rtentry.o
        12          0          0          0          0          0   __rtentry2.o
         6          0          0          0          0          0   __rtentry4.o
        52          8          0          0          0          0   __scatter.o
        28          0          0          0          0          0   __scatter_zi.o
        10          0          0          0          0         68   defsig_exit.o
        50          0          0          0          0         88   defsig_general.o
        80         58          0          0          0         76   defsig_rtmem_inner.o
        14          0          0          0          0         80   defsig_rtmem_outer.o
        18          0          0          0          0         80   exit.o
        94          0          0          0          0         80   h1_alloc.o
        52          0          0          0          0         68   h1_extend.o
        78          0          0          0          0         80   h1_free.o
        14          0          0          0          0         84   h1_init.o
         6          0          0          0          0        152   heapauxi.o
         4          0          0          0          0        136   hguard.o
       138          0          0          0          0        168   init_alloc.o
         2          0          0          0          0          0   libinit.o
        14          0          0          0          0          0   libinit2.o
         2          0          0          0          0          0   libshutdown.o
         2          0          0          0          0          0   libshutdown2.o
         8          4          0          0         96         68   libspace.o
         0          0          0          0          0          0   maybetermalloc1.o
        88          0          0          0          0         76   memcmp.o
         8          4          0          0          0         68   rt_heap_descriptor_intlibspace.o
        68          0          0          0          0         68   rt_memclr.o
        78          0          0          0          0         80   rt_memclr_w.o
       138          0          0          0          0         68   rt_memcpy_v6.o
       100          0          0          0          0         80   rt_memcpy_w.o
         2          0          0          0          0          0   rtexit.o
        10          0          0          0          0          0   rtexit2.o
        86          0          0          0          0         76   strncpy.o
        74          0          0          0          0         80   sys_stackheap_outer.o
         2          0          0          0          0         68   use_no_semi.o
         2          0          0          0          0         68   use_no_semi_2.o
        10          0          0          0          0        116   fpinit.o

    ----------------------------------------------------------------------
      1452         74          0          0         96       2144   Library Totals
         4          0          0          0          0          0   (incl. Padding)

    ----------------------------------------------------------------------

      Code (inc. data)   RO Data    RW Data    ZI Data      Debug   Library Name

      1438         74          0          0         96       2028   c_w.l
        10          0          0          0          0        116   fz_wm.l

    ----------------------------------------------------------------------
      1452         74          0          0         96       2144   Library Totals

    ----------------------------------------------------------------------

==============================================================================


      Code (inc. data)   RO Data    RW Data    ZI Data      Debug   

     39674       2044       1114        312      61480     521883   Grand Totals
     39674       2044       1114         52      61480     521883   ELF Image Totals (compressed)
     39674       2044       1114         52          0          0   ROM Totals

==============================================================================

    Total RO  Size (Code + RO Data)                40788 (  39.83kB)
    Total RW  Size (RW Data + ZI Data)             61792 (  60.34kB)
    Total ROM Size (Code + RO Data + RW Data)      40840 (  39.88kB)

==============================================================================

